{"abi":[{"type":"constructor","inputs":[{"name":"_oldToken","type":"address","internalType":"address"},{"name":"_newToken","type":"address","internalType":"address"}],"stateMutability":"nonpayable"},{"type":"function","name":"OPERATIONS","inputs":[],"outputs":[{"name":"","type":"address","internalType":"address"}],"stateMutability":"view"},{"type":"function","name":"SPLIT","inputs":[],"outputs":[{"name":"","type":"uint256","internalType":"uint256"}],"stateMutability":"view"},{"type":"function","name":"amountMigrated","inputs":[{"name":"","type":"address","internalType":"address"}],"outputs":[{"name":"","type":"uint256","internalType":"uint256"}],"stateMutability":"view"},{"type":"function","name":"execute","inputs":[{"name":"_x","type":"address","internalType":"address"},{"name":"_data","type":"bytes","internalType":"bytes"}],"outputs":[],"stateMutability":"nonpayable"},{"type":"function","name":"migrate","inputs":[{"name":"_amount","type":"uint256","internalType":"uint256"}],"outputs":[],"stateMutability":"nonpayable"},{"type":"function","name":"migrationPaused","inputs":[],"outputs":[{"name":"","type":"bool","internalType":"bool"}],"stateMutability":"view"},{"type":"function","name":"newToken","inputs":[],"outputs":[{"name":"","type":"address","internalType":"contract ASTRO"}],"stateMutability":"view"},{"type":"function","name":"oldToken","inputs":[],"outputs":[{"name":"","type":"address","internalType":"contract IERC20"}],"stateMutability":"view"},{"type":"function","name":"rescue","inputs":[{"name":"_token","type":"address","internalType":"address"}],"outputs":[],"stateMutability":"nonpayable"},{"type":"function","name":"totalItxMigrated","inputs":[],"outputs":[{"name":"","type":"uint256","internalType":"uint256"}],"stateMutability":"view"},{"type":"event","name":"Migrated","inputs":[{"name":"user","type":"address","indexed":false,"internalType":"address"},{"name":"amount","type":"uint256","indexed":false,"internalType":"uint256"},{"name":"newAmount","type":"uint256","indexed":false,"internalType":"uint256"}],"anonymous":false},{"type":"error","name":"Failed","inputs":[]},{"type":"error","name":"Paused","inputs":[]}],"bytecode":{"object":"0x608034609657601f6107ef38819003918201601f19168301916001600160401b03831184841017609b578084926040948552833981010312609657604b602060458360b1565b920160b1565b600080546001600160a01b03199081166001600160a01b0394851617825560018054909116939092169290921790556003556004805460ff1916905560405161072a90816100c58239f35b600080fd5b634e487b7160e01b600052604160045260246000fd5b51906001600160a01b038216820360965756fe608080604052600436101561001357600080fd5b600090813560e01c9081631b04b5a814610649575080631cff79cd146105525780632a6411141461052f578063454b0608146102a2578063586b585c14610269578063839006f21461012e5780638f92dd5714610110578063b31c710a146100e9578063c42bd05a146100c05763fd4e36ec1461008f57600080fd5b346100bd57806003193601126100bd57602060405173bfc57b070b1eda0fcb9c203edc1085c626f3a36d8152f35b80fd5b50346100bd57806003193601126100bd576001546040516001600160a01b039091168152602090f35b50346100bd57806003193601126100bd57546040516001600160a01b039091168152602090f35b50346100bd57806003193601126100bd576020600354604051908152f35b50346100bd5760203660031901126100bd57610148610666565b73bfc57b070b1eda0fcb9c203edc1085c626f3a36d330361025a576040516370a0823160e01b815230600482015282916001600160a01b0316602082602481845afa91821561024f578392610216575b506044602092604051948593849263a9059cbb60e01b845273bfc57b070b1eda0fcb9c203edc1085c626f3a36d600485015260248401525af1801561020b576101df575080f35b6102009060203d602011610204575b6101f88183610681565b8101906106dc565b5080f35b503d6101ee565b6040513d84823e3d90fd5b91506020823d602011610247575b8161023160209383610681565b81010312610243579051906044610198565b5050fd5b3d9150610224565b6040513d85823e3d90fd5b63312d207360e11b8252600482fd5b50346100bd5760203660031901126100bd576020906040906001600160a01b03610291610666565b168152600283522054604051908152f35b50346100bd5760203660031901126100bd576004359060ff600454166105205760646102d0836003546106b9565b116105115780546040516323b872dd60e01b815233600482015230602482015260448101849052906020908290606490829086906001600160a01b03165af1801561020b576104f4575b5080546001600160a01b0316803b156104cc57818091602460405180948193630852cd8d60e31b83528860048401525af1801561020b576104e4575b5090610364816003546106b9565b60035533825260026020526040822061037e8282546106b9565b90556298968081028181046298968014821517156104d05760015483906001600160a01b0316803b156104cc576040516340c10f1960e01b8152336004820152602481018490529082908290604490829084905af1801561020b576104b3575b50507fd083678824038160bef3975359ab29f19c3f0e9bcf9d7ead540a492d4d678b63916060916040519133835260208301526040820152a1606460035410156104255780f35b60015481906001600160a01b0316803b156104b057818091604460405180948193631b2b455f60e11b83527f9f2df0fed2c77648de5860a4cc508cd0818c85b8b8a1ab4ceeef8d981c8956a660048401523060248401525af1801561020b5761049b575b5050600160ff19600454161760045580f35b816104a591610681565b6100bd578038610489565b50fd5b816104bd91610681565b6104c85782386103de565b8280fd5b5080fd5b634e487b7160e01b83526011600452602483fd5b816104ee91610681565b38610356565b61050c9060203d602011610204576101f88183610681565b61031a565b63312d207360e11b8152600490fd5b6313d0ff5960e31b8152600490fd5b50346100bd57806003193601126100bd57602060ff600454166040519015158152f35b50346100bd5760403660031901126100bd5761056c610666565b906024359167ffffffffffffffff83116104cc57366023840112156104cc57826004013567ffffffffffffffff81116104c85736602482860101116104c85773bfc57b070b1eda0fcb9c203edc1085c626f3a36d330361063a57906024838095848295604051948593018337810182815203925af13d15610635573d67ffffffffffffffff8111610621576040519061060f601f8201601f191660200183610681565b81528260203d92013e5b156105115780f35b634e487b7160e01b83526041600452602483fd5b610619565b63312d207360e11b8352600483fd5b9050346104cc57816003193601126104cc57806298968060209252f35b600435906001600160a01b038216820361067c57565b600080fd5b90601f8019910116810190811067ffffffffffffffff8211176106a357604052565b634e487b7160e01b600052604160045260246000fd5b919082018092116106c657565b634e487b7160e01b600052601160045260246000fd5b9081602091031261067c5751801515810361067c579056fea2646970667358221220e025a0a7868f9eadcac1e91c0576ccb1d0eeb86c25ff86c643c8336963251c4064736f6c634300081a0033","linkReferences":{}},"methodIdentifiers":{"OPERATIONS()":"fd4e36ec","SPLIT()":"1b04b5a8","amountMigrated(address)":"586b585c","execute(address,bytes)":"1cff79cd","migrate(uint256)":"454b0608","migrationPaused()":"2a641114","newToken()":"c42bd05a","oldToken()":"b31c710a","rescue(address)":"839006f2","totalItxMigrated()":"8f92dd57"},"id":66}