{"abi":[{"type":"constructor","inputs":[{"name":"_oldToken","type":"address","internalType":"address"},{"name":"_newToken","type":"address","internalType":"address"}],"stateMutability":"nonpayable"},{"type":"function","name":"OPERATIONS","inputs":[],"outputs":[{"name":"","type":"address","internalType":"address"}],"stateMutability":"view"},{"type":"function","name":"SPLIT","inputs":[],"outputs":[{"name":"","type":"uint256","internalType":"uint256"}],"stateMutability":"view"},{"type":"function","name":"amountMigrated","inputs":[{"name":"","type":"address","internalType":"address"}],"outputs":[{"name":"","type":"uint256","internalType":"uint256"}],"stateMutability":"view"},{"type":"function","name":"migrate","inputs":[{"name":"_amount","type":"uint256","internalType":"uint256"}],"outputs":[],"stateMutability":"nonpayable"},{"type":"function","name":"newToken","inputs":[],"outputs":[{"name":"","type":"address","internalType":"contract INT"}],"stateMutability":"view"},{"type":"function","name":"oldToken","inputs":[],"outputs":[{"name":"","type":"address","internalType":"contract IERC20"}],"stateMutability":"view"},{"type":"function","name":"rescue","inputs":[{"name":"_token","type":"address","internalType":"address"}],"outputs":[],"stateMutability":"nonpayable"},{"type":"function","name":"totalItxMigrated","inputs":[],"outputs":[{"name":"","type":"uint256","internalType":"uint256"}],"stateMutability":"view"},{"type":"event","name":"Migrated","inputs":[{"name":"user","type":"address","indexed":false,"internalType":"address"},{"name":"amount","type":"uint256","indexed":false,"internalType":"uint256"},{"name":"newAmount","type":"uint256","indexed":false,"internalType":"uint256"}],"anonymous":false},{"type":"error","name":"Failed","inputs":[]}],"bytecode":{"object":"0x608034608c57601f61067b38819003918201601f19168301916001600160401b038311848410176091578084926040948552833981010312608c57604b602060458360a7565b920160a7565b600080546001600160a01b03199081166001600160a01b0394851617825560018054909116939092169290921790556003556040516105c090816100bb8239f35b600080fd5b634e487b7160e01b600052604160045260246000fd5b51906001600160a01b0382168203608c5756fe608080604052600436101561001357600080fd5b600090813560e01c9081631b04b5a8146104f557508063454b060814610298578063586b585c1461025b578063839006f2146101185780638f92dd57146100fa578063b31c710a146100d3578063c42bd05a146100aa5763fd4e36ec1461007957600080fd5b346100a757806003193601126100a757602060405173bfc57b070b1eda0fcb9c203edc1085c626f3a36d8152f35b80fd5b50346100a757806003193601126100a7576001546040516001600160a01b039091168152602090f35b50346100a757806003193601126100a757546040516001600160a01b039091168152602090f35b50346100a757806003193601126100a7576020600354604051908152f35b50346100a75760203660031901126100a7576004356001600160a01b038116908190036102575773bfc57b070b1eda0fcb9c203edc1085c626f3a36d3303610248576040516370a0823160e01b81523060048201528291602082602481845afa91821561023d578392610204575b506044602092604051948593849263a9059cbb60e01b845273bfc57b070b1eda0fcb9c203edc1085c626f3a36d600485015260248401525af180156101f9576101cd575080f35b6101ee9060203d6020116101f2575b6101e68183610535565b81019061056d565b5080f35b503d6101dc565b6040513d84823e3d90fd5b91506020823d602011610235575b8161021f60209383610535565b81010312610231579051906044610186565b5050fd5b3d9150610212565b6040513d85823e3d90fd5b63312d207360e11b8252600482fd5b5080fd5b50346100a75760203660031901126100a7576004356001600160a01b03811690819003610257578160409160209352600283522054604051908152f35b50346100a75760203660031901126100a7576004359060646102bc83600354610512565b116104e65780546040516323b872dd60e01b815233600482015230602482015260448101849052906020908290606490829086906001600160a01b03165af180156101f9576104c9575b5080546001600160a01b0316803b1561025757818091602460405180948193630852cd8d60e31b83528860048401525af180156101f9576104b9575b509061035081600354610512565b60035533825260026020526040822061036a828254610512565b90556298968081028181046298968014821517156104a55760015483906001600160a01b0316803b15610257576040516340c10f1960e01b8152336004820152602481018490529082908290604490829084905af180156101f95761048c575b50507fd083678824038160bef3975359ab29f19c3f0e9bcf9d7ead540a492d4d678b63916060916040519133835260208301526040820152a16064600354146104105780f35b60015481906001600160a01b0316803b1561048957818091604460405180948193631b2b455f60e11b83527f9f2df0fed2c77648de5860a4cc508cd0818c85b8b8a1ab4ceeef8d981c8956a660048401523060248401525af180156101f95761047857505080f35b8161048291610535565b6100a75780f35b50fd5b8161049691610535565b6104a15782386103ca565b8280fd5b634e487b7160e01b83526011600452602483fd5b816104c391610535565b38610342565b6104e19060203d6020116101f2576101e68183610535565b610306565b63312d207360e11b8152600490fd5b905034610257578160031936011261025757806298968060209252f35b9190820180921161051f57565b634e487b7160e01b600052601160045260246000fd5b90601f8019910116810190811067ffffffffffffffff82111761055757604052565b634e487b7160e01b600052604160045260246000fd5b90816020910312610585575180151581036105855790565b600080fdfea2646970667358221220424eee5c8f8ba7a5e26bc4b1edeafddca23102a619a66c055452f929eed9a11864736f6c634300081a0033","linkReferences":{}},"methodIdentifiers":{"OPERATIONS()":"fd4e36ec","SPLIT()":"1b04b5a8","amountMigrated(address)":"586b585c","migrate(uint256)":"454b0608","newToken()":"c42bd05a","oldToken()":"b31c710a","rescue(address)":"839006f2","totalItxMigrated()":"8f92dd57"},"id":66}