{"abi":[{"type":"constructor","inputs":[{"name":"_endpoint","type":"address","internalType":"address"},{"name":"_weth","type":"address","internalType":"address"}],"stateMutability":"nonpayable"},{"type":"receive","stateMutability":"payable"},{"type":"function","name":"DEFAULT_ADMIN_ROLE","inputs":[],"outputs":[{"name":"","type":"bytes32","internalType":"bytes32"}],"stateMutability":"view"},{"type":"function","name":"DENOM","inputs":[],"outputs":[{"name":"","type":"uint256","internalType":"uint256"}],"stateMutability":"view"},{"type":"function","name":"DIVISOR","inputs":[],"outputs":[{"name":"","type":"uint256","internalType":"uint256"}],"stateMutability":"view"},{"type":"function","name":"OPERATIONS","inputs":[],"outputs":[{"name":"","type":"address","internalType":"address"}],"stateMutability":"view"},{"type":"function","name":"OPERATOR_ROLE","inputs":[],"outputs":[{"name":"","type":"bytes32","internalType":"bytes32"}],"stateMutability":"view"},{"type":"function","name":"SEND","inputs":[],"outputs":[{"name":"","type":"uint16","internalType":"uint16"}],"stateMutability":"view"},{"type":"function","name":"SEND_AND_CALL","inputs":[],"outputs":[{"name":"","type":"uint16","internalType":"uint16"}],"stateMutability":"view"},{"type":"function","name":"WETH","inputs":[],"outputs":[{"name":"","type":"address","internalType":"contract IWETH"}],"stateMutability":"view"},{"type":"function","name":"aToken","inputs":[],"outputs":[{"name":"","type":"address","internalType":"contract IAToken"}],"stateMutability":"view"},{"type":"function","name":"aavePool","inputs":[],"outputs":[{"name":"","type":"address","internalType":"contract IPool"}],"stateMutability":"view"},{"type":"function","name":"allowInitializePath","inputs":[{"name":"origin","type":"tuple","internalType":"struct Origin","components":[{"name":"srcEid","type":"uint32","internalType":"uint32"},{"name":"sender","type":"bytes32","internalType":"bytes32"},{"name":"nonce","type":"uint64","internalType":"uint64"}]}],"outputs":[{"name":"","type":"bool","internalType":"bool"}],"stateMutability":"view"},{"type":"function","name":"allowance","inputs":[{"name":"owner","type":"address","internalType":"address"},{"name":"spender","type":"address","internalType":"address"}],"outputs":[{"name":"","type":"uint256","internalType":"uint256"}],"stateMutability":"view"},{"type":"function","name":"approvalRequired","inputs":[],"outputs":[{"name":"","type":"bool","internalType":"bool"}],"stateMutability":"pure"},{"type":"function","name":"approve","inputs":[{"name":"spender","type":"address","internalType":"address"},{"name":"value","type":"uint256","internalType":"uint256"}],"outputs":[{"name":"","type":"bool","internalType":"bool"}],"stateMutability":"nonpayable"},{"type":"function","name":"autoRewarder","inputs":[],"outputs":[{"name":"","type":"bool","internalType":"bool"}],"stateMutability":"view"},{"type":"function","name":"balanceOf","inputs":[{"name":"account","type":"address","internalType":"address"}],"outputs":[{"name":"","type":"uint256","internalType":"uint256"}],"stateMutability":"view"},{"type":"function","name":"changeRecipient","inputs":[{"name":"_ir","type":"address","internalType":"address"}],"outputs":[],"stateMutability":"nonpayable"},{"type":"function","name":"changeShares","inputs":[{"name":"_shareU","type":"uint256","internalType":"uint256"},{"name":"_shareT","type":"uint256","internalType":"uint256"}],"outputs":[],"stateMutability":"nonpayable"},{"type":"function","name":"combineOptions","inputs":[{"name":"_eid","type":"uint32","internalType":"uint32"},{"name":"_msgType","type":"uint16","internalType":"uint16"},{"name":"_extraOptions","type":"bytes","internalType":"bytes"}],"outputs":[{"name":"","type":"bytes","internalType":"bytes"}],"stateMutability":"view"},{"type":"function","name":"decimalConversionRate","inputs":[],"outputs":[{"name":"","type":"uint256","internalType":"uint256"}],"stateMutability":"view"},{"type":"function","name":"decimals","inputs":[],"outputs":[{"name":"","type":"uint8","internalType":"uint8"}],"stateMutability":"pure"},{"type":"function","name":"endpoint","inputs":[],"outputs":[{"name":"","type":"address","internalType":"contract ILayerZeroEndpointV2"}],"stateMutability":"view"},{"type":"function","name":"enforcedOptions","inputs":[{"name":"eid","type":"uint32","internalType":"uint32"},{"name":"msgType","type":"uint16","internalType":"uint16"}],"outputs":[{"name":"enforcedOption","type":"bytes","internalType":"bytes"}],"stateMutability":"view"},{"type":"function","name":"execute","inputs":[{"name":"_x","type":"address","internalType":"address"},{"name":"_data","type":"bytes","internalType":"bytes"}],"outputs":[],"stateMutability":"nonpayable"},{"type":"function","name":"getRoleAdmin","inputs":[{"name":"role","type":"bytes32","internalType":"bytes32"}],"outputs":[{"name":"","type":"bytes32","internalType":"bytes32"}],"stateMutability":"view"},{"type":"function","name":"grantRole","inputs":[{"name":"role","type":"bytes32","internalType":"bytes32"},{"name":"account","type":"address","internalType":"address"}],"outputs":[],"stateMutability":"nonpayable"},{"type":"function","name":"hasRole","inputs":[{"name":"role","type":"bytes32","internalType":"bytes32"},{"name":"account","type":"address","internalType":"address"}],"outputs":[{"name":"","type":"bool","internalType":"bool"}],"stateMutability":"view"},{"type":"function","name":"incentivesRecipient","inputs":[],"outputs":[{"name":"","type":"address","internalType":"contract IRewarder"}],"stateMutability":"view"},{"type":"function","name":"init","inputs":[{"name":"_aToken","type":"address","internalType":"address"},{"name":"_incentivesRecipient","type":"address","internalType":"address"},{"name":"_gateway","type":"address","internalType":"address"},{"name":"_aavePool","type":"address","internalType":"address"}],"outputs":[],"stateMutability":"nonpayable"},{"type":"function","name":"isComposeMsgSender","inputs":[{"name":"","type":"tuple","internalType":"struct Origin","components":[{"name":"srcEid","type":"uint32","internalType":"uint32"},{"name":"sender","type":"bytes32","internalType":"bytes32"},{"name":"nonce","type":"uint64","internalType":"uint64"}]},{"name":"","type":"bytes","internalType":"bytes"},{"name":"_sender","type":"address","internalType":"address"}],"outputs":[{"name":"","type":"bool","internalType":"bool"}],"stateMutability":"view"},{"type":"function","name":"isPeer","inputs":[{"name":"_eid","type":"uint32","internalType":"uint32"},{"name":"_peer","type":"bytes32","internalType":"bytes32"}],"outputs":[{"name":"","type":"bool","internalType":"bool"}],"stateMutability":"view"},{"type":"function","name":"lzReceive","inputs":[{"name":"_origin","type":"tuple","internalType":"struct Origin","components":[{"name":"srcEid","type":"uint32","internalType":"uint32"},{"name":"sender","type":"bytes32","internalType":"bytes32"},{"name":"nonce","type":"uint64","internalType":"uint64"}]},{"name":"_guid","type":"bytes32","internalType":"bytes32"},{"name":"_message","type":"bytes","internalType":"bytes"},{"name":"_executor","type":"address","internalType":"address"},{"name":"_extraData","type":"bytes","internalType":"bytes"}],"outputs":[],"stateMutability":"payable"},{"type":"function","name":"lzReceiveAndRevert","inputs":[{"name":"_packets","type":"tuple[]","internalType":"struct InboundPacket[]","components":[{"name":"origin","type":"tuple","internalType":"struct Origin","components":[{"name":"srcEid","type":"uint32","internalType":"uint32"},{"name":"sender","type":"bytes32","internalType":"bytes32"},{"name":"nonce","type":"uint64","internalType":"uint64"}]},{"name":"dstEid","type":"uint32","internalType":"uint32"},{"name":"receiver","type":"address","internalType":"address"},{"name":"guid","type":"bytes32","internalType":"bytes32"},{"name":"value","type":"uint256","internalType":"uint256"},{"name":"executor","type":"address","internalType":"address"},{"name":"message","type":"bytes","internalType":"bytes"},{"name":"extraData","type":"bytes","internalType":"bytes"}]}],"outputs":[],"stateMutability":"payable"},{"type":"function","name":"lzReceiveSimulate","inputs":[{"name":"_origin","type":"tuple","internalType":"struct Origin","components":[{"name":"srcEid","type":"uint32","internalType":"uint32"},{"name":"sender","type":"bytes32","internalType":"bytes32"},{"name":"nonce","type":"uint64","internalType":"uint64"}]},{"name":"_guid","type":"bytes32","internalType":"bytes32"},{"name":"_message","type":"bytes","internalType":"bytes"},{"name":"_executor","type":"address","internalType":"address"},{"name":"_extraData","type":"bytes","internalType":"bytes"}],"outputs":[],"stateMutability":"payable"},{"type":"function","name":"mint","inputs":[{"name":"_amount","type":"uint256","internalType":"uint256"}],"outputs":[],"stateMutability":"nonpayable"},{"type":"function","name":"msgInspector","inputs":[],"outputs":[{"name":"","type":"address","internalType":"address"}],"stateMutability":"view"},{"type":"function","name":"name","inputs":[],"outputs":[{"name":"","type":"string","internalType":"string"}],"stateMutability":"view"},{"type":"function","name":"nativeMint","inputs":[],"outputs":[],"stateMutability":"payable"},{"type":"function","name":"nextNonce","inputs":[{"name":"","type":"uint32","internalType":"uint32"},{"name":"","type":"bytes32","internalType":"bytes32"}],"outputs":[{"name":"nonce","type":"uint64","internalType":"uint64"}],"stateMutability":"view"},{"type":"function","name":"oApp","inputs":[],"outputs":[{"name":"","type":"address","internalType":"address"}],"stateMutability":"view"},{"type":"function","name":"oAppVersion","inputs":[],"outputs":[{"name":"senderVersion","type":"uint64","internalType":"uint64"},{"name":"receiverVersion","type":"uint64","internalType":"uint64"}],"stateMutability":"pure"},{"type":"function","name":"oftVersion","inputs":[],"outputs":[{"name":"interfaceId","type":"bytes4","internalType":"bytes4"},{"name":"version","type":"uint64","internalType":"uint64"}],"stateMutability":"pure"},{"type":"function","name":"owner","inputs":[],"outputs":[{"name":"","type":"address","internalType":"address"}],"stateMutability":"view"},{"type":"function","name":"paused","inputs":[],"outputs":[{"name":"","type":"bool","internalType":"bool"}],"stateMutability":"view"},{"type":"function","name":"peers","inputs":[{"name":"eid","type":"uint32","internalType":"uint32"}],"outputs":[{"name":"peer","type":"bytes32","internalType":"bytes32"}],"stateMutability":"view"},{"type":"function","name":"preCrime","inputs":[],"outputs":[{"name":"","type":"address","internalType":"address"}],"stateMutability":"view"},{"type":"function","name":"quoteOFT","inputs":[{"name":"_sendParam","type":"tuple","internalType":"struct SendParam","components":[{"name":"dstEid","type":"uint32","internalType":"uint32"},{"name":"to","type":"bytes32","internalType":"bytes32"},{"name":"amountLD","type":"uint256","internalType":"uint256"},{"name":"minAmountLD","type":"uint256","internalType":"uint256"},{"name":"extraOptions","type":"bytes","internalType":"bytes"},{"name":"composeMsg","type":"bytes","internalType":"bytes"},{"name":"oftCmd","type":"bytes","internalType":"bytes"}]}],"outputs":[{"name":"oftLimit","type":"tuple","internalType":"struct OFTLimit","components":[{"name":"minAmountLD","type":"uint256","internalType":"uint256"},{"name":"maxAmountLD","type":"uint256","internalType":"uint256"}]},{"name":"oftFeeDetails","type":"tuple[]","internalType":"struct OFTFeeDetail[]","components":[{"name":"feeAmountLD","type":"int256","internalType":"int256"},{"name":"description","type":"string","internalType":"string"}]},{"name":"oftReceipt","type":"tuple","internalType":"struct OFTReceipt","components":[{"name":"amountSentLD","type":"uint256","internalType":"uint256"},{"name":"amountReceivedLD","type":"uint256","internalType":"uint256"}]}],"stateMutability":"view"},{"type":"function","name":"quoteSend","inputs":[{"name":"_sendParam","type":"tuple","internalType":"struct SendParam","components":[{"name":"dstEid","type":"uint32","internalType":"uint32"},{"name":"to","type":"bytes32","internalType":"bytes32"},{"name":"amountLD","type":"uint256","internalType":"uint256"},{"name":"minAmountLD","type":"uint256","internalType":"uint256"},{"name":"extraOptions","type":"bytes","internalType":"bytes"},{"name":"composeMsg","type":"bytes","internalType":"bytes"},{"name":"oftCmd","type":"bytes","internalType":"bytes"}]},{"name":"_payInLzToken","type":"bool","internalType":"bool"}],"outputs":[{"name":"msgFee","type":"tuple","internalType":"struct MessagingFee","components":[{"name":"nativeFee","type":"uint256","internalType":"uint256"},{"name":"lzTokenFee","type":"uint256","internalType":"uint256"}]}],"stateMutability":"view"},{"type":"function","name":"redeemShareEth","inputs":[],"outputs":[{"name":"","type":"uint256","internalType":"uint256"}],"stateMutability":"view"},{"type":"function","name":"redeemTokens","inputs":[{"name":"_amount","type":"uint256","internalType":"uint256"}],"outputs":[],"stateMutability":"nonpayable"},{"type":"function","name":"renounceOwnership","inputs":[],"outputs":[],"stateMutability":"nonpayable"},{"type":"function","name":"renounceRole","inputs":[{"name":"role","type":"bytes32","internalType":"bytes32"},{"name":"callerConfirmation","type":"address","internalType":"address"}],"outputs":[],"stateMutability":"nonpayable"},{"type":"function","name":"reserveFactor","inputs":[],"outputs":[{"name":"","type":"uint256","internalType":"uint256"}],"stateMutability":"view"},{"type":"function","name":"revokeRole","inputs":[{"name":"role","type":"bytes32","internalType":"bytes32"},{"name":"account","type":"address","internalType":"address"}],"outputs":[],"stateMutability":"nonpayable"},{"type":"function","name":"send","inputs":[{"name":"_sendParam","type":"tuple","internalType":"struct SendParam","components":[{"name":"dstEid","type":"uint32","internalType":"uint32"},{"name":"to","type":"bytes32","internalType":"bytes32"},{"name":"amountLD","type":"uint256","internalType":"uint256"},{"name":"minAmountLD","type":"uint256","internalType":"uint256"},{"name":"extraOptions","type":"bytes","internalType":"bytes"},{"name":"composeMsg","type":"bytes","internalType":"bytes"},{"name":"oftCmd","type":"bytes","internalType":"bytes"}]},{"name":"_fee","type":"tuple","internalType":"struct MessagingFee","components":[{"name":"nativeFee","type":"uint256","internalType":"uint256"},{"name":"lzTokenFee","type":"uint256","internalType":"uint256"}]},{"name":"_refundAddress","type":"address","internalType":"address"}],"outputs":[{"name":"msgReceipt","type":"tuple","internalType":"struct MessagingReceipt","components":[{"name":"guid","type":"bytes32","internalType":"bytes32"},{"name":"nonce","type":"uint64","internalType":"uint64"},{"name":"fee","type":"tuple","internalType":"struct MessagingFee","components":[{"name":"nativeFee","type":"uint256","internalType":"uint256"},{"name":"lzTokenFee","type":"uint256","internalType":"uint256"}]}]},{"name":"oftReceipt","type":"tuple","internalType":"struct OFTReceipt","components":[{"name":"amountSentLD","type":"uint256","internalType":"uint256"},{"name":"amountReceivedLD","type":"uint256","internalType":"uint256"}]}],"stateMutability":"payable"},{"type":"function","name":"setDelegate","inputs":[{"name":"_delegate","type":"address","internalType":"address"}],"outputs":[],"stateMutability":"nonpayable"},{"type":"function","name":"setEnforcedOptions","inputs":[{"name":"_enforcedOptions","type":"tuple[]","internalType":"struct EnforcedOptionParam[]","components":[{"name":"eid","type":"uint32","internalType":"uint32"},{"name":"msgType","type":"uint16","internalType":"uint16"},{"name":"options","type":"bytes","internalType":"bytes"}]}],"outputs":[],"stateMutability":"nonpayable"},{"type":"function","name":"setMsgInspector","inputs":[{"name":"_msgInspector","type":"address","internalType":"address"}],"outputs":[],"stateMutability":"nonpayable"},{"type":"function","name":"setPaused","inputs":[{"name":"_status","type":"bool","internalType":"bool"}],"outputs":[],"stateMutability":"nonpayable"},{"type":"function","name":"setPeer","inputs":[{"name":"_eid","type":"uint32","internalType":"uint32"},{"name":"_peer","type":"bytes32","internalType":"bytes32"}],"outputs":[],"stateMutability":"nonpayable"},{"type":"function","name":"setPreCrime","inputs":[{"name":"_preCrime","type":"address","internalType":"address"}],"outputs":[],"stateMutability":"nonpayable"},{"type":"function","name":"setRedeemValues","inputs":[{"name":"_newValue","type":"uint256","internalType":"uint256"}],"outputs":[],"stateMutability":"nonpayable"},{"type":"function","name":"shareT","inputs":[],"outputs":[{"name":"","type":"uint256","internalType":"uint256"}],"stateMutability":"view"},{"type":"function","name":"shareU","inputs":[],"outputs":[{"name":"","type":"uint256","internalType":"uint256"}],"stateMutability":"view"},{"type":"function","name":"sharedDecimals","inputs":[],"outputs":[{"name":"","type":"uint8","internalType":"uint8"}],"stateMutability":"view"},{"type":"function","name":"supportsInterface","inputs":[{"name":"interfaceId","type":"bytes4","internalType":"bytes4"}],"outputs":[{"name":"","type":"bool","internalType":"bool"}],"stateMutability":"view"},{"type":"function","name":"symbol","inputs":[],"outputs":[{"name":"","type":"string","internalType":"string"}],"stateMutability":"view"},{"type":"function","name":"toggleAutoRewarder","inputs":[],"outputs":[],"stateMutability":"nonpayable"},{"type":"function","name":"token","inputs":[],"outputs":[{"name":"","type":"address","internalType":"address"}],"stateMutability":"view"},{"type":"function","name":"totalSupply","inputs":[],"outputs":[{"name":"","type":"uint256","internalType":"uint256"}],"stateMutability":"view"},{"type":"function","name":"transfer","inputs":[{"name":"to","type":"address","internalType":"address"},{"name":"value","type":"uint256","internalType":"uint256"}],"outputs":[{"name":"","type":"bool","internalType":"bool"}],"stateMutability":"nonpayable"},{"type":"function","name":"transferFrom","inputs":[{"name":"from","type":"address","internalType":"address"},{"name":"to","type":"address","internalType":"address"},{"name":"value","type":"uint256","internalType":"uint256"}],"outputs":[{"name":"","type":"bool","internalType":"bool"}],"stateMutability":"nonpayable"},{"type":"function","name":"transferOwnership","inputs":[{"name":"newOwner","type":"address","internalType":"address"}],"outputs":[],"stateMutability":"nonpayable"},{"type":"function","name":"underlying","inputs":[],"outputs":[{"name":"","type":"address","internalType":"contract IERC20"}],"stateMutability":"view"},{"type":"function","name":"wtg","inputs":[],"outputs":[{"name":"","type":"address","internalType":"contract IWrappedTokenGatewayV3"}],"stateMutability":"view"},{"type":"event","name":"Approval","inputs":[{"name":"owner","type":"address","indexed":true,"internalType":"address"},{"name":"spender","type":"address","indexed":true,"internalType":"address"},{"name":"value","type":"uint256","indexed":false,"internalType":"uint256"}],"anonymous":false},{"type":"event","name":"EnforcedOptionSet","inputs":[{"name":"_enforcedOptions","type":"tuple[]","indexed":false,"internalType":"struct EnforcedOptionParam[]","components":[{"name":"eid","type":"uint32","internalType":"uint32"},{"name":"msgType","type":"uint16","internalType":"uint16"},{"name":"options","type":"bytes","internalType":"bytes"}]}],"anonymous":false},{"type":"event","name":"Minted","inputs":[{"name":"user","type":"address","indexed":true,"internalType":"address"},{"name":"amount","type":"uint256","indexed":true,"internalType":"uint256"}],"anonymous":false},{"type":"event","name":"MsgInspectorSet","inputs":[{"name":"inspector","type":"address","indexed":false,"internalType":"address"}],"anonymous":false},{"type":"event","name":"OFTReceived","inputs":[{"name":"guid","type":"bytes32","indexed":true,"internalType":"bytes32"},{"name":"srcEid","type":"uint32","indexed":false,"internalType":"uint32"},{"name":"toAddress","type":"address","indexed":true,"internalType":"address"},{"name":"amountReceivedLD","type":"uint256","indexed":false,"internalType":"uint256"}],"anonymous":false},{"type":"event","name":"OFTSent","inputs":[{"name":"guid","type":"bytes32","indexed":true,"internalType":"bytes32"},{"name":"dstEid","type":"uint32","indexed":false,"internalType":"uint32"},{"name":"fromAddress","type":"address","indexed":true,"internalType":"address"},{"name":"amountSentLD","type":"uint256","indexed":false,"internalType":"uint256"},{"name":"amountReceivedLD","type":"uint256","indexed":false,"internalType":"uint256"}],"anonymous":false},{"type":"event","name":"OwnershipTransferred","inputs":[{"name":"previousOwner","type":"address","indexed":true,"internalType":"address"},{"name":"newOwner","type":"address","indexed":true,"internalType":"address"}],"anonymous":false},{"type":"event","name":"PausedContract","inputs":[{"name":"status","type":"bool","indexed":true,"internalType":"bool"}],"anonymous":false},{"type":"event","name":"PeerSet","inputs":[{"name":"eid","type":"uint32","indexed":false,"internalType":"uint32"},{"name":"peer","type":"bytes32","indexed":false,"internalType":"bytes32"}],"anonymous":false},{"type":"event","name":"PreCrimeSet","inputs":[{"name":"preCrimeAddress","type":"address","indexed":false,"internalType":"address"}],"anonymous":false},{"type":"event","name":"Redemption","inputs":[{"name":"user","type":"address","indexed":true,"internalType":"address"},{"name":"amount","type":"uint256","indexed":true,"internalType":"uint256"}],"anonymous":false},{"type":"event","name":"RoleAdminChanged","inputs":[{"name":"role","type":"bytes32","indexed":true,"internalType":"bytes32"},{"name":"previousAdminRole","type":"bytes32","indexed":true,"internalType":"bytes32"},{"name":"newAdminRole","type":"bytes32","indexed":true,"internalType":"bytes32"}],"anonymous":false},{"type":"event","name":"RoleGranted","inputs":[{"name":"role","type":"bytes32","indexed":true,"internalType":"bytes32"},{"name":"account","type":"address","indexed":true,"internalType":"address"},{"name":"sender","type":"address","indexed":true,"internalType":"address"}],"anonymous":false},{"type":"event","name":"RoleRevoked","inputs":[{"name":"role","type":"bytes32","indexed":true,"internalType":"bytes32"},{"name":"account","type":"address","indexed":true,"internalType":"address"},{"name":"sender","type":"address","indexed":true,"internalType":"address"}],"anonymous":false},{"type":"event","name":"Transfer","inputs":[{"name":"from","type":"address","indexed":true,"internalType":"address"},{"name":"to","type":"address","indexed":true,"internalType":"address"},{"name":"value","type":"uint256","indexed":false,"internalType":"uint256"}],"anonymous":false},{"type":"error","name":"AccessControlBadConfirmation","inputs":[]},{"type":"error","name":"AccessControlUnauthorizedAccount","inputs":[{"name":"account","type":"address","internalType":"address"},{"name":"neededRole","type":"bytes32","internalType":"bytes32"}]},{"type":"error","name":"AddressEmptyCode","inputs":[{"name":"target","type":"address","internalType":"address"}]},{"type":"error","name":"AddressInsufficientBalance","inputs":[{"name":"account","type":"address","internalType":"address"}]},{"type":"error","name":"BelowMinimum","inputs":[]},{"type":"error","name":"DivisorError","inputs":[]},{"type":"error","name":"ERC20InsufficientAllowance","inputs":[{"name":"spender","type":"address","internalType":"address"},{"name":"allowance","type":"uint256","internalType":"uint256"},{"name":"needed","type":"uint256","internalType":"uint256"}]},{"type":"error","name":"ERC20InsufficientBalance","inputs":[{"name":"sender","type":"address","internalType":"address"},{"name":"balance","type":"uint256","internalType":"uint256"},{"name":"needed","type":"uint256","internalType":"uint256"}]},{"type":"error","name":"ERC20InvalidApprover","inputs":[{"name":"approver","type":"address","internalType":"address"}]},{"type":"error","name":"ERC20InvalidReceiver","inputs":[{"name":"receiver","type":"address","internalType":"address"}]},{"type":"error","name":"ERC20InvalidSender","inputs":[{"name":"sender","type":"address","internalType":"address"}]},{"type":"error","name":"ERC20InvalidSpender","inputs":[{"name":"spender","type":"address","internalType":"address"}]},{"type":"error","name":"Failed","inputs":[]},{"type":"error","name":"FailedInnerCall","inputs":[]},{"type":"error","name":"InvalidDelegate","inputs":[]},{"type":"error","name":"InvalidEndpointCall","inputs":[]},{"type":"error","name":"InvalidLocalDecimals","inputs":[]},{"type":"error","name":"InvalidOptions","inputs":[{"name":"options","type":"bytes","internalType":"bytes"}]},{"type":"error","name":"LzTokenUnavailable","inputs":[]},{"type":"error","name":"NoChangeInBoolean","inputs":[]},{"type":"error","name":"NoPeer","inputs":[{"name":"eid","type":"uint32","internalType":"uint32"}]},{"type":"error","name":"NotEnoughNative","inputs":[{"name":"msgValue","type":"uint256","internalType":"uint256"}]},{"type":"error","name":"OnlyEndpoint","inputs":[{"name":"addr","type":"address","internalType":"address"}]},{"type":"error","name":"OnlyPeer","inputs":[{"name":"eid","type":"uint32","internalType":"uint32"},{"name":"sender","type":"bytes32","internalType":"bytes32"}]},{"type":"error","name":"OnlySelf","inputs":[]},{"type":"error","name":"OwnableInvalidOwner","inputs":[{"name":"owner","type":"address","internalType":"address"}]},{"type":"error","name":"OwnableUnauthorizedAccount","inputs":[{"name":"account","type":"address","internalType":"address"}]},{"type":"error","name":"Paused","inputs":[]},{"type":"error","name":"ReentrancyGuardReentrantCall","inputs":[]},{"type":"error","name":"RefillRequired","inputs":[]},{"type":"error","name":"SafeERC20FailedOperation","inputs":[{"name":"token","type":"address","internalType":"address"}]},{"type":"error","name":"SimulationResult","inputs":[{"name":"result","type":"bytes","internalType":"bytes"}]},{"type":"error","name":"SlippageExceeded","inputs":[{"name":"amountLD","type":"uint256","internalType":"uint256"},{"name":"minAmountLD","type":"uint256","internalType":"uint256"}]},{"type":"error","name":"Zero","inputs":[]}],"bytecode":{"object":"0x60e080604052346104fa57600090604081614b03803803809161002282856104ff565b8339810103126104f657610041602061003a83610538565b9201610538565b604051926100506040856104ff565b600b84526a20b9ba39379022ba3432b960a91b6020850152604051926100776040856104ff565b60068452650c6deda8aa8960d31b60208501528154600080516020614aa38339815191526001600160a01b031982168117845560405192916001600160a01b03167f8be0079c531659141344cd1fd0a4f28419497f9722a3daafe3b4186f6b6457e08580a36001600160a01b03166080819052803b156104f2578160248185809463ca5eb5e160e01b8352600080516020614aa383398151915260048401525af180156104e75782906104d7575b505064e8d4a5100060a05283516001600160401b0381116104c357600854600181811c911680156104b9575b60208210146104a557601f8111610442575b50602094601f82116001146103de5794829394958293926103d3575b50508160011b916000199060031b1c1916176008555b8251906001600160401b0382116103bf57600954600181811c911680156103b5575b60208210146103a157601f811161033e575b50602090601f83116001146102dc5793829394926102d1575b50508160011b916000199060031b1c1916176009555b6001600b556113886011819055601255601380546103e360145560fa60155562ffff001916620101001790556001600160a01b031660c05261023861054c565b5061024161060a565b5061024b336106af565b50604051614307908161073c8239608051818181610bce01528181610ce2015281816113510152818161169c015281816125dc01528181613eda015261413e015260a0518181816112a101528181611a38015281816130e9015281816134de0152613fc8015260c051818181611b0b01528181611e6e0152818161202901526128970152f35b0151905038806101e2565b90601f1983169460098352818320925b868110610326575083600195961061030d575b505050811b016009556101f8565b015160001960f88460031b161c191690553880806102ff565b919260206001819286850151815501940192016102ec565b600982527f6e1540171b6c0c960b71a7020d9f60077f6af931a8bbf590da0223dacf75c7af601f840160051c81019160208510610397575b601f0160051c01905b81811061038c57506101c9565b82815560010161037f565b9091508190610376565b634e487b7160e01b82526022600452602482fd5b90607f16906101b7565b634e487b7160e01b81526041600452602490fd5b01519050388061017f565b601f198216956008845280842091845b88811061042a57508360019596979810610411575b505050811b01600855610195565b015160001960f88460031b161c19169055388080610403565b919260206001819286850151815501940192016103ee565b600883527ff3f7a9fe364faab93b216da50a3214154f22a0a2b415b23a84c8169e8b636ee3601f830160051c8101916020841061049b575b601f0160051c01905b8181106104905750610163565b838155600101610483565b909150819061047a565b634e487b7160e01b83526022600452602483fd5b90607f1690610151565b634e487b7160e01b82526041600452602482fd5b6104e0916104ff565b3881610125565b6040513d84823e3d90fd5b8280fd5b5080fd5b600080fd5b601f909101601f19168101906001600160401b0382119082101761052257604052565b634e487b7160e01b600052604160045260246000fd5b51906001600160a01b03821682036104fa57565b600080516020614aa38339815191526000527f13da86008ba1c6922daee3e07db95305ef49ebced9f5467a0b8613fcc6b343e3602052600080516020614a638339815191525460ff1661060557600080516020614aa383398151915260008181527f13da86008ba1c6922daee3e07db95305ef49ebced9f5467a0b8613fcc6b343e3602052600080516020614a63833981519152805460ff19166001179055339190600080516020614a438339815191528180a4600190565b600090565b600080516020614aa3833981519152600052600080516020614a83833981519152602052600080516020614ae38339815191525460ff1661060557600080516020614aa38339815191526000818152600080516020614a83833981519152602052600080516020614ae3833981519152805460ff19166001179055339190600080516020614ac383398151915290600080516020614a438339815191529080a4600190565b6001600160a01b0381166000908152600080516020614a83833981519152602052604090205460ff16610735576001600160a01b03166000818152600080516020614a8383398151915260205260408120805460ff19166001179055339190600080516020614ac383398151915290600080516020614a438339815191529080a4600190565b5060009056fe6080604052600436101561001b575b361561001957600080fd5b005b60003560e01c806301ffc9a7146104c157806306552ff3146104bc57806306fdde03146104b7578063095ea7b3146104b257806309bca7a1146104ad5780630d35b415146104a8578063111ecdad146104a357806313137d651461049e578063134d4f2514610499578063156a0d0f1461049457806315ac86f31461048f57806316343da41461048a57806316c38b3c1461048557806317442b701461048057806318160ddd1461047b5780631cff79cd146104765780631f5e13341461047157806323b872dd1461046c578063248a9ca3146104675780632f2ff15d14610462578063313ce5671461045d5780633400288b146104585780633410fe6e1461045357806336568abe1461044e5780633b6f743b146104495780633dffe51f146104445780634322b7141461043f57806352ae2879146103635780635535d4611461043a5780635a0dfe4d146104355780635c975abb146104305780635e280f111461042b5780636f307dc3146104265780636fc1b31e1461042157806370a082311461041c578063715018a6146104175780637d25a05e1461041257806382413eac1461040d578063857749b0146104085780638da5cb5b1461040357806391d14854146103fe57806392c2bcb4146103f957806395d89b41146103f4578063963efcaa146103ef5780639f68b964146103db578063a03e4bc3146103ea578063a0712d68146103e5578063a0c1f15e146103e0578063a217fddf146103db578063a55b3d4d146103d6578063a6e158f8146103d1578063a9059cbb146103cc578063ad5c4648146103c7578063ae334602146103c2578063af4aff77146103bd578063b731ea0a146103b8578063b98bd070146103b3578063bb0b6a53146103ae578063bc70b354146103a9578063bd815db0146103a4578063c5283ef21461039f578063c7c7f5b31461039a578063ca5eb5e114610395578063cf0eed3814610390578063d045a0dc1461038b578063d424388514610386578063d453a56014610381578063d547741f1461037c578063dd62ed3e14610377578063eda6213414610372578063f2fde38b1461036d578063f5b541a614610368578063fc0c546a14610363578063fd4e36ec1461035e5763ff7bd03d0361000e57612b24565b612af5565b61142f565b612aba565b612a2d565b612841565b6127de565b61279b565b61277d565b61270d565b6126da565b612657565b6125b2565b612490565b612416565b6122ba565b612266565b61222b565b612148565b6120c5565b612076565b612058565b612013565b611fde565b611d98565b611d50565b611a5b565b611d27565b611aa0565b611a77565b611a20565b611978565b61191a565b6118c4565b61189b565b61187f565b611821565b6117fa565b6117a1565b611764565b6116f4565b6116cb565b611686565b611660565b611618565b611599565b611411565b6113f3565b61123d565b6111f3565b6111d6565b61114f565b611125565b6110dd565b6110a8565b610ffd565b610fe1565b610f27565b610f09565b610ee7565b610e60565b610e39565b610e10565b610de9565b610dcd565b610bbb565b610ae4565b6109ff565b61092d565b610866565b610789565b61052d565b346105175760203660031901126105175760043563ffffffff60e01b811680910361051757602090637965db0b60e01b8114908115610506575b506040519015158152f35b6301ffc9a760e01b149050386104fb565b600080fd5b6001600160a01b0381160361051757565b346105175760803660031901126105175761065060043561054d8161051c565b61061f6024359161055d8361051c565b6105fd60443561056c8161051c565b6105db6064359361057c8561051c565b61059b73bfc57b070b1eda0fcb9c203edc1085c626f3a36d3314612b6b565b6105b9600160ff6105b260135460ff9060081c1690565b1614612ba6565b600f80546001600160a01b0319166001600160a01b0392909216919091179055565b600e80546001600160a01b0319166001600160a01b0392909216919091179055565b601080546001600160a01b0319166001600160a01b0392909216919091179055565b61062e60ff1960135416601355565b600d80546001600160a01b0319166001600160a01b0392909216919091179055565b600f54600490602090610673906001600160a01b03165b6001600160a01b031690565b6040516358b50cef60e11b815292839182905afa801561071d576106bc916000916106ee575b50600c80546001600160a01b0319166001600160a01b0392909216919091179055565b6100196106d76106d260135460ff9060081c1690565b612c17565b61ff006013549160081b169061ff00191617601355565b610710915060203d602011610716575b6107088183611578565b810190612be0565b38610699565b503d6106fe565b612bf5565b600091031261051757565b60005b8381106107405750506000910152565b8181015183820152602001610730565b906020916107698151809281855285808601910161072d565b601f01601f1916010190565b906020610786928181520190610750565b90565b346105175760003660031901126105175760405160006008546107ab8161146a565b808452906001811690811561084257506001146107e3575b6107df836107d381850382611578565b60405191829182610775565b0390f35b600860009081527ff3f7a9fe364faab93b216da50a3214154f22a0a2b415b23a84c8169e8b636ee3939250905b808210610828575090915081016020016107d36107c3565b919260018160209254838588010152019101909291610810565b60ff191660208086019190915291151560051b840190910191506107d390506107c3565b34610517576040366003190112610517576004356108838161051c565b6024353315610917576001600160a01b038216918215610901576108c7829133600052600660205260406000209060018060a01b0316600052602052604060002090565b5560405190815233907f8c5be1e5ebec7d5bd14f71427d1e84f3dd0314c0f7b2291e5b200ac8c7c3b92590602090a3602060405160018152f35b634a1406b160e11b600052600060045260246000fd5b63e602df0560e01b600052600060045260246000fd5b3461051757600036600319011261051757602060ff601354166040519015158152f35b908160e09103126105175790565b9392919061097a8560a081019260208091805184520151910152565b60a06040860152815180915260c0850190602060c08260051b8801019301916000905b8282106109c357505050509060606109c19294019060208091805184520151910152565b565b909192936020806109f160019360bf198c82030186526040838a518051845201519181858201520190610750565b96019201920190929161099d565b34610517576020366003190112610517576004356001600160401b03811161051757610a2f903690600401610950565b610a37612c46565b50610a40612c46565b50604051610a4d8161153d565b600081526001600160401b036020820152602060405192610a6e8285611578565b60008452601f19820160005b818110610ac057505090610aa46107df926040810135610a9e606083013592612c76565b506130e0565b9091610aae612c28565b9283528201526040519384938461095e565b8390604051610ace8161153d565b6000815260608382015282828901015201610a7a565b34610517576000366003190112610517576004546040516001600160a01b039091168152602090f35b606090600319011261051757600490565b9181601f84011215610517578235916001600160401b038311610517576020838186019501011161051757565b600319810160e0811261051757606060009112610bb8575060049182606435926084356001600160401b0381116105175781610b88918401610b1e565b9390939260a435610b988161051c565b9260c4356001600160401b03811161051757610bb49201610b1e565b9091565b80fd5b610bc436610b4b565b50919492915050337f00000000000000000000000000000000000000000000000000000000000000006001600160a01b031603610db8578135610c0681611141565b610c0f81613134565b906020840135809203610d91575050610c2b6106678583613f98565b93610c51610c41610c3c8385613fa4565b613fba565b610c4a85612c76565b5086613fee565b91610c5c8260281090565b610cb4575b5050610c8d7fefed6d3500546b29533b128a29e3a94d70788727f0507505ac12eaf2e578fd9c92612c76565b6040805163ffffffff92909216825260208201929092526001600160a01b039490941693a3005b9082610cdf92610cd9610cc960408801613168565b93610cd388612c76565b92614012565b92614035565b917f00000000000000000000000000000000000000000000000000000000000000006001600160a01b0316803b1561051757604051633e5ac80960e11b8152936000918591829084908290610d39908b8d60048501613172565b03925af190811561071d577fefed6d3500546b29533b128a29e3a94d70788727f0507505ac12eaf2e578fd9c93610c8d92610d76575b5092610c61565b80610d856000610d8b93611578565b80610722565b38610d6f565b80610da063ffffffff92611141565b63309afaf360e21b6000521660045260245260446000fd5b6391ac5e4f60e01b6000523360045260246000fd5b3461051757600036600319011261051757602060405160028152f35b34610517576000366003190112610517576040805162b9270b60e21b815260016020820152f35b3461051757600036600319011261051757600d546040516001600160a01b039091168152602090f35b346105175760003660031901126105175760206040516127108152f35b8015150361051757565b3461051757602036600319011261051757600435610e7d81610e56565b610e8561319d565b601354901515908160ff8260101c16151514610ed65762ff00001916601082901b62ff000016176013557f381650b81778988372e2fff8cd29c8b87a0a3db9e37b10c7b6f11d7adf303d9b600080a2005b6350faa11f60e11b60005260046000fd5b3461051757600036600319011261051757604080516001815260026020820152f35b34610517576000366003190112610517576020600754604051908152f35b3461051757604036600319011261051757600435610f448161051c565b6024356001600160401b03811161051757610f63903690600401610b1e565b3360009081527f13da86008ba1c6922daee3e07db95305ef49ebced9f5467a0b8613fcc6b343e3602052604090205490919060ff1615610fc75760008383828094610019966040519384928337810182815203925af1610fc1612c9b565b50612ccb565b63e2517d3f60e01b60005233600452600060245260446000fd5b3461051757600036600319011261051757602060405160018152f35b346105175760603660031901126105175760043561101a8161051c565b6024356110268161051c565b6001600160a01b03821660009081526006602090815260408083203384529091529020549160443591906001840161106f575b611063935061324c565b60405160018152602090f35b82841061108b576110868361106395033383613f4e565b611059565b8284637dc7a0d960e11b6000523360045260245260445260646000fd5b346105175760203660031901126105175760206110d5600435600052600a60205260016040600020015490565b604051908152f35b34610517576040366003190112610517576100196024356004356111008261051c565b61112061111b82600052600a60205260016040600020015490565b61320f565b61335a565b3461051757600036600319011261051757602060405160128152f35b63ffffffff81160361051757565b34610517576040366003190112610517577f238399d427b947898edb290f5ff0f9109849b1c3ba196a42e35f00c50a54b98b60043561118d81611141565b602435906111996133ee565b63ffffffff81166000526001602052816040600020556111d1604051928392836020909392919363ffffffff60408201951681520152565b0390a1005b346105175760003660031901126105175760206040516103e88152f35b34610517576040366003190112610517576004356024356112138161051c565b336001600160a01b0382160361122c5761001991613417565b63334bd91960e11b60005260046000fd5b34610517576040366003190112610517576004356001600160401b0381116105175761126d903690600401610950565b60243561127981610e56565b611281612c46565b508135916060810135906112cc604082013561129c86611141565b6112c77f00000000000000000000000000000000000000000000000000000000000000008092612d58565b612d45565b918083106113db5761134d604086611332876112e888886134c7565b906112f285611141565b6112fa612c46565b5061130485613134565b61131b61130f612c37565b63ffffffff9097168752565b602086015285850152606084015215156080830152565b815180938192631bb8518b60e31b8352309060048401613613565b03817f00000000000000000000000000000000000000000000000000000000000000006001600160a01b03165afa801561071d576107df916000916113ac575b5060405191829182815181526020918201519181019190915260400190565b6113ce915060403d6040116113d4575b6113c68183611578565b8101906135ff565b8261138d565b503d6113bc565b826371c4efed60e01b60005260045260245260446000fd5b34610517576000366003190112610517576020601454604051908152f35b34610517576000366003190112610517576020601554604051908152f35b34610517576000366003190112610517576020604051308152f35b6024359061ffff8216820361051757565b359061ffff8216820361051757565b90600182811c9216801561149a575b602083101461148457565b634e487b7160e01b600052602260045260246000fd5b91607f1691611479565b600092918154916114b48361146a565b808352926001811690811561150a57506001146114d057505050565b60009081526020812093945091925b8383106114f0575060209250010190565b6001816020929493945483858701015201910191906114df565b915050602093945060ff929192191683830152151560051b010190565b634e487b7160e01b600052604160045260246000fd5b604081019081106001600160401b0382111761155857604052565b611527565b606081019081106001600160401b0382111761155857604052565b90601f801991011681019081106001600160401b0382111761155857604052565b34610517576040366003190112610517576107df6115fd6116046115f16004356115c281611141565b63ffffffff6115cf61144a565b9116600052600360205260406000209061ffff16600052602052604060002090565b604051928380926114a4565b0382611578565b604051918291602083526020830190610750565b3461051757604036600319011261051757602061165660043561163a81611141565b6024359063ffffffff1660005260016020526040600020541490565b6040519015158152f35b3461051757600036600319011261051757602060ff60135460101c166040519015158152f35b34610517576000366003190112610517576040517f00000000000000000000000000000000000000000000000000000000000000006001600160a01b03168152602090f35b3461051757600036600319011261051757600c546040516001600160a01b039091168152602090f35b34610517576020366003190112610517577ff0be4f1e87349231d80c36b33f9e8639658eeaf474014dee15a3e6a4d441419760206004356117348161051c565b61173c6133ee565b600480546001600160a01b0319166001600160a01b03929092169182179055604051908152a1005b34610517576020366003190112610517576004356117818161051c565b60018060a01b031660005260056020526020604060002054604051908152f35b34610517576000366003190112610517576117ba6133ee565b600080546001600160a01b0319811682556001600160a01b03167f8be0079c531659141344cd1fd0a4f28419497f9722a3daafe3b4186f6b6457e08280a3005b3461051757604036600319011261051757611816600435611141565b602060405160008152f35b346105175760a03660031901126105175761183b36610b0d565b506064356001600160401b0381116105175761185b903690600401610b1e565b5050602060843561186b8161051c565b6040516001600160a01b0390911630148152f35b3461051757600036600319011261051757602060405160068152f35b34610517576000366003190112610517576000546040516001600160a01b039091168152602090f35b3461051757604036600319011261051757602060ff61190e6024356004356118eb8261051c565b600052600a845260406000209060018060a01b0316600052602052604060002090565b54166040519015158152f35b34610517576020366003190112610517576004356119378161051c565b61195673bfc57b070b1eda0fcb9c203edc1085c626f3a36d3314612b6b565b600d80546001600160a01b0319166001600160a01b0392909216919091179055005b3461051757600036600319011261051757604051600060095461199a8161146a565b808452906001811690811561084257506001146119c1576107df836107d381850382611578565b600960009081527f6e1540171b6c0c960b71a7020d9f60077f6af931a8bbf590da0223dacf75c7af939250905b808210611a06575090915081016020016107d36107c3565b9192600181602092548385880101520191019092916119ee565b346105175760003660031901126105175760206040517f00000000000000000000000000000000000000000000000000000000000000008152f35b3461051757600036600319011261051757602060405160008152f35b34610517576000366003190112610517576010546040516001600160a01b039091168152602090f35b3461051757602036600319011261051757600435611ac660ff60135460101c1615612ce3565b611ace613681565b611ad66136a3565b611ae1811515612cfb565b6040516323b872dd60e01b8152336004820152306024820152604481018290526001600160a01b037f000000000000000000000000000000000000000000000000000000000000000016906020816064816000865af1801561071d57611d0a575b50803b1561051757604051632e1a7d4d60e01b815260048101839052906000908290602490829084905af1801561071d57611cf5575b50600e54611b8e906001600160a01b0316610667565b601054611ba3906001600160a01b0316610667565b90803b156105175760405163474cf53d60e01b81526001600160a01b03929092166004830152306024830152600060448301819052908290606490829084905af1801561071d57611ce0575b50600f54600090602090611c6990611c0f906001600160a01b0316610667565b611c2e611c26611c20601554612d28565b87612d45565b6103e8900490565b60405194858094819363a9059cbb60e01b83526004830191906020604084019373bfc57b070b1eda0fcb9c203edc1085c626f3a36d81520152565b03925af1801561071d57611cb3575b50611c838133613a3c565b337f30385c845b448a36257a6a1716e6ad2e1bc2cbe333cde1e69fe849ad6511adfe600080a36100196001600b55565b611cd49060203d602011611cd9575b611ccc8183611578565b810190612d13565b611c78565b503d611cc2565b80610d856000611cef93611578565b38611bef565b80610d856000611d0493611578565b38611b78565b611d229060203d602011611cd957611ccc8183611578565b611b42565b3461051757600036600319011261051757600f546040516001600160a01b039091168152602090f35b3461051757600036600319011261051757611d8073bfc57b070b1eda0fcb9c203edc1085c626f3a36d3314612b6b565b60135460ff80821615169060ff191617601355600080f35b3461051757602036600319011261051757600435611dbe60ff60135460101c1615612ce3565b611dc6613681565b611dce6136a3565b611dd9811515612d78565b600f54611dee906001600160a01b0316610667565b6040516370a0823160e01b815230600482015290602090829060249082905afa801561071d57611e2991600091611fbf575b50821115612d9f565b611e338133613ab1565b611e42611c2660145483612d45565b601054611e57906001600160a01b0316610667565b604051631a4ca37b60e21b81526001600160a01b037f0000000000000000000000000000000000000000000000000000000000000000166004820181905260248201849052336044830152909291602090849060649082906000905af191821561071d57611f3793602093611fa4575b50601054611ee890611ee1906001600160a01b0316610667565b9186612d38565b604051631a4ca37b60e21b81526001600160a01b039093166004840152602483015273bfc57b070b1eda0fcb9c203edc1085c626f3a36d60448301529092839190829060009082906064820190565b03925af1801561071d57611f77575b50337fe6c82503aaaa3db78b70f183901ae8668918f895b3982b2c851cf2ffe0c6c639600080a36100196001600b55565b611f989060203d602011611f9d575b611f908183611578565b810190612d90565b611f46565b503d611f86565b611fba90843d8611611f9d57611f908183611578565b611ec7565b611fd8915060203d602011611f9d57611f908183611578565b38611e20565b3461051757604036600319011261051757612008600435611ffe8161051c565b602435903361324c565b602060405160018152f35b34610517576000366003190112610517576040517f00000000000000000000000000000000000000000000000000000000000000006001600160a01b03168152602090f35b34610517576000366003190112610517576020601254604051908152f35b346105175760203660031901126105175760043561209261319d565b6103de811015806120b9575b156120a857601455005b637b2d748560e11b60005260046000fd5b506103e881111561209e565b34610517576000366003190112610517576002546040516001600160a01b039091168152602090f35b906020600319830112610517576004356001600160401b0381116105175760040160009280601f83011215612144578135936001600160401b038511610bb857506020808301928560051b010111610517579190565b8380fd5b3461051757612156366120ee565b9061215f6133ee565b61216882612c5f565b906121766040519283611578565b828252602082019260051b8101903682116105175780935b82851061219e5761001984613d1c565b84356001600160401b0381116105175782019060608236031261051757604051916121c88361155d565b80356121d381611141565b83526121e16020820161145b565b60208401526040810135906001600160401b03821161051757019036601f830112156105175760209261221b849336908581359101612db7565b604082015281520194019361218e565b346105175760203660031901126105175763ffffffff60043561224d81611141565b1660005260016020526020604060002054604051908152f35b346105175760603660031901126105175760043561228381611141565b61228b61144a565b604435906001600160401b038211610517576107df926122b2611604933690600401610b1e565b929091612e7a565b6122c3366120ee565b60005b81811061233657604051638e9e709960e01b8152600081600481335afa801561071d5761230f91600091612313575b50604051638351eea760e01b815291829160048301610775565b0390fd5b61233091503d806000833e6123288183611578565b810190613025565b826122f5565b612341818385612f36565b9061237361236f61235184612c76565b60208501359063ffffffff1660005260016020526040600020541490565b1590565b61240d5760c08201359160a0810135612390610100830183612f5e565b94909161239f60e08501612f90565b936123ae610120820182612f5e565b959095303b15610517576000966123dc926040519a8b9889978897633411683760e21b895260048901612fab565b0391305af191821561071d576001926123f8575b505b016122c6565b80610d85600061240793611578565b386123f0565b600191506123f2565b3461051757600036600319011261051757600e546040516001600160a01b039091168152602090f35b9160806109c192949361247f604060c0830197805184526001600160401b0360208201511660208501520151604083019060208091805184520151910152565b019060208091805184520151910152565b6080366003190112610517576004356001600160401b038111610517576124bb903690600401610950565b6040366023190112610517576064356124d38161051c565b6124db613083565b506124e4612c46565b506060820135906124fd604084013561129c8535611141565b918083106113db5750612537906125148333613ab1565b61251e83856134c7565b61252786612c76565b91612531366130ab565b92613e5d565b90612540612c28565b928184528160208501527f85496b760a4b7f8d66384b9df21b381f5d1b1e79f229a47aaf4c232edc2fe59a6125a0612579855193612c76565b936040519181839233978460409194939263ffffffff606083019616825260208201520152565b0390a36107df6040519283928361243f565b346105175760006020366003190112610bb857806004356125d28161051c565b6125da6133ee565b7f00000000000000000000000000000000000000000000000000000000000000006001600160a01b0316803b156126535760405163ca5eb5e160e01b81526001600160a01b0390921660048301529091908290602490829084905af1801561071d5782906126455780f35b61264e91611578565b388180f35b5050fd5b346105175760403660031901126105175760043560243561268d73bfc57b070b1eda0fcb9c203edc1085c626f3a36d3314612b6b565b8180018083116126d557612710036126a757601255601155005b60405162461bcd60e51b81526020600482015260066024820152652164656e6f6d60d01b6044820152606490fd5b612c01565b6126e336610b4b565b50505092903033036126fc57610c2b6106678583613f98565b63029a949d60e31b60005260046000fd5b34610517576020366003190112610517577fd48d879cef83a1c0bdda516f27b13ddb1b3f8bbac1c9e1511bb2a659c2427760602060043561274d8161051c565b6127556133ee565b600280546001600160a01b0319166001600160a01b03929092169182179055604051908152a1005b34610517576000366003190112610517576020601154604051908152f35b34610517576040366003190112610517576100196024356004356127be8261051c565b6127d961111b82600052600a60205260016040600020015490565b613417565b346105175760403660031901126105175760206128386004356128008161051c565b6024359061280d8261051c565b60018060a01b03166000526006835260406000209060018060a01b0316600052602052604060002090565b54604051908152f35b60003660031901126105175761285f60ff60135460101c1615612ce3565b612867613681565b61286f6136a3565b61287a341515612cfb565b6040516370a0823160e01b81523060048201526001600160a01b037f00000000000000000000000000000000000000000000000000000000000000001690602081602481855afa801561071d576128da91600091612a0e575b50346130d3565b6040516370a0823160e01b815230600482015291602090839060249082905afa90811561071d57612914926000926129ed575b5014612ccb565b600e54612929906001600160a01b0316610667565b60105461293e906001600160a01b0316610667565b90803b156105175760405163474cf53d60e01b81526001600160a01b038316600482015273bfc57b070b1eda0fcb9c203edc1085c626f3a36d602482015260006044820181905290918290606490829084905af1801561071d576129d8575b6129a73433613a3c565b34337f30385c845b448a36257a6a1716e6ad2e1bc2cbe333cde1e69fe849ad6511adfe600080a36100196001600b55565b80610d8560006129e793611578565b8061299d565b612a0791925060203d602011611f9d57611f908183611578565b903861290d565b612a27915060203d602011611f9d57611f908183611578565b386128d3565b3461051757602036600319011261051757600435612a4a8161051c565b612a526133ee565b6001600160a01b03168015612aa457600080546001600160a01b03198116831782556001600160a01b0316907f8be0079c531659141344cd1fd0a4f28419497f9722a3daafe3b4186f6b6457e09080a3005b631e4fbdf760e01b600052600060045260246000fd5b346105175760003660031901126105175760206040517f97667070c54ef182b0f5858b034beac1b6f3089aa2d3188bb1e8929f4fa9b9298152f35b3461051757600036600319011261051757602060405173bfc57b070b1eda0fcb9c203edc1085c626f3a36d8152f35b34610517576060366003190112610517576020612b4036610b0d565b63ffffffff8135612b5081611141565b16600052600182528160406000205491013560405191148152f35b15612b7257565b60405162461bcd60e51b815260206004820152600c60248201526b1d5b985d5d1a1bdc9a5e995960a21b6044820152606490fd5b15612bad57565b60405162461bcd60e51b815260206004820152600b60248201526a1a5b9a5d1a585b1a5e995960aa1b6044820152606490fd5b9081602091031261051757516107868161051c565b6040513d6000823e3d90fd5b634e487b7160e01b600052601160045260246000fd5b60ff1660ff81146126d55760010190565b604051906109c1604083611578565b604051906109c160a083611578565b60405190612c538261153d565b60006020838281520152565b6001600160401b0381116115585760051b60200190565b3561078681611141565b6001600160401b03811161155857601f01601f191660200190565b3d15612cc6573d90612cac82612c80565b91612cba6040519384611578565b82523d6000602084013e565b606090565b15612cd257565b63312d207360e11b60005260046000fd5b15612cea57565b6313d0ff5960e31b60005260046000fd5b15612d0257565b63f456040360e01b60005260046000fd5b90816020910312610517575161078681610e56565b6103e803906103e882116126d557565b919082039182116126d557565b818102929181159184041417156126d557565b8115612d62570490565b634e487b7160e01b600052601260045260246000fd5b15612d7f57565b63860b82a960e01b60005260046000fd5b90816020910312610517575190565b15612da657565b63042ea05760e01b60005260046000fd5b929192612dc382612c80565b91612dd16040519384611578565b829481845281830111610517578281602093846000960137010152565b909291928360021161051757831161051757600201916001190190565b6020836109c1939594956040519684612e2d899651809287808a01910161072d565b8501918483013701016000815203601f198101845283611578565b908060209392818452848401376000828201840152601f01601f1916010190565b916020610786938181520191612e48565b6115f16115fd9263ffffffff612eaf939795969716600052600360205260406000209061ffff16600052602052604060002090565b805115612f12578315612f0c576002841015612ee357505061230f604051928392639a6d49cd60e01b845260048401612e69565b909280612f069161078694612f01612efc368484612db7565b613de3565b612dee565b91612e0b565b92509050565b509190610786913691612db7565b634e487b7160e01b600052603260045260246000fd5b9190811015612f595760051b8101359061013e1981360301821215610517570190565b612f20565b903590601e198136030182121561051757018035906001600160401b0382116105175760200191813603831361051757565b356107868161051c565b6001600160401b0381160361051757565b929093613007926001600160401b0360406107869a98999763ffffffff8135612fd381611141565b168852602081013560208901520135612feb81612f9a565b166040860152606085015260e0608085015260e0840191612e48565b6001600160a01b0390941660a082015280840360c090910152612e48565b602081830312610517578051906001600160401b038211610517570181601f8201121561051757805161305781612c80565b926130656040519485611578565b8184526020828401011161051757610786916020808501910161072d565b604051906130908261155d565b81600081526000602082015260406130a6612c46565b910152565b604090602319011261051757604051906130c48261153d565b60243582526044356020830152565b919082018092116126d557565b61310f906112c77f00000000000000000000000000000000000000000000000000000000000000008092612d58565b91829180841061311c5750565b836371c4efed60e01b60005260045260245260446000fd5b63ffffffff16806000526001602052604060002054908115613154575090565b63f6ff4fb760e01b60005260045260246000fd5b3561078681612f9a565b610786939260809260018060a01b031682526020820152600060408201528160608201520190610750565b3360009081527f9b2788bb01a4e5439054acd1f78f40f2a154f25e1d2631076a79a383f587848a602052604090205460ff16156131d657565b63e2517d3f60e01b600052336004527f97667070c54ef182b0f5858b034beac1b6f3089aa2d3188bb1e8929f4fa9b92960245260446000fd5b6000818152600a6020908152604080832033845290915290205460ff16156132345750565b63e2517d3f60e01b6000523360045260245260446000fd5b90916001600160a01b038216918215613344576001600160a01b03841693841561332e576001600160a01b03821660009081526005602052604081209092905484811061330857916132f5916132da867fddf252ad1be2c89b69c2b068fc378daa952ba7f163c4a11628f55a4df523b3ef979695039160018060a01b03166000526005602052604060002090565b556001600160a01b0316600090815260056020526040902090565b80548301905550604051908152602090a3565b63391434e360e21b84526001600160a01b03909116600452602452506044829052606490fd5b63ec442f0560e01b600052600060045260246000fd5b634b637e8f60e11b600052600060045260246000fd5b6000818152600a602090815260408083206001600160a01b038616845290915290205460ff166133e7576000818152600a602090815260408083206001600160a01b03861684529091529020805460ff1916600117905533916001600160a01b0316907f2f8788117e7eff1d82e926ec794901d17c78024a50270940304540a733656f0d600080a4600190565b5050600090565b6000546001600160a01b0316330361340257565b63118cdaa760e01b6000523360045260246000fd5b6000818152600a602090815260408083206001600160a01b038616845290915290205460ff16156133e7576000818152600a602090815260408083206001600160a01b03861684529091529020805460ff1916905533916001600160a01b0316907ff6391f5c32d9c69d2a47ea670b442974b53935d1edc7fd64eb21e047a839171b600080a4600190565b90916134b961078693604084526040840190610750565b916020818403910152610750565b909161352c6135539361350f6135036020860135927f000000000000000000000000000000000000000000000000000000000000000090612d58565b6001600160401b031690565b61352661351f60a0870187612f5e565b3691612db7565b91614093565b93909283946000146135cf576002905b6122b261354882612c76565b916080810190612f5e565b6004549092906001600160a01b0316838161356d57505050565b6135a392602092613586906001600160a01b0316610667565b9060405180958194829363043a78eb60e01b8452600484016134a2565b03915afa801561071d576135b45750565b6135cc9060203d602011611cd957611ccc8183611578565b50565b60019061353c565b9190826040910312610517576040516135ef8161153d565b6020808294805184520151910152565b9060408282031261051757610786916135d7565b906020909392936040835263ffffffff81511660408401528181015160608401526080613667613651604084015160a08488015260e0870190610750565b6060840151868203603f190160a0880152610750565b910151151560c08401526001600160a01b03909416910152565b6002600b5414613692576002600b55565b633ee5aeb560e01b60005260046000fd5b600f546136b8906001600160a01b0316610667565b6040516370a0823160e01b815230600482015290602082602481845afa91821561071d57600092613a1b575b5060405163a9059cbb60e01b815273bfc57b070b1eda0fcb9c203edc1085c626f3a36d60048201526001602482015290602090829060449082906000905af1801561071d576139fe575b50600f54613744906001600160a01b0316610667565b6040516370a0823160e01b81523060048201529190602090839060249082905afa801561071d5761377d926000916139df575b50612d38565b61381f60206137a361379c61379460115486612d45565b612710900490565b8094612d38565b6010546137b8906001600160a01b0316610667565b600c546137cd906001600160a01b0316610667565b604051631a4ca37b60e21b81526001600160a01b039091166004820152602481019290925273bfc57b070b1eda0fcb9c203edc1085c626f3a36d60448301529092839190829060009082906064820190565b03925af1801561071d576139c2575b5060135460ff161561395557600c546138a5906020908390613858906001600160a01b0316610667565b600d5461386d906001600160a01b0316610667565b60405163095ea7b360e01b81526001600160a01b03909116600482015260248101929092529092839190829060009082906044820190565b03925af1801561071d57613938575b50600d546138ca906001600160a01b0316610667565b600c549091906138e2906001600160a01b0316610667565b90823b15610517576040516373bd88e960e11b81526001600160a01b039290921660048301526024820152906000908290604490829084905af1801561071d576139295750565b80610d8560006109c193611578565b6139509060203d602011611cd957611ccc8183611578565b6138b4565b600f546000916020916139b19190613975906001600160a01b0316610667565b9060405194858094819363a9059cbb60e01b83526004830191906020604084019373bfc57b070b1eda0fcb9c203edc1085c626f3a36d81520152565b03925af1801561071d576135b45750565b6139da9060203d602011611f9d57611f908183611578565b61382e565b6139f8915060203d602011611f9d57611f908183611578565b38613777565b613a169060203d602011611cd957611ccc8183611578565b61372e565b613a3591925060203d602011611f9d57611f908183611578565b90386136e4565b6001600160a01b0381169190821561332e57600754908282018092116126d557600092613aa26020927fddf252ad1be2c89b69c2b068fc378daa952ba7f163c4a11628f55a4df523b3ef9460075560018060a01b03166000526005602052604060002090565b818154019055604051908152a3565b906001600160a01b038216908115613344576001600160a01b038316600090815260056020526040812090939054828110613b3c576001600160a01b0390911660009081526005602052604090207fddf252ad1be2c89b69c2b068fc378daa952ba7f163c4a11628f55a4df523b3ef92918290039055600780548290039055604051908152602090a3565b63391434e360e21b85526001600160a01b0390911660045260245260445250606490fd5b8051821015612f595760209160051b010190565b601f8211613b8157505050565b6000526020600020906020601f840160051c83019310613bbc575b601f0160051c01905b818110613bb0575050565b60008155600101613ba5565b9091508190613b9c565b91909182516001600160401b03811161155857613bed81613be7845461146a565b84613b74565b6020601f8211600114613c2e578190613c1f939495600092613c23575b50508160011b916000199060031b1c19161790565b9055565b015190503880613c0a565b601f19821690613c4384600052602060002090565b9160005b818110613c7f57509583600195969710613c66575b505050811b019055565b015160001960f88460031b161c19169055388080613c5c565b9192602060018192868b015181550194019201613c47565b602081016020825282518091526040820191602060408360051b8301019401926000915b838310613cca57505050505090565b9091929394602080613d0d600193603f19868203018752606060408b5163ffffffff815116845261ffff8682015116868501520151918160408201520190610750565b97019301930191939290613cbb565b60005b8151811015613dac5780613d426040613d3a60019486613b60565b510151613de3565b613da66040613d518386613b60565b51015163ffffffff613d638487613b60565b5151166000526003602052613da16040600020613d8f6020613d85878a613b60565b51015161ffff1690565b61ffff16600052602052604060002090565b613bc6565b01613d1f565b50613dde7fbe4864a8e820971c0247f5992e2da559595f7bf076a21cb5928d443d2a13b6749160405191829182613c97565b0390a1565b600361ffff60028301511603613df65750565b604051639a6d49cd60e01b81526020600482015290819061230f906024830190610750565b9060808282031261051757613e55906040805193613e388561155d565b805185526020810151613e4a81612f9a565b6020860152016135d7565b604082015290565b613eba60809492613ed69694613e71613083565b506020613e7e8651614110565b950191825180613f3f575b50613e9385613134565b9251151592613ea361130f612c37565b602086015260408501526060840152151585830152565b6040518095819482936302637a4560e41b845260048401613613565b03917f00000000000000000000000000000000000000000000000000000000000000006001600160a01b03165af190811561071d57600091613f16575090565b610786915060803d608011613f38575b613f308183611578565b810190613e1b565b503d613f26565b613f489061412f565b38613e89565b6001600160a01b0316908115610917576001600160a01b0381161561090157613f9591600052600660205260406000209060018060a01b0316600052602052604060002090565b55565b90602011610517573590565b90600090602811610bb857506020013560c01c90565b610786906001600160401b037f00000000000000000000000000000000000000000000000000000000000000009116612d45565b816001600160a01b03821615614008575b61078691613a3c565b61dead9150613fff565b919060009281602811612144579192506107869136916027190190602801612db7565b604c9193610786936040519586936001600160401b0360c01b9060c01b16602085015263ffffffff60e01b9060e01b166028840152602c830152614082815180926020868601910161072d565b81010301601f198101835282611578565b825115801593906140e1576140de9160689160405194859260208401526001600160401b0360c01b9060c01b166040830152336048830152614082815180926020868601910161072d565b91565b50906040519160208301526001600160401b0360c01b9060c01b166040820152602881526140de604882611578565b80340361411a5790565b6304fb820960e51b6000523460045260246000fd5b60405163393f876560e21b81527f00000000000000000000000000000000000000000000000000000000000000006001600160a01b03169190602081600481865afa90811561071d57600091614251575b506001600160a01b0316918215614240576040516323b872dd60e01b602082019081523360248301526001600160a01b039290921660448201526064808201939093529182526141ef9160009182916141da608482611578565b519082865af16141e8612c9b565b9083614270565b8051908115159182614222575b50506142055750565b635274afe760e01b6000526001600160a01b031660045260246000fd5b61423992509060208061236f938301019101612d13565b38806141fc565b6329b99a9560e11b60005260046000fd5b61426a915060203d602011610716576107088183611578565b38614180565b90614296575080511561428557805190602001fd5b630a12f52160e11b60005260046000fd5b815115806142c8575b6142a7575090565b639996b31560e01b60009081526001600160a01b0391909116600452602490fd5b50803b1561429f56fea2646970667358221220655e89833893b63b6e553d55f245bb52223e4c32589315d7b8b7e6d756953ee964736f6c634300081a00332f8788117e7eff1d82e926ec794901d17c78024a50270940304540a733656f0d6098f29d1f6aa27be29332f9655d270d7a5ac647ec9d1c81b8ae9b629fe1a58f9b2788bb01a4e5439054acd1f78f40f2a154f25e1d2631076a79a383f587848a000000000000000000000000bfc57b070b1eda0fcb9c203edc1085c626f3a36d97667070c54ef182b0f5858b034beac1b6f3089aa2d3188bb1e8929f4fa9b929b7ebe05d53daa321d1465375ee3bf28142221cf52659ef7d17ff7e160b91ad7f","linkReferences":{}},"methodIdentifiers":{"DEFAULT_ADMIN_ROLE()":"a217fddf","DENOM()":"16343da4","DIVISOR()":"3410fe6e","OPERATIONS()":"fd4e36ec","OPERATOR_ROLE()":"f5b541a6","SEND()":"1f5e1334","SEND_AND_CALL()":"134d4f25","WETH()":"ad5c4648","aToken()":"a0c1f15e","aavePool()":"a03e4bc3","allowInitializePath((uint32,bytes32,uint64))":"ff7bd03d","allowance(address,address)":"dd62ed3e","approvalRequired()":"9f68b964","approve(address,uint256)":"095ea7b3","autoRewarder()":"09bca7a1","balanceOf(address)":"70a08231","changeRecipient(address)":"92c2bcb4","changeShares(uint256,uint256)":"cf0eed38","combineOptions(uint32,uint16,bytes)":"bc70b354","decimalConversionRate()":"963efcaa","decimals()":"313ce567","endpoint()":"5e280f11","enforcedOptions(uint32,uint16)":"5535d461","execute(address,bytes)":"1cff79cd","getRoleAdmin(bytes32)":"248a9ca3","grantRole(bytes32,address)":"2f2ff15d","hasRole(bytes32,address)":"91d14854","incentivesRecipient()":"15ac86f3","init(address,address,address,address)":"06552ff3","isComposeMsgSender((uint32,bytes32,uint64),bytes,address)":"82413eac","isPeer(uint32,bytes32)":"5a0dfe4d","lzReceive((uint32,bytes32,uint64),bytes32,bytes,address,bytes)":"13137d65","lzReceiveAndRevert(((uint32,bytes32,uint64),uint32,address,bytes32,uint256,address,bytes,bytes)[])":"bd815db0","lzReceiveSimulate((uint32,bytes32,uint64),bytes32,bytes,address,bytes)":"d045a0dc","mint(uint256)":"a0712d68","msgInspector()":"111ecdad","name()":"06fdde03","nativeMint()":"eda62134","nextNonce(uint32,bytes32)":"7d25a05e","oApp()":"52ae2879","oAppVersion()":"17442b70","oftVersion()":"156a0d0f","owner()":"8da5cb5b","paused()":"5c975abb","peers(uint32)":"bb0b6a53","preCrime()":"b731ea0a","quoteOFT((uint32,bytes32,uint256,uint256,bytes,bytes,bytes))":"0d35b415","quoteSend((uint32,bytes32,uint256,uint256,bytes,bytes,bytes),bool)":"3b6f743b","redeemShareEth()":"3dffe51f","redeemTokens(uint256)":"a6e158f8","renounceOwnership()":"715018a6","renounceRole(bytes32,address)":"36568abe","reserveFactor()":"4322b714","revokeRole(bytes32,address)":"d547741f","send((uint32,bytes32,uint256,uint256,bytes,bytes,bytes),(uint256,uint256),address)":"c7c7f5b3","setDelegate(address)":"ca5eb5e1","setEnforcedOptions((uint32,uint16,bytes)[])":"b98bd070","setMsgInspector(address)":"6fc1b31e","setPaused(bool)":"16c38b3c","setPeer(uint32,bytes32)":"3400288b","setPreCrime(address)":"d4243885","setRedeemValues(uint256)":"af4aff77","shareT()":"ae334602","shareU()":"d453a560","sharedDecimals()":"857749b0","supportsInterface(bytes4)":"01ffc9a7","symbol()":"95d89b41","toggleAutoRewarder()":"a55b3d4d","token()":"fc0c546a","totalSupply()":"18160ddd","transfer(address,uint256)":"a9059cbb","transferFrom(address,address,uint256)":"23b872dd","transferOwnership(address)":"f2fde38b","underlying()":"6f307dc3","wtg()":"c5283ef2"},"id":65}