{"abi":[{"type":"constructor","inputs":[{"name":"_endpoint","type":"address","internalType":"address"},{"name":"_weth","type":"address","internalType":"address"}],"stateMutability":"nonpayable"},{"type":"receive","stateMutability":"payable"},{"type":"function","name":"DEFAULT_ADMIN_ROLE","inputs":[],"outputs":[{"name":"","type":"bytes32","internalType":"bytes32"}],"stateMutability":"view"},{"type":"function","name":"DENOM","inputs":[],"outputs":[{"name":"","type":"uint256","internalType":"uint256"}],"stateMutability":"view"},{"type":"function","name":"DIVISOR","inputs":[],"outputs":[{"name":"","type":"uint256","internalType":"uint256"}],"stateMutability":"view"},{"type":"function","name":"OPERATIONS","inputs":[],"outputs":[{"name":"","type":"address","internalType":"address"}],"stateMutability":"view"},{"type":"function","name":"OPERATOR_ROLE","inputs":[],"outputs":[{"name":"","type":"bytes32","internalType":"bytes32"}],"stateMutability":"view"},{"type":"function","name":"SEND","inputs":[],"outputs":[{"name":"","type":"uint16","internalType":"uint16"}],"stateMutability":"view"},{"type":"function","name":"SEND_AND_CALL","inputs":[],"outputs":[{"name":"","type":"uint16","internalType":"uint16"}],"stateMutability":"view"},{"type":"function","name":"WETH","inputs":[],"outputs":[{"name":"","type":"address","internalType":"contract IWETH"}],"stateMutability":"view"},{"type":"function","name":"aToken","inputs":[],"outputs":[{"name":"","type":"address","internalType":"contract IAToken"}],"stateMutability":"view"},{"type":"function","name":"aavePool","inputs":[],"outputs":[{"name":"","type":"address","internalType":"contract IPool"}],"stateMutability":"view"},{"type":"function","name":"allowInitializePath","inputs":[{"name":"origin","type":"tuple","internalType":"struct Origin","components":[{"name":"srcEid","type":"uint32","internalType":"uint32"},{"name":"sender","type":"bytes32","internalType":"bytes32"},{"name":"nonce","type":"uint64","internalType":"uint64"}]}],"outputs":[{"name":"","type":"bool","internalType":"bool"}],"stateMutability":"view"},{"type":"function","name":"allowance","inputs":[{"name":"owner","type":"address","internalType":"address"},{"name":"spender","type":"address","internalType":"address"}],"outputs":[{"name":"","type":"uint256","internalType":"uint256"}],"stateMutability":"view"},{"type":"function","name":"approvalRequired","inputs":[],"outputs":[{"name":"","type":"bool","internalType":"bool"}],"stateMutability":"pure"},{"type":"function","name":"approve","inputs":[{"name":"spender","type":"address","internalType":"address"},{"name":"value","type":"uint256","internalType":"uint256"}],"outputs":[{"name":"","type":"bool","internalType":"bool"}],"stateMutability":"nonpayable"},{"type":"function","name":"autoRewarder","inputs":[],"outputs":[{"name":"","type":"bool","internalType":"bool"}],"stateMutability":"view"},{"type":"function","name":"balanceOf","inputs":[{"name":"account","type":"address","internalType":"address"}],"outputs":[{"name":"","type":"uint256","internalType":"uint256"}],"stateMutability":"view"},{"type":"function","name":"changeRecipient","inputs":[{"name":"_ir","type":"address","internalType":"address"}],"outputs":[],"stateMutability":"nonpayable"},{"type":"function","name":"changeShares","inputs":[{"name":"_shareU","type":"uint256","internalType":"uint256"},{"name":"_shareT","type":"uint256","internalType":"uint256"}],"outputs":[],"stateMutability":"nonpayable"},{"type":"function","name":"combineOptions","inputs":[{"name":"_eid","type":"uint32","internalType":"uint32"},{"name":"_msgType","type":"uint16","internalType":"uint16"},{"name":"_extraOptions","type":"bytes","internalType":"bytes"}],"outputs":[{"name":"","type":"bytes","internalType":"bytes"}],"stateMutability":"view"},{"type":"function","name":"decimalConversionRate","inputs":[],"outputs":[{"name":"","type":"uint256","internalType":"uint256"}],"stateMutability":"view"},{"type":"function","name":"decimals","inputs":[],"outputs":[{"name":"","type":"uint8","internalType":"uint8"}],"stateMutability":"pure"},{"type":"function","name":"endpoint","inputs":[],"outputs":[{"name":"","type":"address","internalType":"contract ILayerZeroEndpointV2"}],"stateMutability":"view"},{"type":"function","name":"enforcedOptions","inputs":[{"name":"eid","type":"uint32","internalType":"uint32"},{"name":"msgType","type":"uint16","internalType":"uint16"}],"outputs":[{"name":"enforcedOption","type":"bytes","internalType":"bytes"}],"stateMutability":"view"},{"type":"function","name":"ercWETH","inputs":[],"outputs":[{"name":"","type":"address","internalType":"contract IERC20"}],"stateMutability":"view"},{"type":"function","name":"execute","inputs":[{"name":"_x","type":"address","internalType":"address"},{"name":"_data","type":"bytes","internalType":"bytes"}],"outputs":[],"stateMutability":"nonpayable"},{"type":"function","name":"getRoleAdmin","inputs":[{"name":"role","type":"bytes32","internalType":"bytes32"}],"outputs":[{"name":"","type":"bytes32","internalType":"bytes32"}],"stateMutability":"view"},{"type":"function","name":"grantRole","inputs":[{"name":"role","type":"bytes32","internalType":"bytes32"},{"name":"account","type":"address","internalType":"address"}],"outputs":[],"stateMutability":"nonpayable"},{"type":"function","name":"hasRole","inputs":[{"name":"role","type":"bytes32","internalType":"bytes32"},{"name":"account","type":"address","internalType":"address"}],"outputs":[{"name":"","type":"bool","internalType":"bool"}],"stateMutability":"view"},{"type":"function","name":"incentivesRecipient","inputs":[],"outputs":[{"name":"","type":"address","internalType":"contract IRewarder"}],"stateMutability":"view"},{"type":"function","name":"init","inputs":[{"name":"_aToken","type":"address","internalType":"address"},{"name":"_incentivesRecipient","type":"address","internalType":"address"},{"name":"_gateway","type":"address","internalType":"address"},{"name":"_aavePool","type":"address","internalType":"address"}],"outputs":[],"stateMutability":"nonpayable"},{"type":"function","name":"isComposeMsgSender","inputs":[{"name":"","type":"tuple","internalType":"struct Origin","components":[{"name":"srcEid","type":"uint32","internalType":"uint32"},{"name":"sender","type":"bytes32","internalType":"bytes32"},{"name":"nonce","type":"uint64","internalType":"uint64"}]},{"name":"","type":"bytes","internalType":"bytes"},{"name":"_sender","type":"address","internalType":"address"}],"outputs":[{"name":"","type":"bool","internalType":"bool"}],"stateMutability":"view"},{"type":"function","name":"isPeer","inputs":[{"name":"_eid","type":"uint32","internalType":"uint32"},{"name":"_peer","type":"bytes32","internalType":"bytes32"}],"outputs":[{"name":"","type":"bool","internalType":"bool"}],"stateMutability":"view"},{"type":"function","name":"lzReceive","inputs":[{"name":"_origin","type":"tuple","internalType":"struct Origin","components":[{"name":"srcEid","type":"uint32","internalType":"uint32"},{"name":"sender","type":"bytes32","internalType":"bytes32"},{"name":"nonce","type":"uint64","internalType":"uint64"}]},{"name":"_guid","type":"bytes32","internalType":"bytes32"},{"name":"_message","type":"bytes","internalType":"bytes"},{"name":"_executor","type":"address","internalType":"address"},{"name":"_extraData","type":"bytes","internalType":"bytes"}],"outputs":[],"stateMutability":"payable"},{"type":"function","name":"lzReceiveAndRevert","inputs":[{"name":"_packets","type":"tuple[]","internalType":"struct InboundPacket[]","components":[{"name":"origin","type":"tuple","internalType":"struct Origin","components":[{"name":"srcEid","type":"uint32","internalType":"uint32"},{"name":"sender","type":"bytes32","internalType":"bytes32"},{"name":"nonce","type":"uint64","internalType":"uint64"}]},{"name":"dstEid","type":"uint32","internalType":"uint32"},{"name":"receiver","type":"address","internalType":"address"},{"name":"guid","type":"bytes32","internalType":"bytes32"},{"name":"value","type":"uint256","internalType":"uint256"},{"name":"executor","type":"address","internalType":"address"},{"name":"message","type":"bytes","internalType":"bytes"},{"name":"extraData","type":"bytes","internalType":"bytes"}]}],"outputs":[],"stateMutability":"payable"},{"type":"function","name":"lzReceiveSimulate","inputs":[{"name":"_origin","type":"tuple","internalType":"struct Origin","components":[{"name":"srcEid","type":"uint32","internalType":"uint32"},{"name":"sender","type":"bytes32","internalType":"bytes32"},{"name":"nonce","type":"uint64","internalType":"uint64"}]},{"name":"_guid","type":"bytes32","internalType":"bytes32"},{"name":"_message","type":"bytes","internalType":"bytes"},{"name":"_executor","type":"address","internalType":"address"},{"name":"_extraData","type":"bytes","internalType":"bytes"}],"outputs":[],"stateMutability":"payable"},{"type":"function","name":"mint","inputs":[{"name":"_amount","type":"uint256","internalType":"uint256"}],"outputs":[],"stateMutability":"nonpayable"},{"type":"function","name":"msgInspector","inputs":[],"outputs":[{"name":"","type":"address","internalType":"address"}],"stateMutability":"view"},{"type":"function","name":"name","inputs":[],"outputs":[{"name":"","type":"string","internalType":"string"}],"stateMutability":"view"},{"type":"function","name":"nativeMint","inputs":[],"outputs":[],"stateMutability":"payable"},{"type":"function","name":"nextNonce","inputs":[{"name":"","type":"uint32","internalType":"uint32"},{"name":"","type":"bytes32","internalType":"bytes32"}],"outputs":[{"name":"nonce","type":"uint64","internalType":"uint64"}],"stateMutability":"view"},{"type":"function","name":"oApp","inputs":[],"outputs":[{"name":"","type":"address","internalType":"address"}],"stateMutability":"view"},{"type":"function","name":"oAppVersion","inputs":[],"outputs":[{"name":"senderVersion","type":"uint64","internalType":"uint64"},{"name":"receiverVersion","type":"uint64","internalType":"uint64"}],"stateMutability":"pure"},{"type":"function","name":"oftVersion","inputs":[],"outputs":[{"name":"interfaceId","type":"bytes4","internalType":"bytes4"},{"name":"version","type":"uint64","internalType":"uint64"}],"stateMutability":"pure"},{"type":"function","name":"owner","inputs":[],"outputs":[{"name":"","type":"address","internalType":"address"}],"stateMutability":"view"},{"type":"function","name":"paused","inputs":[],"outputs":[{"name":"","type":"bool","internalType":"bool"}],"stateMutability":"view"},{"type":"function","name":"peers","inputs":[{"name":"eid","type":"uint32","internalType":"uint32"}],"outputs":[{"name":"peer","type":"bytes32","internalType":"bytes32"}],"stateMutability":"view"},{"type":"function","name":"preCrime","inputs":[],"outputs":[{"name":"","type":"address","internalType":"address"}],"stateMutability":"view"},{"type":"function","name":"quoteOFT","inputs":[{"name":"_sendParam","type":"tuple","internalType":"struct SendParam","components":[{"name":"dstEid","type":"uint32","internalType":"uint32"},{"name":"to","type":"bytes32","internalType":"bytes32"},{"name":"amountLD","type":"uint256","internalType":"uint256"},{"name":"minAmountLD","type":"uint256","internalType":"uint256"},{"name":"extraOptions","type":"bytes","internalType":"bytes"},{"name":"composeMsg","type":"bytes","internalType":"bytes"},{"name":"oftCmd","type":"bytes","internalType":"bytes"}]}],"outputs":[{"name":"oftLimit","type":"tuple","internalType":"struct OFTLimit","components":[{"name":"minAmountLD","type":"uint256","internalType":"uint256"},{"name":"maxAmountLD","type":"uint256","internalType":"uint256"}]},{"name":"oftFeeDetails","type":"tuple[]","internalType":"struct OFTFeeDetail[]","components":[{"name":"feeAmountLD","type":"int256","internalType":"int256"},{"name":"description","type":"string","internalType":"string"}]},{"name":"oftReceipt","type":"tuple","internalType":"struct OFTReceipt","components":[{"name":"amountSentLD","type":"uint256","internalType":"uint256"},{"name":"amountReceivedLD","type":"uint256","internalType":"uint256"}]}],"stateMutability":"view"},{"type":"function","name":"quoteSend","inputs":[{"name":"_sendParam","type":"tuple","internalType":"struct SendParam","components":[{"name":"dstEid","type":"uint32","internalType":"uint32"},{"name":"to","type":"bytes32","internalType":"bytes32"},{"name":"amountLD","type":"uint256","internalType":"uint256"},{"name":"minAmountLD","type":"uint256","internalType":"uint256"},{"name":"extraOptions","type":"bytes","internalType":"bytes"},{"name":"composeMsg","type":"bytes","internalType":"bytes"},{"name":"oftCmd","type":"bytes","internalType":"bytes"}]},{"name":"_payInLzToken","type":"bool","internalType":"bool"}],"outputs":[{"name":"msgFee","type":"tuple","internalType":"struct MessagingFee","components":[{"name":"nativeFee","type":"uint256","internalType":"uint256"},{"name":"lzTokenFee","type":"uint256","internalType":"uint256"}]}],"stateMutability":"view"},{"type":"function","name":"redeemShareEth","inputs":[],"outputs":[{"name":"","type":"uint256","internalType":"uint256"}],"stateMutability":"view"},{"type":"function","name":"redeemTokens","inputs":[{"name":"_amount","type":"uint256","internalType":"uint256"}],"outputs":[],"stateMutability":"nonpayable"},{"type":"function","name":"renounceOwnership","inputs":[],"outputs":[],"stateMutability":"nonpayable"},{"type":"function","name":"renounceRole","inputs":[{"name":"role","type":"bytes32","internalType":"bytes32"},{"name":"callerConfirmation","type":"address","internalType":"address"}],"outputs":[],"stateMutability":"nonpayable"},{"type":"function","name":"reserveFactor","inputs":[],"outputs":[{"name":"","type":"uint256","internalType":"uint256"}],"stateMutability":"view"},{"type":"function","name":"revokeRole","inputs":[{"name":"role","type":"bytes32","internalType":"bytes32"},{"name":"account","type":"address","internalType":"address"}],"outputs":[],"stateMutability":"nonpayable"},{"type":"function","name":"send","inputs":[{"name":"_sendParam","type":"tuple","internalType":"struct SendParam","components":[{"name":"dstEid","type":"uint32","internalType":"uint32"},{"name":"to","type":"bytes32","internalType":"bytes32"},{"name":"amountLD","type":"uint256","internalType":"uint256"},{"name":"minAmountLD","type":"uint256","internalType":"uint256"},{"name":"extraOptions","type":"bytes","internalType":"bytes"},{"name":"composeMsg","type":"bytes","internalType":"bytes"},{"name":"oftCmd","type":"bytes","internalType":"bytes"}]},{"name":"_fee","type":"tuple","internalType":"struct MessagingFee","components":[{"name":"nativeFee","type":"uint256","internalType":"uint256"},{"name":"lzTokenFee","type":"uint256","internalType":"uint256"}]},{"name":"_refundAddress","type":"address","internalType":"address"}],"outputs":[{"name":"msgReceipt","type":"tuple","internalType":"struct MessagingReceipt","components":[{"name":"guid","type":"bytes32","internalType":"bytes32"},{"name":"nonce","type":"uint64","internalType":"uint64"},{"name":"fee","type":"tuple","internalType":"struct MessagingFee","components":[{"name":"nativeFee","type":"uint256","internalType":"uint256"},{"name":"lzTokenFee","type":"uint256","internalType":"uint256"}]}]},{"name":"oftReceipt","type":"tuple","internalType":"struct OFTReceipt","components":[{"name":"amountSentLD","type":"uint256","internalType":"uint256"},{"name":"amountReceivedLD","type":"uint256","internalType":"uint256"}]}],"stateMutability":"payable"},{"type":"function","name":"setDelegate","inputs":[{"name":"_delegate","type":"address","internalType":"address"}],"outputs":[],"stateMutability":"nonpayable"},{"type":"function","name":"setEnforcedOptions","inputs":[{"name":"_enforcedOptions","type":"tuple[]","internalType":"struct EnforcedOptionParam[]","components":[{"name":"eid","type":"uint32","internalType":"uint32"},{"name":"msgType","type":"uint16","internalType":"uint16"},{"name":"options","type":"bytes","internalType":"bytes"}]}],"outputs":[],"stateMutability":"nonpayable"},{"type":"function","name":"setMsgInspector","inputs":[{"name":"_msgInspector","type":"address","internalType":"address"}],"outputs":[],"stateMutability":"nonpayable"},{"type":"function","name":"setPaused","inputs":[{"name":"_status","type":"bool","internalType":"bool"}],"outputs":[],"stateMutability":"nonpayable"},{"type":"function","name":"setPeer","inputs":[{"name":"_eid","type":"uint32","internalType":"uint32"},{"name":"_peer","type":"bytes32","internalType":"bytes32"}],"outputs":[],"stateMutability":"nonpayable"},{"type":"function","name":"setPreCrime","inputs":[{"name":"_preCrime","type":"address","internalType":"address"}],"outputs":[],"stateMutability":"nonpayable"},{"type":"function","name":"setRedeemValues","inputs":[{"name":"_newValue","type":"uint256","internalType":"uint256"}],"outputs":[],"stateMutability":"nonpayable"},{"type":"function","name":"shareT","inputs":[],"outputs":[{"name":"","type":"uint256","internalType":"uint256"}],"stateMutability":"view"},{"type":"function","name":"shareU","inputs":[],"outputs":[{"name":"","type":"uint256","internalType":"uint256"}],"stateMutability":"view"},{"type":"function","name":"sharedDecimals","inputs":[],"outputs":[{"name":"","type":"uint8","internalType":"uint8"}],"stateMutability":"view"},{"type":"function","name":"supportsInterface","inputs":[{"name":"interfaceId","type":"bytes4","internalType":"bytes4"}],"outputs":[{"name":"","type":"bool","internalType":"bool"}],"stateMutability":"view"},{"type":"function","name":"symbol","inputs":[],"outputs":[{"name":"","type":"string","internalType":"string"}],"stateMutability":"view"},{"type":"function","name":"toggleAutoRewarder","inputs":[],"outputs":[],"stateMutability":"nonpayable"},{"type":"function","name":"token","inputs":[],"outputs":[{"name":"","type":"address","internalType":"address"}],"stateMutability":"view"},{"type":"function","name":"totalSupply","inputs":[],"outputs":[{"name":"","type":"uint256","internalType":"uint256"}],"stateMutability":"view"},{"type":"function","name":"transfer","inputs":[{"name":"to","type":"address","internalType":"address"},{"name":"value","type":"uint256","internalType":"uint256"}],"outputs":[{"name":"","type":"bool","internalType":"bool"}],"stateMutability":"nonpayable"},{"type":"function","name":"transferFrom","inputs":[{"name":"from","type":"address","internalType":"address"},{"name":"to","type":"address","internalType":"address"},{"name":"value","type":"uint256","internalType":"uint256"}],"outputs":[{"name":"","type":"bool","internalType":"bool"}],"stateMutability":"nonpayable"},{"type":"function","name":"transferOwnership","inputs":[{"name":"newOwner","type":"address","internalType":"address"}],"outputs":[],"stateMutability":"nonpayable"},{"type":"function","name":"underlying","inputs":[],"outputs":[{"name":"","type":"address","internalType":"contract IERC20"}],"stateMutability":"view"},{"type":"function","name":"wtg","inputs":[],"outputs":[{"name":"","type":"address","internalType":"contract IWrappedTokenGatewayV3"}],"stateMutability":"view"},{"type":"event","name":"Approval","inputs":[{"name":"owner","type":"address","indexed":true,"internalType":"address"},{"name":"spender","type":"address","indexed":true,"internalType":"address"},{"name":"value","type":"uint256","indexed":false,"internalType":"uint256"}],"anonymous":false},{"type":"event","name":"EnforcedOptionSet","inputs":[{"name":"_enforcedOptions","type":"tuple[]","indexed":false,"internalType":"struct EnforcedOptionParam[]","components":[{"name":"eid","type":"uint32","internalType":"uint32"},{"name":"msgType","type":"uint16","internalType":"uint16"},{"name":"options","type":"bytes","internalType":"bytes"}]}],"anonymous":false},{"type":"event","name":"Minted","inputs":[{"name":"user","type":"address","indexed":true,"internalType":"address"},{"name":"amount","type":"uint256","indexed":true,"internalType":"uint256"}],"anonymous":false},{"type":"event","name":"MsgInspectorSet","inputs":[{"name":"inspector","type":"address","indexed":false,"internalType":"address"}],"anonymous":false},{"type":"event","name":"OFTReceived","inputs":[{"name":"guid","type":"bytes32","indexed":true,"internalType":"bytes32"},{"name":"srcEid","type":"uint32","indexed":false,"internalType":"uint32"},{"name":"toAddress","type":"address","indexed":true,"internalType":"address"},{"name":"amountReceivedLD","type":"uint256","indexed":false,"internalType":"uint256"}],"anonymous":false},{"type":"event","name":"OFTSent","inputs":[{"name":"guid","type":"bytes32","indexed":true,"internalType":"bytes32"},{"name":"dstEid","type":"uint32","indexed":false,"internalType":"uint32"},{"name":"fromAddress","type":"address","indexed":true,"internalType":"address"},{"name":"amountSentLD","type":"uint256","indexed":false,"internalType":"uint256"},{"name":"amountReceivedLD","type":"uint256","indexed":false,"internalType":"uint256"}],"anonymous":false},{"type":"event","name":"OwnershipTransferred","inputs":[{"name":"previousOwner","type":"address","indexed":true,"internalType":"address"},{"name":"newOwner","type":"address","indexed":true,"internalType":"address"}],"anonymous":false},{"type":"event","name":"PausedContract","inputs":[{"name":"status","type":"bool","indexed":true,"internalType":"bool"}],"anonymous":false},{"type":"event","name":"PeerSet","inputs":[{"name":"eid","type":"uint32","indexed":false,"internalType":"uint32"},{"name":"peer","type":"bytes32","indexed":false,"internalType":"bytes32"}],"anonymous":false},{"type":"event","name":"PreCrimeSet","inputs":[{"name":"preCrimeAddress","type":"address","indexed":false,"internalType":"address"}],"anonymous":false},{"type":"event","name":"Redemption","inputs":[{"name":"user","type":"address","indexed":true,"internalType":"address"},{"name":"amount","type":"uint256","indexed":true,"internalType":"uint256"}],"anonymous":false},{"type":"event","name":"RoleAdminChanged","inputs":[{"name":"role","type":"bytes32","indexed":true,"internalType":"bytes32"},{"name":"previousAdminRole","type":"bytes32","indexed":true,"internalType":"bytes32"},{"name":"newAdminRole","type":"bytes32","indexed":true,"internalType":"bytes32"}],"anonymous":false},{"type":"event","name":"RoleGranted","inputs":[{"name":"role","type":"bytes32","indexed":true,"internalType":"bytes32"},{"name":"account","type":"address","indexed":true,"internalType":"address"},{"name":"sender","type":"address","indexed":true,"internalType":"address"}],"anonymous":false},{"type":"event","name":"RoleRevoked","inputs":[{"name":"role","type":"bytes32","indexed":true,"internalType":"bytes32"},{"name":"account","type":"address","indexed":true,"internalType":"address"},{"name":"sender","type":"address","indexed":true,"internalType":"address"}],"anonymous":false},{"type":"event","name":"Transfer","inputs":[{"name":"from","type":"address","indexed":true,"internalType":"address"},{"name":"to","type":"address","indexed":true,"internalType":"address"},{"name":"value","type":"uint256","indexed":false,"internalType":"uint256"}],"anonymous":false},{"type":"error","name":"AccessControlBadConfirmation","inputs":[]},{"type":"error","name":"AccessControlUnauthorizedAccount","inputs":[{"name":"account","type":"address","internalType":"address"},{"name":"neededRole","type":"bytes32","internalType":"bytes32"}]},{"type":"error","name":"AddressEmptyCode","inputs":[{"name":"target","type":"address","internalType":"address"}]},{"type":"error","name":"AddressInsufficientBalance","inputs":[{"name":"account","type":"address","internalType":"address"}]},{"type":"error","name":"BelowMinimum","inputs":[]},{"type":"error","name":"DivisorError","inputs":[]},{"type":"error","name":"ERC20InsufficientAllowance","inputs":[{"name":"spender","type":"address","internalType":"address"},{"name":"allowance","type":"uint256","internalType":"uint256"},{"name":"needed","type":"uint256","internalType":"uint256"}]},{"type":"error","name":"ERC20InsufficientBalance","inputs":[{"name":"sender","type":"address","internalType":"address"},{"name":"balance","type":"uint256","internalType":"uint256"},{"name":"needed","type":"uint256","internalType":"uint256"}]},{"type":"error","name":"ERC20InvalidApprover","inputs":[{"name":"approver","type":"address","internalType":"address"}]},{"type":"error","name":"ERC20InvalidReceiver","inputs":[{"name":"receiver","type":"address","internalType":"address"}]},{"type":"error","name":"ERC20InvalidSender","inputs":[{"name":"sender","type":"address","internalType":"address"}]},{"type":"error","name":"ERC20InvalidSpender","inputs":[{"name":"spender","type":"address","internalType":"address"}]},{"type":"error","name":"Failed","inputs":[]},{"type":"error","name":"FailedInnerCall","inputs":[]},{"type":"error","name":"InvalidDelegate","inputs":[]},{"type":"error","name":"InvalidEndpointCall","inputs":[]},{"type":"error","name":"InvalidLocalDecimals","inputs":[]},{"type":"error","name":"InvalidOptions","inputs":[{"name":"options","type":"bytes","internalType":"bytes"}]},{"type":"error","name":"LzTokenUnavailable","inputs":[]},{"type":"error","name":"NoChangeInBoolean","inputs":[]},{"type":"error","name":"NoPeer","inputs":[{"name":"eid","type":"uint32","internalType":"uint32"}]},{"type":"error","name":"NotEnoughNative","inputs":[{"name":"msgValue","type":"uint256","internalType":"uint256"}]},{"type":"error","name":"OnlyEndpoint","inputs":[{"name":"addr","type":"address","internalType":"address"}]},{"type":"error","name":"OnlyPeer","inputs":[{"name":"eid","type":"uint32","internalType":"uint32"},{"name":"sender","type":"bytes32","internalType":"bytes32"}]},{"type":"error","name":"OnlySelf","inputs":[]},{"type":"error","name":"OwnableInvalidOwner","inputs":[{"name":"owner","type":"address","internalType":"address"}]},{"type":"error","name":"OwnableUnauthorizedAccount","inputs":[{"name":"account","type":"address","internalType":"address"}]},{"type":"error","name":"Paused","inputs":[]},{"type":"error","name":"ReentrancyGuardReentrantCall","inputs":[]},{"type":"error","name":"RefillRequired","inputs":[]},{"type":"error","name":"SafeERC20FailedOperation","inputs":[{"name":"token","type":"address","internalType":"address"}]},{"type":"error","name":"SimulationResult","inputs":[{"name":"result","type":"bytes","internalType":"bytes"}]},{"type":"error","name":"SlippageExceeded","inputs":[{"name":"amountLD","type":"uint256","internalType":"uint256"},{"name":"minAmountLD","type":"uint256","internalType":"uint256"}]},{"type":"error","name":"Zero","inputs":[]}],"bytecode":{"object":"0x60e0806040523461051d576000906040816147bd80380380916100228285610522565b83398101031261051957610041602061003a8361055b565b920161055b565b60405192610050604085610522565b600b84526a20b9ba39379022ba3432b960a91b602085015260405192610077604085610522565b60068452650c6deda8aa8960d31b6020850152815460008051602061475d8339815191526001600160a01b031982168117845560405192916001600160a01b03167f8be0079c531659141344cd1fd0a4f28419497f9722a3daafe3b4186f6b6457e08580a36001600160a01b03166080819052803b15610515578160248185809463ca5eb5e160e01b835260008051602061475d83398151915260048401525af1801561050a5782906104fa575b505064e8d4a5100060a05283516001600160401b0381116104e657600854600181811c911680156104dc575b60208210146104c857601f8111610465575b50602094601f82116001146104015794829394958293926103f6575b50508160011b916000199060031b1c1916176008555b8251906001600160401b0382116103e257600954600181811c911680156103d8575b60208210146103c457601f8111610361575b50602090601f83116001146102ff5793829394926102f4575b50508160011b916000199060031b1c1916176009555b6001600b556113886011819055601255601380546103e360145560fa601555610100600160b81b031916601083901b62010000600160b01b0316177601000000000000000000000000000000000000000001001790556001600160a01b031660c05261026261056f565b5061026b61062d565b50610275336106d2565b50604051613f9e908161075f8239608051818181610bde01528181610cf201528181611363015281816116ae0152818161262701528181613b710152613dd5015260a0518181816112b301528181611a77015281816131190152818161350e0152613c5f015260c051818181611b6e01528181611eb901526120740152f35b0151905038806101e2565b90601f1983169460098352818320925b8681106103495750836001959610610330575b505050811b016009556101f8565b015160001960f88460031b161c19169055388080610322565b9192602060018192868501518155019401920161030f565b600982527f6e1540171b6c0c960b71a7020d9f60077f6af931a8bbf590da0223dacf75c7af601f840160051c810191602085106103ba575b601f0160051c01905b8181106103af57506101c9565b8281556001016103a2565b9091508190610399565b634e487b7160e01b82526022600452602482fd5b90607f16906101b7565b634e487b7160e01b81526041600452602490fd5b01519050388061017f565b601f198216956008845280842091845b88811061044d57508360019596979810610434575b505050811b01600855610195565b015160001960f88460031b161c19169055388080610426565b91926020600181928685015181550194019201610411565b600883527ff3f7a9fe364faab93b216da50a3214154f22a0a2b415b23a84c8169e8b636ee3601f830160051c810191602084106104be575b601f0160051c01905b8181106104b35750610163565b8381556001016104a6565b909150819061049d565b634e487b7160e01b83526022600452602483fd5b90607f1690610151565b634e487b7160e01b82526041600452602482fd5b61050391610522565b3881610125565b6040513d84823e3d90fd5b8280fd5b5080fd5b600080fd5b601f909101601f19168101906001600160401b0382119082101761054557604052565b634e487b7160e01b600052604160045260246000fd5b51906001600160a01b038216820361051d57565b60008051602061475d8339815191526000527f13da86008ba1c6922daee3e07db95305ef49ebced9f5467a0b8613fcc6b343e360205260008051602061471d8339815191525460ff166106285760008051602061475d83398151915260008181527f13da86008ba1c6922daee3e07db95305ef49ebced9f5467a0b8613fcc6b343e360205260008051602061471d833981519152805460ff191660011790553391906000805160206146fd8339815191528180a4600190565b600090565b60008051602061475d83398151915260005260008051602061473d83398151915260205260008051602061479d8339815191525460ff166106285760008051602061475d833981519152600081815260008051602061473d83398151915260205260008051602061479d833981519152805460ff1916600117905533919060008051602061477d833981519152906000805160206146fd8339815191529080a4600190565b6001600160a01b038116600090815260008051602061473d833981519152602052604090205460ff16610758576001600160a01b0316600081815260008051602061473d83398151915260205260408120805460ff1916600117905533919060008051602061477d833981519152906000805160206146fd8339815191529080a4600190565b5060009056fe6080604052600436101561001b575b361561001957600080fd5b005b60003560e01c806301ffc9a7146104d157806306552ff3146104cc57806306fdde03146104c7578063095ea7b3146104c257806309bca7a1146104bd5780630d35b415146104b8578063111ecdad146104b357806313137d65146104ae578063134d4f25146104a9578063156a0d0f146104a457806315ac86f31461049f57806316343da41461049a57806316c38b3c1461049557806317442b701461049057806318160ddd1461048b5780631cff79cd146104865780631f5e13341461048157806323b872dd1461047c578063248a9ca3146104775780632f2ff15d14610472578063313ce5671461046d5780633400288b146104685780633410fe6e1461046357806336568abe1461045e5780633b6f743b146104595780633dffe51f146104545780634322b7141461044f57806352ae28791461036e5780635535d4611461044a5780635a0dfe4d146104455780635c975abb146104405780635e280f111461043b5780636e4791f8146104365780636f307dc3146104315780636fc1b31e1461042c57806370a0823114610427578063715018a6146104225780637d25a05e1461041d57806382413eac14610418578063857749b0146104135780638da5cb5b1461040e57806391d148541461040957806392c2bcb41461040457806395d89b41146103ff578063963efcaa146103fa5780639f68b964146103e6578063a03e4bc3146103f5578063a0712d68146103f0578063a0c1f15e146103eb578063a217fddf146103e6578063a55b3d4d146103e1578063a6e158f8146103dc578063a9059cbb146103d7578063ad5c4648146103d2578063ae334602146103cd578063af4aff77146103c8578063b731ea0a146103c3578063b98bd070146103be578063bb0b6a53146103b9578063bc70b354146103b4578063bd815db0146103af578063c5283ef2146103aa578063c7c7f5b3146103a5578063ca5eb5e1146103a0578063cf0eed381461039b578063d045a0dc14610396578063d424388514610391578063d453a5601461038c578063d547741f14610387578063dd62ed3e14610382578063eda621341461037d578063f2fde38b14610378578063f5b541a614610373578063fc0c546a1461036e578063fd4e36ec146103695763ff7bd03d0361000e57612b54565b612b25565b611441565b612aea565b612a5d565b61288c565b612829565b6127e6565b6127c8565b612758565b612725565b6126a2565b6125fd565b6124db565b612461565b612305565b6122b1565b612276565b612193565b612110565b6120c1565b6120a3565b61205e565b612029565b611deb565b611da3565b611a9a565b611d7a565b611adf565b611ab6565b611a5f565b6119b7565b611959565b611903565b6118da565b6118be565b611860565b611839565b6117e0565b6117a3565b611733565b61170a565b6116dd565b611698565b611672565b61162a565b6115ab565b611423565b611405565b61124f565b611205565b6111e8565b611161565b611137565b6110ef565b6110ba565b61100f565b610ff3565b610f39565b610f1b565b610ef9565b610e70565b610e49565b610e20565b610df9565b610ddd565b610bcb565b610af4565b610a0f565b61093d565b610876565b610799565b61053d565b346105275760203660031901126105275760043563ffffffff60e01b811680910361052757602090637965db0b60e01b8114908115610516575b506040519015158152f35b6301ffc9a760e01b1490503861050b565b600080fd5b6001600160a01b0381160361052757565b346105275760803660031901126105275761066060043561055d8161052c565b61062f6024359161056d8361052c565b61060d60443561057c8161052c565b6105eb6064359361058c8561052c565b6105ab73bfc57b070b1eda0fcb9c203edc1085c626f3a36d3314612b9b565b6105c9600160ff6105c260135460ff9060081c1690565b1614612bd6565b600f80546001600160a01b0319166001600160a01b0392909216919091179055565b600e80546001600160a01b0319166001600160a01b0392909216919091179055565b601080546001600160a01b0319166001600160a01b0392909216919091179055565b61063e60ff1960135416601355565b600d80546001600160a01b0319166001600160a01b0392909216919091179055565b600f54600490602090610683906001600160a01b03165b6001600160a01b031690565b6040516358b50cef60e11b815292839182905afa801561072d576106cc916000916106fe575b50600c80546001600160a01b0319166001600160a01b0392909216919091179055565b6100196106e76106e260135460ff9060081c1690565b612c47565b61ff006013549160081b169061ff00191617601355565b610720915060203d602011610726575b610718818361158a565b810190612c10565b386106a9565b503d61070e565b612c25565b600091031261052757565b60005b8381106107505750506000910152565b8181015183820152602001610740565b906020916107798151809281855285808601910161073d565b601f01601f1916010190565b906020610796928181520190610760565b90565b346105275760003660031901126105275760405160006008546107bb8161147c565b808452906001811690811561085257506001146107f3575b6107ef836107e38185038261158a565b60405191829182610785565b0390f35b600860009081527ff3f7a9fe364faab93b216da50a3214154f22a0a2b415b23a84c8169e8b636ee3939250905b808210610838575090915081016020016107e36107d3565b919260018160209254838588010152019101909291610820565b60ff191660208086019190915291151560051b840190910191506107e390506107d3565b34610527576040366003190112610527576004356108938161052c565b6024353315610927576001600160a01b038216918215610911576108d7829133600052600660205260406000209060018060a01b0316600052602052604060002090565b5560405190815233907f8c5be1e5ebec7d5bd14f71427d1e84f3dd0314c0f7b2291e5b200ac8c7c3b92590602090a3602060405160018152f35b634a1406b160e11b600052600060045260246000fd5b63e602df0560e01b600052600060045260246000fd5b3461052757600036600319011261052757602060ff601354166040519015158152f35b908160e09103126105275790565b9392919061098a8560a081019260208091805184520151910152565b60a06040860152815180915260c0850190602060c08260051b8801019301916000905b8282106109d357505050509060606109d19294019060208091805184520151910152565b565b90919293602080610a0160019360bf198c82030186526040838a518051845201519181858201520190610760565b9601920192019092916109ad565b34610527576020366003190112610527576004356001600160401b03811161052757610a3f903690600401610960565b610a47612c76565b50610a50612c76565b50604051610a5d8161154f565b600081526001600160401b036020820152602060405192610a7e828561158a565b60008452601f19820160005b818110610ad057505090610ab46107ef926040810135610aae606083013592612ca6565b50613110565b9091610abe612c58565b9283528201526040519384938461096e565b8390604051610ade8161154f565b6000815260608382015282828901015201610a8a565b34610527576000366003190112610527576004546040516001600160a01b039091168152602090f35b606090600319011261052757600490565b9181601f84011215610527578235916001600160401b038311610527576020838186019501011161052757565b600319810160e0811261052757606060009112610bc8575060049182606435926084356001600160401b0381116105275781610b98918401610b2e565b9390939260a435610ba88161052c565b9260c4356001600160401b03811161052757610bc49201610b2e565b9091565b80fd5b610bd436610b5b565b50919492915050337f00000000000000000000000000000000000000000000000000000000000000006001600160a01b031603610dc8578135610c1681611153565b610c1f81613164565b906020840135809203610da1575050610c3b6106778583613c2f565b93610c61610c51610c4c8385613c3b565b613c51565b610c5a85612ca6565b5086613c85565b91610c6c8260281090565b610cc4575b5050610c9d7fefed6d3500546b29533b128a29e3a94d70788727f0507505ac12eaf2e578fd9c92612ca6565b6040805163ffffffff92909216825260208201929092526001600160a01b039490941693a3005b9082610cef92610ce9610cd960408801613198565b93610ce388612ca6565b92613ca9565b92613ccc565b917f00000000000000000000000000000000000000000000000000000000000000006001600160a01b0316803b1561052757604051633e5ac80960e11b8152936000918591829084908290610d49908b8d600485016131a2565b03925af190811561072d577fefed6d3500546b29533b128a29e3a94d70788727f0507505ac12eaf2e578fd9c93610c9d92610d86575b5092610c71565b80610d956000610d9b9361158a565b80610732565b38610d7f565b80610db063ffffffff92611153565b63309afaf360e21b6000521660045260245260446000fd5b6391ac5e4f60e01b6000523360045260246000fd5b3461052757600036600319011261052757602060405160028152f35b34610527576000366003190112610527576040805162b9270b60e21b815260016020820152f35b3461052757600036600319011261052757600d546040516001600160a01b039091168152602090f35b346105275760003660031901126105275760206040516127108152f35b8015150361052757565b3461052757602036600319011261052757600435610e8d81610e66565b610e956131cd565b601354901515908160ff8260b01c16151514610ee85760ff60b01b191660b082901b60ff60b01b16176013557f381650b81778988372e2fff8cd29c8b87a0a3db9e37b10c7b6f11d7adf303d9b600080a2005b6350faa11f60e11b60005260046000fd5b3461052757600036600319011261052757604080516001815260026020820152f35b34610527576000366003190112610527576020600754604051908152f35b3461052757604036600319011261052757600435610f568161052c565b6024356001600160401b03811161052757610f75903690600401610b2e565b3360009081527f13da86008ba1c6922daee3e07db95305ef49ebced9f5467a0b8613fcc6b343e3602052604090205490919060ff1615610fd95760008383828094610019966040519384928337810182815203925af1610fd3612ccb565b50612cfb565b63e2517d3f60e01b60005233600452600060245260446000fd5b3461052757600036600319011261052757602060405160018152f35b346105275760603660031901126105275760043561102c8161052c565b6024356110388161052c565b6001600160a01b038216600090815260066020908152604080832033845290915290205491604435919060018401611081575b611075935061327c565b60405160018152602090f35b82841061109d576110988361107595033383613be5565b61106b565b8284637dc7a0d960e11b6000523360045260245260445260646000fd5b346105275760203660031901126105275760206110e7600435600052600a60205260016040600020015490565b604051908152f35b34610527576040366003190112610527576100196024356004356111128261052c565b61113261112d82600052600a60205260016040600020015490565b61323f565b61338a565b3461052757600036600319011261052757602060405160128152f35b63ffffffff81160361052757565b34610527576040366003190112610527577f238399d427b947898edb290f5ff0f9109849b1c3ba196a42e35f00c50a54b98b60043561119f81611153565b602435906111ab61341e565b63ffffffff81166000526001602052816040600020556111e3604051928392836020909392919363ffffffff60408201951681520152565b0390a1005b346105275760003660031901126105275760206040516103e88152f35b34610527576040366003190112610527576004356024356112258161052c565b336001600160a01b0382160361123e5761001991613447565b63334bd91960e11b60005260046000fd5b34610527576040366003190112610527576004356001600160401b0381116105275761127f903690600401610960565b60243561128b81610e66565b611293612c76565b508135916060810135906112de60408201356112ae86611153565b6112d97f00000000000000000000000000000000000000000000000000000000000000008092612d88565b612d75565b918083106113ed5761135f604086611344876112fa88886134f7565b9061130485611153565b61130c612c76565b5061131685613164565b61132d611321612c67565b63ffffffff9097168752565b602086015285850152606084015215156080830152565b815180938192631bb8518b60e31b8352309060048401613643565b03817f00000000000000000000000000000000000000000000000000000000000000006001600160a01b03165afa801561072d576107ef916000916113be575b5060405191829182815181526020918201519181019190915260400190565b6113e0915060403d6040116113e6575b6113d8818361158a565b81019061362f565b8261139f565b503d6113ce565b826371c4efed60e01b60005260045260245260446000fd5b34610527576000366003190112610527576020601454604051908152f35b34610527576000366003190112610527576020601554604051908152f35b34610527576000366003190112610527576020604051308152f35b6024359061ffff8216820361052757565b359061ffff8216820361052757565b90600182811c921680156114ac575b602083101461149657565b634e487b7160e01b600052602260045260246000fd5b91607f169161148b565b600092918154916114c68361147c565b808352926001811690811561151c57506001146114e257505050565b60009081526020812093945091925b838310611502575060209250010190565b6001816020929493945483858701015201910191906114f1565b915050602093945060ff929192191683830152151560051b010190565b634e487b7160e01b600052604160045260246000fd5b604081019081106001600160401b0382111761156a57604052565b611539565b606081019081106001600160401b0382111761156a57604052565b90601f801991011681019081106001600160401b0382111761156a57604052565b34610527576040366003190112610527576107ef61160f6116166116036004356115d481611153565b63ffffffff6115e161145c565b9116600052600360205260406000209061ffff16600052602052604060002090565b604051928380926114b6565b038261158a565b604051918291602083526020830190610760565b3461052757604036600319011261052757602061166860043561164c81611153565b6024359063ffffffff1660005260016020526040600020541490565b6040519015158152f35b3461052757600036600319011261052757602060ff60135460b01c166040519015158152f35b34610527576000366003190112610527576040517f00000000000000000000000000000000000000000000000000000000000000006001600160a01b03168152602090f35b346105275760003660031901126105275760135460405160109190911c6001600160a01b03168152602090f35b3461052757600036600319011261052757600c546040516001600160a01b039091168152602090f35b34610527576020366003190112610527577ff0be4f1e87349231d80c36b33f9e8639658eeaf474014dee15a3e6a4d441419760206004356117738161052c565b61177b61341e565b600480546001600160a01b0319166001600160a01b03929092169182179055604051908152a1005b34610527576020366003190112610527576004356117c08161052c565b60018060a01b031660005260056020526020604060002054604051908152f35b34610527576000366003190112610527576117f961341e565b600080546001600160a01b0319811682556001600160a01b03167f8be0079c531659141344cd1fd0a4f28419497f9722a3daafe3b4186f6b6457e08280a3005b3461052757604036600319011261052757611855600435611153565b602060405160008152f35b346105275760a03660031901126105275761187a36610b1d565b506064356001600160401b0381116105275761189a903690600401610b2e565b505060206084356118aa8161052c565b6040516001600160a01b0390911630148152f35b3461052757600036600319011261052757602060405160068152f35b34610527576000366003190112610527576000546040516001600160a01b039091168152602090f35b3461052757604036600319011261052757602060ff61194d60243560043561192a8261052c565b600052600a845260406000209060018060a01b0316600052602052604060002090565b54166040519015158152f35b34610527576020366003190112610527576004356119768161052c565b61199573bfc57b070b1eda0fcb9c203edc1085c626f3a36d3314612b9b565b600d80546001600160a01b0319166001600160a01b0392909216919091179055005b346105275760003660031901126105275760405160006009546119d98161147c565b80845290600181169081156108525750600114611a00576107ef836107e38185038261158a565b600960009081527f6e1540171b6c0c960b71a7020d9f60077f6af931a8bbf590da0223dacf75c7af939250905b808210611a45575090915081016020016107e36107d3565b919260018160209254838588010152019101909291611a2d565b346105275760003660031901126105275760206040517f00000000000000000000000000000000000000000000000000000000000000008152f35b3461052757600036600319011261052757602060405160008152f35b34610527576000366003190112610527576010546040516001600160a01b039091168152602090f35b3461052757602036600319011261052757600435611b0560ff60135460b01c1615612d13565b611b0d6136b1565b611b18811515612d2b565b601354611b309060101c6001600160a01b0316610677565b6040516323b872dd60e01b81523360048201523060248201526044810183905290602090829060649082906000905af1801561072d57611d5d575b507f00000000000000000000000000000000000000000000000000000000000000006001600160a01b0316803b1561052757604051632e1a7d4d60e01b815260048101839052906000908290602490829084905af1801561072d57611d48575b50600e54611be1906001600160a01b0316610677565b601054611bf6906001600160a01b0316610677565b90803b156105275760405163474cf53d60e01b81526001600160a01b03929092166004830152306024830152600060448301819052908290606490829084905af1801561072d57611d33575b50600f54600090602090611cbc90611c62906001600160a01b0316610677565b611c81611c79611c73601554612d58565b87612d75565b6103e8900490565b60405194858094819363a9059cbb60e01b83526004830191906020604084019373bfc57b070b1eda0fcb9c203edc1085c626f3a36d81520152565b03925af1801561072d57611d06575b50611cd681336136d3565b337f30385c845b448a36257a6a1716e6ad2e1bc2cbe333cde1e69fe849ad6511adfe600080a36100196001600b55565b611d279060203d602011611d2c575b611d1f818361158a565b810190612d43565b611ccb565b503d611d15565b80610d956000611d429361158a565b38611c42565b80610d956000611d579361158a565b38611bcb565b611d759060203d602011611d2c57611d1f818361158a565b611b6b565b3461052757600036600319011261052757600f546040516001600160a01b039091168152602090f35b3461052757600036600319011261052757611dd373bfc57b070b1eda0fcb9c203edc1085c626f3a36d3314612b9b565b60135460ff80821615169060ff191617601355600080f35b3461052757602036600319011261052757600435611e1160ff60135460b01c1615612d13565b611e196136b1565b611e24811515612da8565b600f54611e39906001600160a01b0316610677565b6040516370a0823160e01b815230600482015290602090829060249082905afa801561072d57611e749160009161200a575b50821115612dcf565b611e7e8133613748565b611e8d611c7960145483612d75565b601054611ea2906001600160a01b0316610677565b604051631a4ca37b60e21b81526001600160a01b037f0000000000000000000000000000000000000000000000000000000000000000166004820181905260248201849052336044830152909291602090849060649082906000905af191821561072d57611f8293602093611fef575b50601054611f3390611f2c906001600160a01b0316610677565b9186612d68565b604051631a4ca37b60e21b81526001600160a01b039093166004840152602483015273bfc57b070b1eda0fcb9c203edc1085c626f3a36d60448301529092839190829060009082906064820190565b03925af1801561072d57611fc2575b50337fe6c82503aaaa3db78b70f183901ae8668918f895b3982b2c851cf2ffe0c6c639600080a36100196001600b55565b611fe39060203d602011611fe8575b611fdb818361158a565b810190612dc0565b611f91565b503d611fd1565b61200590843d8611611fe857611fdb818361158a565b611f12565b612023915060203d602011611fe857611fdb818361158a565b38611e6b565b34610527576040366003190112610527576120536004356120498161052c565b602435903361327c565b602060405160018152f35b34610527576000366003190112610527576040517f00000000000000000000000000000000000000000000000000000000000000006001600160a01b03168152602090f35b34610527576000366003190112610527576020601254604051908152f35b34610527576020366003190112610527576004356120dd6131cd565b6103de81101580612104575b156120f357601455005b637b2d748560e11b60005260046000fd5b506103e88111156120e9565b34610527576000366003190112610527576002546040516001600160a01b039091168152602090f35b906020600319830112610527576004356001600160401b0381116105275760040160009280601f8301121561218f578135936001600160401b038511610bc857506020808301928560051b010111610527579190565b8380fd5b34610527576121a136612139565b906121aa61341e565b6121b382612c8f565b906121c1604051928361158a565b828252602082019260051b8101903682116105275780935b8285106121e957610019846139b3565b84356001600160401b0381116105275782019060608236031261052757604051916122138361156f565b803561221e81611153565b835261222c6020820161146d565b60208401526040810135906001600160401b03821161052757019036601f8301121561052757602092612266849336908581359101612de7565b60408201528152019401936121d9565b346105275760203660031901126105275763ffffffff60043561229881611153565b1660005260016020526020604060002054604051908152f35b34610527576060366003190112610527576004356122ce81611153565b6122d661145c565b604435906001600160401b038211610527576107ef926122fd611616933690600401610b2e565b929091612eaa565b61230e36612139565b60005b81811061238157604051638e9e709960e01b8152600081600481335afa801561072d5761235a9160009161235e575b50604051638351eea760e01b815291829160048301610785565b0390fd5b61237b91503d806000833e612373818361158a565b810190613055565b82612340565b61238c818385612f66565b906123be6123ba61239c84612ca6565b60208501359063ffffffff1660005260016020526040600020541490565b1590565b6124585760c08201359160a08101356123db610100830183612f8e565b9490916123ea60e08501612fc0565b936123f9610120820182612f8e565b959095303b1561052757600096612427926040519a8b9889978897633411683760e21b895260048901612fdb565b0391305af191821561072d57600192612443575b505b01612311565b80610d9560006124529361158a565b3861243b565b6001915061243d565b3461052757600036600319011261052757600e546040516001600160a01b039091168152602090f35b9160806109d19294936124ca604060c0830197805184526001600160401b0360208201511660208501520151604083019060208091805184520151910152565b019060208091805184520151910152565b6080366003190112610527576004356001600160401b03811161052757612506903690600401610960565b60403660231901126105275760643561251e8161052c565b6125266130b3565b5061252f612c76565b5060608201359061254860408401356112ae8535611153565b918083106113ed57506125829061255f8333613748565b61256983856134f7565b61257286612ca6565b9161257c366130db565b92613af4565b9061258b612c58565b928184528160208501527f85496b760a4b7f8d66384b9df21b381f5d1b1e79f229a47aaf4c232edc2fe59a6125eb6125c4855193612ca6565b936040519181839233978460409194939263ffffffff606083019616825260208201520152565b0390a36107ef6040519283928361248a565b346105275760006020366003190112610bc8578060043561261d8161052c565b61262561341e565b7f00000000000000000000000000000000000000000000000000000000000000006001600160a01b0316803b1561269e5760405163ca5eb5e160e01b81526001600160a01b0390921660048301529091908290602490829084905af1801561072d5782906126905780f35b6126999161158a565b388180f35b5050fd5b34610527576040366003190112610527576004356024356126d873bfc57b070b1eda0fcb9c203edc1085c626f3a36d3314612b9b565b81800180831161272057612710036126f257601255601155005b60405162461bcd60e51b81526020600482015260066024820152652164656e6f6d60d01b6044820152606490fd5b612c31565b61272e36610b5b565b505050929030330361274757610c3b6106778583613c2f565b63029a949d60e31b60005260046000fd5b34610527576020366003190112610527577fd48d879cef83a1c0bdda516f27b13ddb1b3f8bbac1c9e1511bb2a659c242776060206004356127988161052c565b6127a061341e565b600280546001600160a01b0319166001600160a01b03929092169182179055604051908152a1005b34610527576000366003190112610527576020601154604051908152f35b34610527576040366003190112610527576100196024356004356128098261052c565b61282461112d82600052600a60205260016040600020015490565b613447565b3461052757604036600319011261052757602061288360043561284b8161052c565b602435906128588261052c565b60018060a01b03166000526006835260406000209060018060a01b0316600052602052604060002090565b54604051908152f35b6000366003190112610527576128aa60ff60135460b01c1615612d13565b6128b26136b1565b6128bd341515612d2b565b6013546128d59060101c6001600160a01b0316610677565b6040516370a0823160e01b8152306004820152602081602481855afa801561072d5761290a91600091612a3e575b5034613103565b6040516370a0823160e01b815230600482015291602090839060249082905afa90811561072d5761294492600092612a1d575b5014612cfb565b600e54612959906001600160a01b0316610677565b60105461296e906001600160a01b0316610677565b90803b156105275760405163474cf53d60e01b81526001600160a01b038316600482015273bfc57b070b1eda0fcb9c203edc1085c626f3a36d602482015260006044820181905290918290606490829084905af1801561072d57612a08575b6129d734336136d3565b34337f30385c845b448a36257a6a1716e6ad2e1bc2cbe333cde1e69fe849ad6511adfe600080a36100196001600b55565b80610d956000612a179361158a565b806129cd565b612a3791925060203d602011611fe857611fdb818361158a565b903861293d565b612a57915060203d602011611fe857611fdb818361158a565b38612903565b3461052757602036600319011261052757600435612a7a8161052c565b612a8261341e565b6001600160a01b03168015612ad457600080546001600160a01b03198116831782556001600160a01b0316907f8be0079c531659141344cd1fd0a4f28419497f9722a3daafe3b4186f6b6457e09080a3005b631e4fbdf760e01b600052600060045260246000fd5b346105275760003660031901126105275760206040517f97667070c54ef182b0f5858b034beac1b6f3089aa2d3188bb1e8929f4fa9b9298152f35b3461052757600036600319011261052757602060405173bfc57b070b1eda0fcb9c203edc1085c626f3a36d8152f35b34610527576060366003190112610527576020612b7036610b1d565b63ffffffff8135612b8081611153565b16600052600182528160406000205491013560405191148152f35b15612ba257565b60405162461bcd60e51b815260206004820152600c60248201526b1d5b985d5d1a1bdc9a5e995960a21b6044820152606490fd5b15612bdd57565b60405162461bcd60e51b815260206004820152600b60248201526a1a5b9a5d1a585b1a5e995960aa1b6044820152606490fd5b9081602091031261052757516107968161052c565b6040513d6000823e3d90fd5b634e487b7160e01b600052601160045260246000fd5b60ff1660ff81146127205760010190565b604051906109d160408361158a565b604051906109d160a08361158a565b60405190612c838261154f565b60006020838281520152565b6001600160401b03811161156a5760051b60200190565b3561079681611153565b6001600160401b03811161156a57601f01601f191660200190565b3d15612cf6573d90612cdc82612cb0565b91612cea604051938461158a565b82523d6000602084013e565b606090565b15612d0257565b63312d207360e11b60005260046000fd5b15612d1a57565b6313d0ff5960e31b60005260046000fd5b15612d3257565b63f456040360e01b60005260046000fd5b90816020910312610527575161079681610e66565b6103e803906103e8821161272057565b9190820391821161272057565b8181029291811591840414171561272057565b8115612d92570490565b634e487b7160e01b600052601260045260246000fd5b15612daf57565b63860b82a960e01b60005260046000fd5b90816020910312610527575190565b15612dd657565b63042ea05760e01b60005260046000fd5b929192612df382612cb0565b91612e01604051938461158a565b829481845281830111610527578281602093846000960137010152565b909291928360021161052757831161052757600201916001190190565b6020836109d1939594956040519684612e5d899651809287808a01910161073d565b8501918483013701016000815203601f19810184528361158a565b908060209392818452848401376000828201840152601f01601f1916010190565b916020610796938181520191612e78565b61160361160f9263ffffffff612edf939795969716600052600360205260406000209061ffff16600052602052604060002090565b805115612f42578315612f3c576002841015612f1357505061235a604051928392639a6d49cd60e01b845260048401612e99565b909280612f369161079694612f31612f2c368484612de7565b613a7a565b612e1e565b91612e3b565b92509050565b509190610796913691612de7565b634e487b7160e01b600052603260045260246000fd5b9190811015612f895760051b8101359061013e1981360301821215610527570190565b612f50565b903590601e198136030182121561052757018035906001600160401b0382116105275760200191813603831361052757565b356107968161052c565b6001600160401b0381160361052757565b929093613037926001600160401b0360406107969a98999763ffffffff813561300381611153565b16885260208101356020890152013561301b81612fca565b166040860152606085015260e0608085015260e0840191612e78565b6001600160a01b0390941660a082015280840360c090910152612e78565b602081830312610527578051906001600160401b038211610527570181601f8201121561052757805161308781612cb0565b92613095604051948561158a565b8184526020828401011161052757610796916020808501910161073d565b604051906130c08261156f565b81600081526000602082015260406130d6612c76565b910152565b604090602319011261052757604051906130f48261154f565b60243582526044356020830152565b9190820180921161272057565b61313f906112d97f00000000000000000000000000000000000000000000000000000000000000008092612d88565b91829180841061314c5750565b836371c4efed60e01b60005260045260245260446000fd5b63ffffffff16806000526001602052604060002054908115613184575090565b63f6ff4fb760e01b60005260045260246000fd5b3561079681612fca565b610796939260809260018060a01b031682526020820152600060408201528160608201520190610760565b3360009081527f9b2788bb01a4e5439054acd1f78f40f2a154f25e1d2631076a79a383f587848a602052604090205460ff161561320657565b63e2517d3f60e01b600052336004527f97667070c54ef182b0f5858b034beac1b6f3089aa2d3188bb1e8929f4fa9b92960245260446000fd5b6000818152600a6020908152604080832033845290915290205460ff16156132645750565b63e2517d3f60e01b6000523360045260245260446000fd5b90916001600160a01b038216918215613374576001600160a01b03841693841561335e576001600160a01b03821660009081526005602052604081209092905484811061333857916133259161330a867fddf252ad1be2c89b69c2b068fc378daa952ba7f163c4a11628f55a4df523b3ef979695039160018060a01b03166000526005602052604060002090565b556001600160a01b0316600090815260056020526040902090565b80548301905550604051908152602090a3565b63391434e360e21b84526001600160a01b03909116600452602452506044829052606490fd5b63ec442f0560e01b600052600060045260246000fd5b634b637e8f60e11b600052600060045260246000fd5b6000818152600a602090815260408083206001600160a01b038616845290915290205460ff16613417576000818152600a602090815260408083206001600160a01b03861684529091529020805460ff1916600117905533916001600160a01b0316907f2f8788117e7eff1d82e926ec794901d17c78024a50270940304540a733656f0d600080a4600190565b5050600090565b6000546001600160a01b0316330361343257565b63118cdaa760e01b6000523360045260246000fd5b6000818152600a602090815260408083206001600160a01b038616845290915290205460ff1615613417576000818152600a602090815260408083206001600160a01b03861684529091529020805460ff1916905533916001600160a01b0316907ff6391f5c32d9c69d2a47ea670b442974b53935d1edc7fd64eb21e047a839171b600080a4600190565b90916134e961079693604084526040840190610760565b916020818403910152610760565b909161355c6135839361353f6135336020860135927f000000000000000000000000000000000000000000000000000000000000000090612d88565b6001600160401b031690565b61355661354f60a0870187612f8e565b3691612de7565b91613d2a565b93909283946000146135ff576002905b6122fd61357882612ca6565b916080810190612f8e565b6004549092906001600160a01b0316838161359d57505050565b6135d3926020926135b6906001600160a01b0316610677565b9060405180958194829363043a78eb60e01b8452600484016134d2565b03915afa801561072d576135e45750565b6135fc9060203d602011611d2c57611d1f818361158a565b50565b60019061356c565b91908260409103126105275760405161361f8161154f565b6020808294805184520151910152565b906040828203126105275761079691613607565b906020909392936040835263ffffffff81511660408401528181015160608401526080613697613681604084015160a08488015260e0870190610760565b6060840151868203603f190160a0880152610760565b910151151560c08401526001600160a01b03909416910152565b6002600b54146136c2576002600b55565b633ee5aeb560e01b60005260046000fd5b6001600160a01b0381169190821561335e5760075490828201809211612720576000926137396020927fddf252ad1be2c89b69c2b068fc378daa952ba7f163c4a11628f55a4df523b3ef9460075560018060a01b03166000526005602052604060002090565b818154019055604051908152a3565b906001600160a01b038216908115613374576001600160a01b0383166000908152600560205260408120909390548281106137d3576001600160a01b0390911660009081526005602052604090207fddf252ad1be2c89b69c2b068fc378daa952ba7f163c4a11628f55a4df523b3ef92918290039055600780548290039055604051908152602090a3565b63391434e360e21b85526001600160a01b0390911660045260245260445250606490fd5b8051821015612f895760209160051b010190565b601f821161381857505050565b6000526020600020906020601f840160051c83019310613853575b601f0160051c01905b818110613847575050565b6000815560010161383c565b9091508190613833565b91909182516001600160401b03811161156a576138848161387e845461147c565b8461380b565b6020601f82116001146138c55781906138b69394956000926138ba575b50508160011b916000199060031b1c19161790565b9055565b0151905038806138a1565b601f198216906138da84600052602060002090565b9160005b818110613916575095836001959697106138fd575b505050811b019055565b015160001960f88460031b161c191690553880806138f3565b9192602060018192868b0151815501940192016138de565b602081016020825282518091526040820191602060408360051b8301019401926000915b83831061396157505050505090565b90919293946020806139a4600193603f19868203018752606060408b5163ffffffff815116845261ffff8682015116868501520151918160408201520190610760565b97019301930191939290613952565b60005b8151811015613a4357806139d960406139d1600194866137f7565b510151613a7a565b613a3d60406139e883866137f7565b51015163ffffffff6139fa84876137f7565b5151166000526003602052613a386040600020613a266020613a1c878a6137f7565b51015161ffff1690565b61ffff16600052602052604060002090565b61385d565b016139b6565b50613a757fbe4864a8e820971c0247f5992e2da559595f7bf076a21cb5928d443d2a13b674916040519182918261392e565b0390a1565b600361ffff60028301511603613a8d5750565b604051639a6d49cd60e01b81526020600482015290819061235a906024830190610760565b9060808282031261052757613aec906040805193613acf8561156f565b805185526020810151613ae181612fca565b602086015201613607565b604082015290565b613b5160809492613b6d9694613b086130b3565b506020613b158651613da7565b950191825180613bd6575b50613b2a85613164565b9251151592613b3a611321612c67565b602086015260408501526060840152151585830152565b6040518095819482936302637a4560e41b845260048401613643565b03917f00000000000000000000000000000000000000000000000000000000000000006001600160a01b03165af190811561072d57600091613bad575090565b610796915060803d608011613bcf575b613bc7818361158a565b810190613ab2565b503d613bbd565b613bdf90613dc6565b38613b20565b6001600160a01b0316908115610927576001600160a01b0381161561091157613c2c91600052600660205260406000209060018060a01b0316600052602052604060002090565b55565b90602011610527573590565b90600090602811610bc857506020013560c01c90565b610796906001600160401b037f00000000000000000000000000000000000000000000000000000000000000009116612d75565b816001600160a01b03821615613c9f575b610796916136d3565b61dead9150613c96565b91906000928160281161218f579192506107969136916027190190602801612de7565b604c9193610796936040519586936001600160401b0360c01b9060c01b16602085015263ffffffff60e01b9060e01b166028840152602c830152613d19815180926020868601910161073d565b81010301601f19810183528261158a565b82511580159390613d7857613d759160689160405194859260208401526001600160401b0360c01b9060c01b166040830152336048830152613d19815180926020868601910161073d565b91565b50906040519160208301526001600160401b0360c01b9060c01b16604082015260288152613d7560488261158a565b803403613db15790565b6304fb820960e51b6000523460045260246000fd5b60405163393f876560e21b81527f00000000000000000000000000000000000000000000000000000000000000006001600160a01b03169190602081600481865afa90811561072d57600091613ee8575b506001600160a01b0316918215613ed7576040516323b872dd60e01b602082019081523360248301526001600160a01b03929092166044820152606480820193909352918252613e86916000918291613e7160848261158a565b519082865af1613e7f612ccb565b9083613f07565b8051908115159182613eb9575b5050613e9c5750565b635274afe760e01b6000526001600160a01b031660045260246000fd5b613ed09250906020806123ba938301019101612d43565b3880613e93565b6329b99a9560e11b60005260046000fd5b613f01915060203d60201161072657610718818361158a565b38613e17565b90613f2d5750805115613f1c57805190602001fd5b630a12f52160e11b60005260046000fd5b81511580613f5f575b613f3e575090565b639996b31560e01b60009081526001600160a01b0391909116600452602490fd5b50803b15613f3656fea264697066735822122034fcc837b5cc58fed7fe0237b884498e13bdfe98ef2729adc9a2e1dcd7f4f3f964736f6c634300081a00332f8788117e7eff1d82e926ec794901d17c78024a50270940304540a733656f0d6098f29d1f6aa27be29332f9655d270d7a5ac647ec9d1c81b8ae9b629fe1a58f9b2788bb01a4e5439054acd1f78f40f2a154f25e1d2631076a79a383f587848a000000000000000000000000bfc57b070b1eda0fcb9c203edc1085c626f3a36d97667070c54ef182b0f5858b034beac1b6f3089aa2d3188bb1e8929f4fa9b929b7ebe05d53daa321d1465375ee3bf28142221cf52659ef7d17ff7e160b91ad7f","linkReferences":{}},"methodIdentifiers":{"DEFAULT_ADMIN_ROLE()":"a217fddf","DENOM()":"16343da4","DIVISOR()":"3410fe6e","OPERATIONS()":"fd4e36ec","OPERATOR_ROLE()":"f5b541a6","SEND()":"1f5e1334","SEND_AND_CALL()":"134d4f25","WETH()":"ad5c4648","aToken()":"a0c1f15e","aavePool()":"a03e4bc3","allowInitializePath((uint32,bytes32,uint64))":"ff7bd03d","allowance(address,address)":"dd62ed3e","approvalRequired()":"9f68b964","approve(address,uint256)":"095ea7b3","autoRewarder()":"09bca7a1","balanceOf(address)":"70a08231","changeRecipient(address)":"92c2bcb4","changeShares(uint256,uint256)":"cf0eed38","combineOptions(uint32,uint16,bytes)":"bc70b354","decimalConversionRate()":"963efcaa","decimals()":"313ce567","endpoint()":"5e280f11","enforcedOptions(uint32,uint16)":"5535d461","ercWETH()":"6e4791f8","execute(address,bytes)":"1cff79cd","getRoleAdmin(bytes32)":"248a9ca3","grantRole(bytes32,address)":"2f2ff15d","hasRole(bytes32,address)":"91d14854","incentivesRecipient()":"15ac86f3","init(address,address,address,address)":"06552ff3","isComposeMsgSender((uint32,bytes32,uint64),bytes,address)":"82413eac","isPeer(uint32,bytes32)":"5a0dfe4d","lzReceive((uint32,bytes32,uint64),bytes32,bytes,address,bytes)":"13137d65","lzReceiveAndRevert(((uint32,bytes32,uint64),uint32,address,bytes32,uint256,address,bytes,bytes)[])":"bd815db0","lzReceiveSimulate((uint32,bytes32,uint64),bytes32,bytes,address,bytes)":"d045a0dc","mint(uint256)":"a0712d68","msgInspector()":"111ecdad","name()":"06fdde03","nativeMint()":"eda62134","nextNonce(uint32,bytes32)":"7d25a05e","oApp()":"52ae2879","oAppVersion()":"17442b70","oftVersion()":"156a0d0f","owner()":"8da5cb5b","paused()":"5c975abb","peers(uint32)":"bb0b6a53","preCrime()":"b731ea0a","quoteOFT((uint32,bytes32,uint256,uint256,bytes,bytes,bytes))":"0d35b415","quoteSend((uint32,bytes32,uint256,uint256,bytes,bytes,bytes),bool)":"3b6f743b","redeemShareEth()":"3dffe51f","redeemTokens(uint256)":"a6e158f8","renounceOwnership()":"715018a6","renounceRole(bytes32,address)":"36568abe","reserveFactor()":"4322b714","revokeRole(bytes32,address)":"d547741f","send((uint32,bytes32,uint256,uint256,bytes,bytes,bytes),(uint256,uint256),address)":"c7c7f5b3","setDelegate(address)":"ca5eb5e1","setEnforcedOptions((uint32,uint16,bytes)[])":"b98bd070","setMsgInspector(address)":"6fc1b31e","setPaused(bool)":"16c38b3c","setPeer(uint32,bytes32)":"3400288b","setPreCrime(address)":"d4243885","setRedeemValues(uint256)":"af4aff77","shareT()":"ae334602","shareU()":"d453a560","sharedDecimals()":"857749b0","supportsInterface(bytes4)":"01ffc9a7","symbol()":"95d89b41","toggleAutoRewarder()":"a55b3d4d","token()":"fc0c546a","totalSupply()":"18160ddd","transfer(address,uint256)":"a9059cbb","transferFrom(address,address,uint256)":"23b872dd","transferOwnership(address)":"f2fde38b","underlying()":"6f307dc3","wtg()":"c5283ef2"},"id":65}