{"abi":[{"type":"function","name":"DENOM","inputs":[],"outputs":[{"name":"","type":"uint256","internalType":"uint256"}],"stateMutability":"view"},{"type":"function","name":"OPERATIONS","inputs":[],"outputs":[{"name":"","type":"address","internalType":"address"}],"stateMutability":"view"},{"type":"function","name":"aToken","inputs":[],"outputs":[{"name":"","type":"address","internalType":"contract IAToken"}],"stateMutability":"view"},{"type":"function","name":"aavePool","inputs":[],"outputs":[{"name":"","type":"address","internalType":"contract IPool"}],"stateMutability":"view"},{"type":"function","name":"autoRewarder","inputs":[],"outputs":[{"name":"","type":"bool","internalType":"bool"}],"stateMutability":"view"},{"type":"function","name":"changeRecipient","inputs":[{"name":"_ir","type":"address","internalType":"address"}],"outputs":[],"stateMutability":"nonpayable"},{"type":"function","name":"changeShares","inputs":[{"name":"_shareU","type":"uint256","internalType":"uint256"},{"name":"_shareT","type":"uint256","internalType":"uint256"}],"outputs":[],"stateMutability":"nonpayable"},{"type":"function","name":"incentivesRecipient","inputs":[],"outputs":[{"name":"","type":"address","internalType":"contract IRewarder"}],"stateMutability":"view"},{"type":"function","name":"init","inputs":[{"name":"_aToken","type":"address","internalType":"address"},{"name":"_incentivesRecipient","type":"address","internalType":"address"},{"name":"_gateway","type":"address","internalType":"address"},{"name":"_aavePool","type":"address","internalType":"address"}],"outputs":[],"stateMutability":"nonpayable"},{"type":"function","name":"shareT","inputs":[],"outputs":[{"name":"","type":"uint256","internalType":"uint256"}],"stateMutability":"view"},{"type":"function","name":"shareU","inputs":[],"outputs":[{"name":"","type":"uint256","internalType":"uint256"}],"stateMutability":"view"},{"type":"function","name":"toggleAutoRewarder","inputs":[],"outputs":[],"stateMutability":"nonpayable"},{"type":"function","name":"underlying","inputs":[],"outputs":[{"name":"","type":"address","internalType":"contract IERC20"}],"stateMutability":"view"},{"type":"function","name":"wtg","inputs":[],"outputs":[{"name":"","type":"address","internalType":"contract IWrappedTokenGatewayV3"}],"stateMutability":"view"}],"bytecode":{"object":"0x6080806040523460305761138860055561138860065561010061ff001960075416176007556105f190816100368239f35b600080fdfe6080604052600436101561001257600080fd5b60003560e01c806306552ff31461036957806309bca7a11461034657806315ac86f31461031d57806316343da4146103005780636f307dc3146102d757806392c2bcb41461027d578063a03e4bc314610254578063a0c1f15e1461022b578063a55b3d4d146101e3578063ae334602146101c5578063c5283ef21461019c578063cf0eed3814610108578063d453a560146100ea5763fd4e36ec146100b657600080fd5b346100e55760003660031901126100e557602060405173bfc57b070b1eda0fcb9c203edc1085c626f3a36d8152f35b600080fd5b346100e55760003660031901126100e5576020600554604051908152f35b346100e55760403660031901126100e55760043561013b73bfc57b070b1eda0fcb9c203edc1085c626f3a36d3314610580565b808001808211610186576127100361015857602435600655600555005b60405162461bcd60e51b81526020600482015260066024820152652164656e6f6d60d01b6044820152606490fd5b634e487b7160e01b600052601160045260246000fd5b346100e55760003660031901126100e5576002546040516001600160a01b039091168152602090f35b346100e55760003660031901126100e5576020600654604051908152f35b346100e55760003660031901126100e55761021373bfc57b070b1eda0fcb9c203edc1085c626f3a36d3314610580565b60075460ff80821615169060ff191617600755600080f35b346100e55760003660031901126100e5576003546040516001600160a01b039091168152602090f35b346100e55760003660031901126100e5576004546040516001600160a01b039091168152602090f35b346100e55760203660031901126100e55761029661056a565b6102b573bfc57b070b1eda0fcb9c203edc1085c626f3a36d3314610580565b600180546001600160a01b0319166001600160a01b0392909216919091179055005b346100e55760003660031901126100e5576000546040516001600160a01b039091168152602090f35b346100e55760003660031901126100e55760206040516127108152f35b346100e55760003660031901126100e5576001546040516001600160a01b039091168152602090f35b346100e55760003660031901126100e557602060ff600754166040519015158152f35b346100e55760803660031901126100e55761038261056a565b6024356001600160a01b038116908190036100e5576044356001600160a01b03811692908390036100e5576064356001600160a01b03811691908290036100e5576103e273bfc57b070b1eda0fcb9c203edc1085c626f3a36d3314610580565b6007549360ff8560081c1693600185036105375760049360209360018060a01b031692836001600160601b0360a01b60035416176003556001600160601b0360a01b60025416176002556001600160601b0360a01b85541617845560ff1986166007556001600160601b0360a01b6001541617600155604051928380926358b50cef60e11b82525afa90811561052b576000916104b8575b5060018060a01b03166001600160601b0360a01b600054161760005560ff811461018657600161ff00910160081b169061ffff191617600755600080f35b60203d602011610524575b601f8101601f1916820167ffffffffffffffff8111838210176105105760209183916040528101031261050c5751906001600160a01b038216820361050957508361047a565b80fd5b5080fd5b634e487b7160e01b84526041600452602484fd5b503d6104c3565b6040513d6000823e3d90fd5b60405162461bcd60e51b815260206004820152600b60248201526a1a5b9a5d1a585b1a5e995960aa1b6044820152606490fd5b600435906001600160a01b03821682036100e557565b1561058757565b60405162461bcd60e51b815260206004820152600c60248201526b1d5b985d5d1a1bdc9a5e995960a21b6044820152606490fdfea264697066735822122071d0a17c31624f4a5b77f93ca838461d463faf4952a4cd72104f5b2ad901492b64736f6c634300081a0033","linkReferences":{}},"methodIdentifiers":{"DENOM()":"16343da4","OPERATIONS()":"fd4e36ec","aToken()":"a0c1f15e","aavePool()":"a03e4bc3","autoRewarder()":"09bca7a1","changeRecipient(address)":"92c2bcb4","changeShares(uint256,uint256)":"cf0eed38","incentivesRecipient()":"15ac86f3","init(address,address,address,address)":"06552ff3","shareT()":"ae334602","shareU()":"d453a560","toggleAutoRewarder()":"a55b3d4d","underlying()":"6f307dc3","wtg()":"c5283ef2"},"id":59}