{"abi":[{"type":"function","name":"DENOM","inputs":[],"outputs":[{"name":"","type":"uint256","internalType":"uint256"}],"stateMutability":"view"},{"type":"function","name":"OPERATIONS","inputs":[],"outputs":[{"name":"","type":"address","internalType":"address"}],"stateMutability":"view"},{"type":"function","name":"aToken","inputs":[],"outputs":[{"name":"","type":"address","internalType":"contract IAToken"}],"stateMutability":"view"},{"type":"function","name":"changeRecipient","inputs":[{"name":"_ir","type":"address","internalType":"address"}],"outputs":[],"stateMutability":"nonpayable"},{"type":"function","name":"changeShares","inputs":[{"name":"_shareU","type":"uint256","internalType":"uint256"},{"name":"_shareT","type":"uint256","internalType":"uint256"}],"outputs":[],"stateMutability":"nonpayable"},{"type":"function","name":"incentivesRecipient","inputs":[],"outputs":[{"name":"","type":"address","internalType":"contract IRewarder"}],"stateMutability":"view"},{"type":"function","name":"init","inputs":[{"name":"_aToken","type":"address","internalType":"address"},{"name":"_incentivesRecipient","type":"address","internalType":"address"},{"name":"_gateway","type":"address","internalType":"address"}],"outputs":[],"stateMutability":"nonpayable"},{"type":"function","name":"shareT","inputs":[],"outputs":[{"name":"","type":"uint256","internalType":"uint256"}],"stateMutability":"view"},{"type":"function","name":"shareU","inputs":[],"outputs":[{"name":"","type":"uint256","internalType":"uint256"}],"stateMutability":"view"},{"type":"function","name":"underlying","inputs":[],"outputs":[{"name":"","type":"address","internalType":"contract IERC20"}],"stateMutability":"view"},{"type":"function","name":"wtg","inputs":[],"outputs":[{"name":"","type":"address","internalType":"contract IWrappedTokenGatewayV3"}],"stateMutability":"view"}],"bytecode":{"object":"0x60808060405234602e57611388600455611388600555600160ff19600654161760065561050390816100348239f35b600080fdfe608080604052600436101561001357600080fd5b60003560e01c90816315ac86f3146104585750806316343da41461043b578063184b9559146102715780636f307dc31461024857806392c2bcb4146101ee578063a0c1f15e146101c5578063ae334602146101a7578063c5283ef21461017e578063cf0eed38146100ea578063d453a560146100cc5763fd4e36ec1461009857600080fd5b346100c75760003660031901126100c757602060405173bfc57b070b1eda0fcb9c203edc1085c626f3a36d8152f35b600080fd5b346100c75760003660031901126100c7576020600454604051908152f35b346100c75760403660031901126100c75760043561011d73bfc57b070b1eda0fcb9c203edc1085c626f3a36d3314610492565b808001808211610168576127100361013a57602435600555600455005b60405162461bcd60e51b81526020600482015260066024820152652164656e6f6d60d01b6044820152606490fd5b634e487b7160e01b600052601160045260246000fd5b346100c75760003660031901126100c7576002546040516001600160a01b039091168152602090f35b346100c75760003660031901126100c7576020600554604051908152f35b346100c75760003660031901126100c7576003546040516001600160a01b039091168152602090f35b346100c75760203660031901126100c75761020761047c565b61022673bfc57b070b1eda0fcb9c203edc1085c626f3a36d3314610492565b600180546001600160a01b0319166001600160a01b0392909216919091179055005b346100c75760003660031901126100c7576000546040516001600160a01b039091168152602090f35b346100c75760603660031901126100c75761028a61047c565b6024356001600160a01b038116908190036100c7576044356001600160a01b03811691908290036100c7576102d473bfc57b070b1eda0fcb9c203edc1085c626f3a36d3314610492565b6006549260ff841692600184036104085760049260209260018060a01b031691826001600160601b0360a01b60035416176003556001600160601b0360a01b60025416176002556001600160601b0360a01b6001541617600155604051928380926358b50cef60e11b82525afa9081156103fc57600091610389575b5060018060a01b03166001600160601b0360a01b600054161760005560ff811461016857600160ff9101169060ff191617600655600080f35b60203d6020116103f5575b601f8101601f1916820167ffffffffffffffff8111838210176103e1576020918391604052810103126103dd5751906001600160a01b03821682036103da575083610350565b80fd5b5080fd5b634e487b7160e01b84526041600452602484fd5b503d610394565b6040513d6000823e3d90fd5b60405162461bcd60e51b815260206004820152600b60248201526a1a5b9a5d1a585b1a5e995960aa1b6044820152606490fd5b346100c75760003660031901126100c75760206040516127108152f35b346100c75760003660031901126100c7576001546001600160a01b03168152602090f35b600435906001600160a01b03821682036100c757565b1561049957565b60405162461bcd60e51b815260206004820152600c60248201526b1d5b985d5d1a1bdc9a5e995960a21b6044820152606490fdfea2646970667358221220fefa4229ac5151d2f4dfd10783f869ca447e138ff1f18b4a37e2218b8bcc557164736f6c634300081a0033","linkReferences":{}},"methodIdentifiers":{"DENOM()":"16343da4","OPERATIONS()":"fd4e36ec","aToken()":"a0c1f15e","changeRecipient(address)":"92c2bcb4","changeShares(uint256,uint256)":"cf0eed38","incentivesRecipient()":"15ac86f3","init(address,address,address)":"184b9559","shareT()":"ae334602","shareU()":"d453a560","underlying()":"6f307dc3","wtg()":"c5283ef2"},"id":59}