{"abi":[{"type":"constructor","inputs":[{"name":"_endpoint","type":"address","internalType":"address"}],"stateMutability":"nonpayable"},{"type":"fallback","stateMutability":"payable"},{"type":"receive","stateMutability":"payable"},{"type":"function","name":"DEFAULT_ADMIN_ROLE","inputs":[],"outputs":[{"name":"","type":"bytes32","internalType":"bytes32"}],"stateMutability":"view"},{"type":"function","name":"MINTER_ROLE","inputs":[],"outputs":[{"name":"","type":"bytes32","internalType":"bytes32"}],"stateMutability":"view"},{"type":"function","name":"OPERATIONS","inputs":[],"outputs":[{"name":"","type":"address","internalType":"address"}],"stateMutability":"view"},{"type":"function","name":"SEND","inputs":[],"outputs":[{"name":"","type":"uint16","internalType":"uint16"}],"stateMutability":"view"},{"type":"function","name":"SEND_AND_CALL","inputs":[],"outputs":[{"name":"","type":"uint16","internalType":"uint16"}],"stateMutability":"view"},{"type":"function","name":"allowInitializePath","inputs":[{"name":"origin","type":"tuple","internalType":"struct Origin","components":[{"name":"srcEid","type":"uint32","internalType":"uint32"},{"name":"sender","type":"bytes32","internalType":"bytes32"},{"name":"nonce","type":"uint64","internalType":"uint64"}]}],"outputs":[{"name":"","type":"bool","internalType":"bool"}],"stateMutability":"view"},{"type":"function","name":"allowance","inputs":[{"name":"owner","type":"address","internalType":"address"},{"name":"spender","type":"address","internalType":"address"}],"outputs":[{"name":"","type":"uint256","internalType":"uint256"}],"stateMutability":"view"},{"type":"function","name":"approvalRequired","inputs":[],"outputs":[{"name":"","type":"bool","internalType":"bool"}],"stateMutability":"pure"},{"type":"function","name":"approve","inputs":[{"name":"spender","type":"address","internalType":"address"},{"name":"value","type":"uint256","internalType":"uint256"}],"outputs":[{"name":"","type":"bool","internalType":"bool"}],"stateMutability":"nonpayable"},{"type":"function","name":"balanceOf","inputs":[{"name":"account","type":"address","internalType":"address"}],"outputs":[{"name":"","type":"uint256","internalType":"uint256"}],"stateMutability":"view"},{"type":"function","name":"combineOptions","inputs":[{"name":"_eid","type":"uint32","internalType":"uint32"},{"name":"_msgType","type":"uint16","internalType":"uint16"},{"name":"_extraOptions","type":"bytes","internalType":"bytes"}],"outputs":[{"name":"","type":"bytes","internalType":"bytes"}],"stateMutability":"view"},{"type":"function","name":"decimalConversionRate","inputs":[],"outputs":[{"name":"","type":"uint256","internalType":"uint256"}],"stateMutability":"view"},{"type":"function","name":"decimals","inputs":[],"outputs":[{"name":"","type":"uint8","internalType":"uint8"}],"stateMutability":"pure"},{"type":"function","name":"endpoint","inputs":[],"outputs":[{"name":"","type":"address","internalType":"contract ILayerZeroEndpointV2"}],"stateMutability":"view"},{"type":"function","name":"enforcedOptions","inputs":[{"name":"eid","type":"uint32","internalType":"uint32"},{"name":"msgType","type":"uint16","internalType":"uint16"}],"outputs":[{"name":"enforcedOption","type":"bytes","internalType":"bytes"}],"stateMutability":"view"},{"type":"function","name":"getRoleAdmin","inputs":[{"name":"role","type":"bytes32","internalType":"bytes32"}],"outputs":[{"name":"","type":"bytes32","internalType":"bytes32"}],"stateMutability":"view"},{"type":"function","name":"grantRole","inputs":[{"name":"role","type":"bytes32","internalType":"bytes32"},{"name":"account","type":"address","internalType":"address"}],"outputs":[],"stateMutability":"nonpayable"},{"type":"function","name":"hasRole","inputs":[{"name":"role","type":"bytes32","internalType":"bytes32"},{"name":"account","type":"address","internalType":"address"}],"outputs":[{"name":"","type":"bool","internalType":"bool"}],"stateMutability":"view"},{"type":"function","name":"isComposeMsgSender","inputs":[{"name":"","type":"tuple","internalType":"struct Origin","components":[{"name":"srcEid","type":"uint32","internalType":"uint32"},{"name":"sender","type":"bytes32","internalType":"bytes32"},{"name":"nonce","type":"uint64","internalType":"uint64"}]},{"name":"","type":"bytes","internalType":"bytes"},{"name":"_sender","type":"address","internalType":"address"}],"outputs":[{"name":"","type":"bool","internalType":"bool"}],"stateMutability":"view"},{"type":"function","name":"isPeer","inputs":[{"name":"_eid","type":"uint32","internalType":"uint32"},{"name":"_peer","type":"bytes32","internalType":"bytes32"}],"outputs":[{"name":"","type":"bool","internalType":"bool"}],"stateMutability":"view"},{"type":"function","name":"lzReceive","inputs":[{"name":"_origin","type":"tuple","internalType":"struct Origin","components":[{"name":"srcEid","type":"uint32","internalType":"uint32"},{"name":"sender","type":"bytes32","internalType":"bytes32"},{"name":"nonce","type":"uint64","internalType":"uint64"}]},{"name":"_guid","type":"bytes32","internalType":"bytes32"},{"name":"_message","type":"bytes","internalType":"bytes"},{"name":"_executor","type":"address","internalType":"address"},{"name":"_extraData","type":"bytes","internalType":"bytes"}],"outputs":[],"stateMutability":"payable"},{"type":"function","name":"lzReceiveAndRevert","inputs":[{"name":"_packets","type":"tuple[]","internalType":"struct InboundPacket[]","components":[{"name":"origin","type":"tuple","internalType":"struct Origin","components":[{"name":"srcEid","type":"uint32","internalType":"uint32"},{"name":"sender","type":"bytes32","internalType":"bytes32"},{"name":"nonce","type":"uint64","internalType":"uint64"}]},{"name":"dstEid","type":"uint32","internalType":"uint32"},{"name":"receiver","type":"address","internalType":"address"},{"name":"guid","type":"bytes32","internalType":"bytes32"},{"name":"value","type":"uint256","internalType":"uint256"},{"name":"executor","type":"address","internalType":"address"},{"name":"message","type":"bytes","internalType":"bytes"},{"name":"extraData","type":"bytes","internalType":"bytes"}]}],"outputs":[],"stateMutability":"payable"},{"type":"function","name":"lzReceiveSimulate","inputs":[{"name":"_origin","type":"tuple","internalType":"struct Origin","components":[{"name":"srcEid","type":"uint32","internalType":"uint32"},{"name":"sender","type":"bytes32","internalType":"bytes32"},{"name":"nonce","type":"uint64","internalType":"uint64"}]},{"name":"_guid","type":"bytes32","internalType":"bytes32"},{"name":"_message","type":"bytes","internalType":"bytes"},{"name":"_executor","type":"address","internalType":"address"},{"name":"_extraData","type":"bytes","internalType":"bytes"}],"outputs":[],"stateMutability":"payable"},{"type":"function","name":"mint","inputs":[{"name":"_dst","type":"address","internalType":"address"},{"name":"_amt","type":"uint256","internalType":"uint256"}],"outputs":[],"stateMutability":"nonpayable"},{"type":"function","name":"msgInspector","inputs":[],"outputs":[{"name":"","type":"address","internalType":"address"}],"stateMutability":"view"},{"type":"function","name":"name","inputs":[],"outputs":[{"name":"","type":"string","internalType":"string"}],"stateMutability":"view"},{"type":"function","name":"nextNonce","inputs":[{"name":"","type":"uint32","internalType":"uint32"},{"name":"","type":"bytes32","internalType":"bytes32"}],"outputs":[{"name":"nonce","type":"uint64","internalType":"uint64"}],"stateMutability":"view"},{"type":"function","name":"oApp","inputs":[],"outputs":[{"name":"","type":"address","internalType":"address"}],"stateMutability":"view"},{"type":"function","name":"oAppVersion","inputs":[],"outputs":[{"name":"senderVersion","type":"uint64","internalType":"uint64"},{"name":"receiverVersion","type":"uint64","internalType":"uint64"}],"stateMutability":"pure"},{"type":"function","name":"oftVersion","inputs":[],"outputs":[{"name":"interfaceId","type":"bytes4","internalType":"bytes4"},{"name":"version","type":"uint64","internalType":"uint64"}],"stateMutability":"pure"},{"type":"function","name":"owner","inputs":[],"outputs":[{"name":"","type":"address","internalType":"address"}],"stateMutability":"view"},{"type":"function","name":"peers","inputs":[{"name":"eid","type":"uint32","internalType":"uint32"}],"outputs":[{"name":"peer","type":"bytes32","internalType":"bytes32"}],"stateMutability":"view"},{"type":"function","name":"preCrime","inputs":[],"outputs":[{"name":"","type":"address","internalType":"address"}],"stateMutability":"view"},{"type":"function","name":"quoteOFT","inputs":[{"name":"_sendParam","type":"tuple","internalType":"struct SendParam","components":[{"name":"dstEid","type":"uint32","internalType":"uint32"},{"name":"to","type":"bytes32","internalType":"bytes32"},{"name":"amountLD","type":"uint256","internalType":"uint256"},{"name":"minAmountLD","type":"uint256","internalType":"uint256"},{"name":"extraOptions","type":"bytes","internalType":"bytes"},{"name":"composeMsg","type":"bytes","internalType":"bytes"},{"name":"oftCmd","type":"bytes","internalType":"bytes"}]}],"outputs":[{"name":"oftLimit","type":"tuple","internalType":"struct OFTLimit","components":[{"name":"minAmountLD","type":"uint256","internalType":"uint256"},{"name":"maxAmountLD","type":"uint256","internalType":"uint256"}]},{"name":"oftFeeDetails","type":"tuple[]","internalType":"struct OFTFeeDetail[]","components":[{"name":"feeAmountLD","type":"int256","internalType":"int256"},{"name":"description","type":"string","internalType":"string"}]},{"name":"oftReceipt","type":"tuple","internalType":"struct OFTReceipt","components":[{"name":"amountSentLD","type":"uint256","internalType":"uint256"},{"name":"amountReceivedLD","type":"uint256","internalType":"uint256"}]}],"stateMutability":"view"},{"type":"function","name":"quoteSend","inputs":[{"name":"_sendParam","type":"tuple","internalType":"struct SendParam","components":[{"name":"dstEid","type":"uint32","internalType":"uint32"},{"name":"to","type":"bytes32","internalType":"bytes32"},{"name":"amountLD","type":"uint256","internalType":"uint256"},{"name":"minAmountLD","type":"uint256","internalType":"uint256"},{"name":"extraOptions","type":"bytes","internalType":"bytes"},{"name":"composeMsg","type":"bytes","internalType":"bytes"},{"name":"oftCmd","type":"bytes","internalType":"bytes"}]},{"name":"_payInLzToken","type":"bool","internalType":"bool"}],"outputs":[{"name":"msgFee","type":"tuple","internalType":"struct MessagingFee","components":[{"name":"nativeFee","type":"uint256","internalType":"uint256"},{"name":"lzTokenFee","type":"uint256","internalType":"uint256"}]}],"stateMutability":"view"},{"type":"function","name":"renounceOwnership","inputs":[],"outputs":[],"stateMutability":"nonpayable"},{"type":"function","name":"renounceRole","inputs":[{"name":"role","type":"bytes32","internalType":"bytes32"},{"name":"callerConfirmation","type":"address","internalType":"address"}],"outputs":[],"stateMutability":"nonpayable"},{"type":"function","name":"revokeRole","inputs":[{"name":"role","type":"bytes32","internalType":"bytes32"},{"name":"account","type":"address","internalType":"address"}],"outputs":[],"stateMutability":"nonpayable"},{"type":"function","name":"send","inputs":[{"name":"_sendParam","type":"tuple","internalType":"struct SendParam","components":[{"name":"dstEid","type":"uint32","internalType":"uint32"},{"name":"to","type":"bytes32","internalType":"bytes32"},{"name":"amountLD","type":"uint256","internalType":"uint256"},{"name":"minAmountLD","type":"uint256","internalType":"uint256"},{"name":"extraOptions","type":"bytes","internalType":"bytes"},{"name":"composeMsg","type":"bytes","internalType":"bytes"},{"name":"oftCmd","type":"bytes","internalType":"bytes"}]},{"name":"_fee","type":"tuple","internalType":"struct MessagingFee","components":[{"name":"nativeFee","type":"uint256","internalType":"uint256"},{"name":"lzTokenFee","type":"uint256","internalType":"uint256"}]},{"name":"_refundAddress","type":"address","internalType":"address"}],"outputs":[{"name":"msgReceipt","type":"tuple","internalType":"struct MessagingReceipt","components":[{"name":"guid","type":"bytes32","internalType":"bytes32"},{"name":"nonce","type":"uint64","internalType":"uint64"},{"name":"fee","type":"tuple","internalType":"struct MessagingFee","components":[{"name":"nativeFee","type":"uint256","internalType":"uint256"},{"name":"lzTokenFee","type":"uint256","internalType":"uint256"}]}]},{"name":"oftReceipt","type":"tuple","internalType":"struct OFTReceipt","components":[{"name":"amountSentLD","type":"uint256","internalType":"uint256"},{"name":"amountReceivedLD","type":"uint256","internalType":"uint256"}]}],"stateMutability":"payable"},{"type":"function","name":"setDelegate","inputs":[{"name":"_delegate","type":"address","internalType":"address"}],"outputs":[],"stateMutability":"nonpayable"},{"type":"function","name":"setEnforcedOptions","inputs":[{"name":"_enforcedOptions","type":"tuple[]","internalType":"struct EnforcedOptionParam[]","components":[{"name":"eid","type":"uint32","internalType":"uint32"},{"name":"msgType","type":"uint16","internalType":"uint16"},{"name":"options","type":"bytes","internalType":"bytes"}]}],"outputs":[],"stateMutability":"nonpayable"},{"type":"function","name":"setMsgInspector","inputs":[{"name":"_msgInspector","type":"address","internalType":"address"}],"outputs":[],"stateMutability":"nonpayable"},{"type":"function","name":"setPeer","inputs":[{"name":"_eid","type":"uint32","internalType":"uint32"},{"name":"_peer","type":"bytes32","internalType":"bytes32"}],"outputs":[],"stateMutability":"nonpayable"},{"type":"function","name":"setPreCrime","inputs":[{"name":"_preCrime","type":"address","internalType":"address"}],"outputs":[],"stateMutability":"nonpayable"},{"type":"function","name":"sharedDecimals","inputs":[],"outputs":[{"name":"","type":"uint8","internalType":"uint8"}],"stateMutability":"view"},{"type":"function","name":"supportsInterface","inputs":[{"name":"interfaceId","type":"bytes4","internalType":"bytes4"}],"outputs":[{"name":"","type":"bool","internalType":"bool"}],"stateMutability":"view"},{"type":"function","name":"symbol","inputs":[],"outputs":[{"name":"","type":"string","internalType":"string"}],"stateMutability":"view"},{"type":"function","name":"token","inputs":[],"outputs":[{"name":"","type":"address","internalType":"address"}],"stateMutability":"view"},{"type":"function","name":"totalSupply","inputs":[],"outputs":[{"name":"","type":"uint256","internalType":"uint256"}],"stateMutability":"view"},{"type":"function","name":"transfer","inputs":[{"name":"to","type":"address","internalType":"address"},{"name":"value","type":"uint256","internalType":"uint256"}],"outputs":[{"name":"","type":"bool","internalType":"bool"}],"stateMutability":"nonpayable"},{"type":"function","name":"transferFrom","inputs":[{"name":"from","type":"address","internalType":"address"},{"name":"to","type":"address","internalType":"address"},{"name":"value","type":"uint256","internalType":"uint256"}],"outputs":[{"name":"","type":"bool","internalType":"bool"}],"stateMutability":"nonpayable"},{"type":"function","name":"transferOwnership","inputs":[{"name":"newOwner","type":"address","internalType":"address"}],"outputs":[],"stateMutability":"nonpayable"},{"type":"event","name":"Approval","inputs":[{"name":"owner","type":"address","indexed":true,"internalType":"address"},{"name":"spender","type":"address","indexed":true,"internalType":"address"},{"name":"value","type":"uint256","indexed":false,"internalType":"uint256"}],"anonymous":false},{"type":"event","name":"EnforcedOptionSet","inputs":[{"name":"_enforcedOptions","type":"tuple[]","indexed":false,"internalType":"struct EnforcedOptionParam[]","components":[{"name":"eid","type":"uint32","internalType":"uint32"},{"name":"msgType","type":"uint16","internalType":"uint16"},{"name":"options","type":"bytes","internalType":"bytes"}]}],"anonymous":false},{"type":"event","name":"MsgInspectorSet","inputs":[{"name":"inspector","type":"address","indexed":false,"internalType":"address"}],"anonymous":false},{"type":"event","name":"OFTReceived","inputs":[{"name":"guid","type":"bytes32","indexed":true,"internalType":"bytes32"},{"name":"srcEid","type":"uint32","indexed":false,"internalType":"uint32"},{"name":"toAddress","type":"address","indexed":true,"internalType":"address"},{"name":"amountReceivedLD","type":"uint256","indexed":false,"internalType":"uint256"}],"anonymous":false},{"type":"event","name":"OFTSent","inputs":[{"name":"guid","type":"bytes32","indexed":true,"internalType":"bytes32"},{"name":"dstEid","type":"uint32","indexed":false,"internalType":"uint32"},{"name":"fromAddress","type":"address","indexed":true,"internalType":"address"},{"name":"amountSentLD","type":"uint256","indexed":false,"internalType":"uint256"},{"name":"amountReceivedLD","type":"uint256","indexed":false,"internalType":"uint256"}],"anonymous":false},{"type":"event","name":"OwnershipTransferred","inputs":[{"name":"previousOwner","type":"address","indexed":true,"internalType":"address"},{"name":"newOwner","type":"address","indexed":true,"internalType":"address"}],"anonymous":false},{"type":"event","name":"PeerSet","inputs":[{"name":"eid","type":"uint32","indexed":false,"internalType":"uint32"},{"name":"peer","type":"bytes32","indexed":false,"internalType":"bytes32"}],"anonymous":false},{"type":"event","name":"PreCrimeSet","inputs":[{"name":"preCrimeAddress","type":"address","indexed":false,"internalType":"address"}],"anonymous":false},{"type":"event","name":"RoleAdminChanged","inputs":[{"name":"role","type":"bytes32","indexed":true,"internalType":"bytes32"},{"name":"previousAdminRole","type":"bytes32","indexed":true,"internalType":"bytes32"},{"name":"newAdminRole","type":"bytes32","indexed":true,"internalType":"bytes32"}],"anonymous":false},{"type":"event","name":"RoleGranted","inputs":[{"name":"role","type":"bytes32","indexed":true,"internalType":"bytes32"},{"name":"account","type":"address","indexed":true,"internalType":"address"},{"name":"sender","type":"address","indexed":true,"internalType":"address"}],"anonymous":false},{"type":"event","name":"RoleRevoked","inputs":[{"name":"role","type":"bytes32","indexed":true,"internalType":"bytes32"},{"name":"account","type":"address","indexed":true,"internalType":"address"},{"name":"sender","type":"address","indexed":true,"internalType":"address"}],"anonymous":false},{"type":"event","name":"Transfer","inputs":[{"name":"from","type":"address","indexed":true,"internalType":"address"},{"name":"to","type":"address","indexed":true,"internalType":"address"},{"name":"value","type":"uint256","indexed":false,"internalType":"uint256"}],"anonymous":false},{"type":"error","name":"AccessControlBadConfirmation","inputs":[]},{"type":"error","name":"AccessControlUnauthorizedAccount","inputs":[{"name":"account","type":"address","internalType":"address"},{"name":"neededRole","type":"bytes32","internalType":"bytes32"}]},{"type":"error","name":"AddressEmptyCode","inputs":[{"name":"target","type":"address","internalType":"address"}]},{"type":"error","name":"AddressInsufficientBalance","inputs":[{"name":"account","type":"address","internalType":"address"}]},{"type":"error","name":"ERC20InsufficientAllowance","inputs":[{"name":"spender","type":"address","internalType":"address"},{"name":"allowance","type":"uint256","internalType":"uint256"},{"name":"needed","type":"uint256","internalType":"uint256"}]},{"type":"error","name":"ERC20InsufficientBalance","inputs":[{"name":"sender","type":"address","internalType":"address"},{"name":"balance","type":"uint256","internalType":"uint256"},{"name":"needed","type":"uint256","internalType":"uint256"}]},{"type":"error","name":"ERC20InvalidApprover","inputs":[{"name":"approver","type":"address","internalType":"address"}]},{"type":"error","name":"ERC20InvalidReceiver","inputs":[{"name":"receiver","type":"address","internalType":"address"}]},{"type":"error","name":"ERC20InvalidSender","inputs":[{"name":"sender","type":"address","internalType":"address"}]},{"type":"error","name":"ERC20InvalidSpender","inputs":[{"name":"spender","type":"address","internalType":"address"}]},{"type":"error","name":"FailedInnerCall","inputs":[]},{"type":"error","name":"FailedOnSend","inputs":[]},{"type":"error","name":"FallbackFailed","inputs":[]},{"type":"error","name":"InvalidDelegate","inputs":[]},{"type":"error","name":"InvalidEndpointCall","inputs":[]},{"type":"error","name":"InvalidLocalDecimals","inputs":[]},{"type":"error","name":"InvalidOptions","inputs":[{"name":"options","type":"bytes","internalType":"bytes"}]},{"type":"error","name":"LzTokenUnavailable","inputs":[]},{"type":"error","name":"NoPeer","inputs":[{"name":"eid","type":"uint32","internalType":"uint32"}]},{"type":"error","name":"NotEnoughNative","inputs":[{"name":"msgValue","type":"uint256","internalType":"uint256"}]},{"type":"error","name":"OnlyEndpoint","inputs":[{"name":"addr","type":"address","internalType":"address"}]},{"type":"error","name":"OnlyPeer","inputs":[{"name":"eid","type":"uint32","internalType":"uint32"},{"name":"sender","type":"bytes32","internalType":"bytes32"}]},{"type":"error","name":"OnlySelf","inputs":[]},{"type":"error","name":"OwnableInvalidOwner","inputs":[{"name":"owner","type":"address","internalType":"address"}]},{"type":"error","name":"OwnableUnauthorizedAccount","inputs":[{"name":"account","type":"address","internalType":"address"}]},{"type":"error","name":"SafeERC20FailedOperation","inputs":[{"name":"token","type":"address","internalType":"address"}]},{"type":"error","name":"SimulationResult","inputs":[{"name":"result","type":"bytes","internalType":"bytes"}]},{"type":"error","name":"SlippageExceeded","inputs":[{"name":"amountLD","type":"uint256","internalType":"uint256"},{"name":"minAmountLD","type":"uint256","internalType":"uint256"}]}],"bytecode":{"object":"0x60c08060405234610467576000906020816136e48038038091610022828561046c565b83398101031261046357516001600160a01b03811690819003610463576100476104a5565b916100506104a5565b815473bfc57b070b1eda0fcb9c203edc1085c626f3a36d6001600160a01b03198216811784556040519294916001600160a01b03167f8be0079c531659141344cd1fd0a4f28419497f9722a3daafe3b4186f6b6457e08580a380608052803b1561045f578160248185809463ca5eb5e160e01b835273bfc57b070b1eda0fcb9c203edc1085c626f3a36d60048401525af18015610454578290610444575b505064e8d4a5100060a05282516001600160401b03811161043057600854600181811c91168015610426575b602082101461041257601f81116103af575b506020601f821160011461034c57829394829392610341575b50508160011b916000199060031b1c1916176008555b8151906001600160401b03821161032d57600954600181811c91168015610323575b602082101461030f57601f81116102ac575b50602090601f831160011461024b57919283610240575b50508160011b916000199060031b1c1916176009555b6101c46104d4565b506101ce3361057a565b506101d8336105f6565b50604051612fd5908161068f82396080518181816108430152818161096301528181610e35015281816111b801528181611a4b01528181612a180152612d8f015260a051818181610d85015281816114cd01528181612113015281816124830152612b4f0152f35b0151905038806101a6565b90601f1983169360098352818320925b8581106102945750836001951061027b575b505050811b016009556101bc565b015160001960f88460031b161c1916905538808061026d565b9192602060018192868501518155019401920161025b565b600982527f6e1540171b6c0c960b71a7020d9f60077f6af931a8bbf590da0223dacf75c7af601f840160051c81019160208510610305575b601f0160051c01905b8181106102fa575061018f565b8281556001016102ed565b90915081906102e4565b634e487b7160e01b82526022600452602482fd5b90607f169061017d565b634e487b7160e01b81526041600452602490fd5b015190503880610145565b6008835280832090601f198316845b8181106103975750958360019596971061037e575b505050811b0160085561015b565b015160001960f88460031b161c19169055388080610370565b9192602060018192868b01518155019401920161035b565b600883527ff3f7a9fe364faab93b216da50a3214154f22a0a2b415b23a84c8169e8b636ee3601f830160051c81019160208410610408575b601f0160051c01905b8181106103fd575061012c565b8381556001016103f0565b90915081906103e7565b634e487b7160e01b83526022600452602483fd5b90607f169061011a565b634e487b7160e01b82526041600452602482fd5b61044d9161046c565b38816100ee565b6040513d84823e3d90fd5b8280fd5b5080fd5b600080fd5b601f909101601f19168101906001600160401b0382119082101761048f57604052565b634e487b7160e01b600052604160045260246000fd5b60408051919082016001600160401b0381118382101761048f57604052600382526212539560ea1b6020830152565b73bfc57b070b1eda0fcb9c203edc1085c626f3a36d6000526000805160206136c48339815191526020526000805160206136848339815191525460ff166105755773bfc57b070b1eda0fcb9c203edc1085c626f3a36d60008181526000805160206136c4833981519152602052600080516020613684833981519152805460ff191660011790553391906000805160206136648339815191528180a4600190565b600090565b6001600160a01b03811660009081526000805160206136c4833981519152602052604090205460ff166105f0576001600160a01b031660008181526000805160206136c483398151915260205260408120805460ff191660011790553391906000805160206136648339815191528180a4600190565b50600090565b6001600160a01b03811660009081526000805160206136a4833981519152602052604090205460ff166105f0576001600160a01b031660008181526000805160206136a483398151915260205260408120805460ff191660011790553391907f9f2df0fed2c77648de5860a4cc508cd0818c85b8b8a1ab4ceeef8d981c8956a6906000805160206136648339815191529080a460019056fe60806040526004361015610018575b366120f9576120e8565b60003560e01c806301ffc9a71461034e57806306fdde0314610349578063095ea7b3146103445780630d35b4151461033f578063111ecdad1461033a57806313137d6514610335578063134d4f2514610330578063156a0d0f1461032b57806317442b701461032657806318160ddd146103215780631f5e13341461031c57806323b872dd14610317578063248a9ca3146103125780632f2ff15d1461030d578063313ce567146103085780633400288b1461030357806336568abe146102fe5780633b6f743b146102f957806340c10f19146102f457806352ae2879146102635780635535d461146102ef5780635a0dfe4d146102ea5780635e280f11146102e55780636fc1b31e146102e057806370a08231146102db578063715018a6146102d65780637d25a05e146102d157806382413eac146102cc578063857749b0146102c75780638da5cb5b146102c257806391d14854146102bd57806395d89b41146102b8578063963efcaa146102b35780639f68b964146102ae578063a217fddf146102ae578063a9059cbb146102a9578063b731ea0a146102a4578063b98bd0701461029f578063bb0b6a531461029a578063bc70b35414610295578063bd815db014610290578063c7c7f5b31461028b578063ca5eb5e114610286578063d045a0dc14610281578063d42438851461027c578063d539139314610277578063d547741f14610272578063dd62ed3e1461026d578063f2fde38b14610268578063fc0c546a14610263578063fd4e36ec1461025e5763ff7bd03d0361000e57611d06565b611cd7565b610f71565b611c4a565b611be7565b611ba4565b611b69565b611af9565b611ac6565b611a21565b6118e3565b611736565b6116e2565b6116a7565b6115c4565b611541565b61150c565b6114f0565b6114b5565b61140d565b6113b7565b61138e565b611372565b611314565b6112ed565b611294565b611257565b6111e7565b6111a2565b61115a565b6110db565b610ed7565b610d21565b610ccd565b610c46565b610c1c565b610bd2565b610b9d565b610af2565b610ad6565b610ab8565b610a96565b610a6f565b610a53565b610830565b610759565b610674565b6104fe565b610410565b346103a45760203660031901126103a45760043563ffffffff60e01b81168091036103a457602090637965db0b60e01b8114908115610393575b506040519015158152f35b6301ffc9a760e01b14905038610388565b600080fd5b60009103126103a457565b60005b8381106103c75750506000910152565b81810151838201526020016103b7565b906020916103f0815180928185528580860191016103b4565b601f01601f1916010190565b90602061040d9281815201906103d7565b90565b346103a45760003660031901126103a457604051600060085461043281610fac565b80845290600181169081156104c9575060011461046a575b6104668361045a818503826110ba565b604051918291826103fc565b0390f35b600860009081527ff3f7a9fe364faab93b216da50a3214154f22a0a2b415b23a84c8169e8b636ee3939250905b8082106104af5750909150810160200161045a61044a565b919260018160209254838588010152019101909291610497565b60ff191660208086019190915291151560051b8401909101915061045a905061044a565b6001600160a01b038116036103a457565b346103a45760403660031901126103a45760043561051b816104ed565b60243533156105af576001600160a01b0382169182156105995761055f829133600052600660205260406000209060018060a01b0316600052602052604060002090565b5560405190815233907f8c5be1e5ebec7d5bd14f71427d1e84f3dd0314c0f7b2291e5b200ac8c7c3b92590602090a3602060405160018152f35b634a1406b160e11b600052600060045260246000fd5b63e602df0560e01b600052600060045260246000fd5b908160e09103126103a45790565b939291906105ef8560a081019260208091805184520151910152565b60a06040860152815180915260c0850190602060c08260051b8801019301916000905b82821061063857505050509060606106369294019060208091805184520151910152565b565b9091929360208061066660019360bf198c82030186526040838a5180518452015191818582015201906103d7565b960192019201909291610612565b346103a45760203660031901126103a4576004356001600160401b0381116103a4576106a49036906004016105c5565b6106ac611d6b565b506106b5611d6b565b506040516106c28161107f565b600081526001600160401b0360208201526020604051926106e382856110ba565b60008452601f19820160005b81811061073557505090610719610466926040810135610713606083013592611d9b565b5061210a565b9091610723611d4d565b928352820152604051938493846105d3565b83906040516107438161107f565b60008152606083820152828289010152016106ef565b346103a45760003660031901126103a4576004546040516001600160a01b039091168152602090f35b60609060031901126103a457600490565b9181601f840112156103a4578235916001600160401b0383116103a457602083818601950101116103a457565b600319810160e081126103a45760606000911261082d575060049182606435926084356001600160401b0381116103a457816107fd918401610793565b9390939260a43561080d816104ed565b9260c4356001600160401b0381116103a4576108299201610793565b9091565b80fd5b610839366107c0565b50919492915050337f00000000000000000000000000000000000000000000000000000000000000006001600160a01b031603610a3e57813561087b81610c38565b6108848161215e565b906020840135809203610a175750506108ac6108a08583612b1f565b6001600160a01b031690565b936108d26108c26108bd8385612b2b565b612b41565b6108cb85611d9b565b5086612b75565b916108dd8260281090565b610935575b505061090e7fefed6d3500546b29533b128a29e3a94d70788727f0507505ac12eaf2e578fd9c92611d9b565b6040805163ffffffff92909216825260208201929092526001600160a01b039490941693a3005b90826109609261095a61094a60408801612192565b9361095488611d9b565b92612b99565b92612bbc565b917f00000000000000000000000000000000000000000000000000000000000000006001600160a01b0316803b156103a457604051633e5ac80960e11b81529360009185918290849082906109ba908b8d6004850161219c565b03925af1908115610a12577fefed6d3500546b29533b128a29e3a94d70788727f0507505ac12eaf2e578fd9c9361090e926109f7575b50926108e2565b80610a066000610a0c936110ba565b806103a9565b386109f0565b61202e565b80610a2663ffffffff92610c38565b63309afaf360e21b6000521660045260245260446000fd5b6391ac5e4f60e01b6000523360045260246000fd5b346103a45760003660031901126103a457602060405160028152f35b346103a45760003660031901126103a4576040805162b9270b60e21b815260016020820152f35b346103a45760003660031901126103a457604080516001815260026020820152f35b346103a45760003660031901126103a4576020600754604051908152f35b346103a45760003660031901126103a457602060405160018152f35b346103a45760603660031901126103a457600435610b0f816104ed565b602435610b1b816104ed565b6001600160a01b038216600090815260066020908152604080832033845290915290205491604435919060018401610b64575b610b5893506121c7565b60405160018152602090f35b828410610b8057610b7b83610b5895033383612a8c565b610b4e565b8284637dc7a0d960e11b6000523360045260245260445260646000fd5b346103a45760203660031901126103a4576020610bca600435600052600a60205260016040600020015490565b604051908152f35b346103a45760403660031901126103a457610c1a602435600435610bf5826104ed565b610c15610c1082600052600a60205260016040600020015490565b6122ad565b6122ea565b005b346103a45760003660031901126103a457602060405160128152f35b63ffffffff8116036103a457565b346103a45760403660031901126103a4577f238399d427b947898edb290f5ff0f9109849b1c3ba196a42e35f00c50a54b98b600435610c8481610c38565b60243590610c9061237e565b63ffffffff8116600052600160205281604060002055610cc8604051928392836020909392919363ffffffff60408201951681520152565b0390a1005b346103a45760403660031901126103a457600435602435610ced816104ed565b336001600160a01b03821603610d0657610c1a916123a7565b63334bd91960e11b60005260046000fd5b801515036103a457565b346103a45760403660031901126103a4576004356001600160401b0381116103a457610d519036906004016105c5565b602435610d5d81610d17565b610d65611d6b565b50813591606081013590610db06040820135610d8086610c38565b610dab7f00000000000000000000000000000000000000000000000000000000000000008092612aec565b612b0c565b91808310610ebf57610e31604086610e1687610dcc888861246c565b90610dd685610c38565b610dde611d6b565b50610de88561215e565b610dff610df3611d5c565b63ffffffff9097168752565b602086015285850152606084015215156080830152565b815180938192631bb8518b60e31b83523090600484016125c8565b03817f00000000000000000000000000000000000000000000000000000000000000006001600160a01b03165afa8015610a125761046691600091610e90575b5060405191829182815181526020918201519181019190915260400190565b610eb2915060403d604011610eb8575b610eaa81836110ba565b8101906125b4565b82610e71565b503d610ea0565b826371c4efed60e01b60005260045260245260446000fd5b346103a45760403660031901126103a457600435610ef4816104ed565b3360009081527faa1d7351356c4ddc11907b1ee0660f579cfdf507235af2ae01ecd22a4b7ceaae60205260409020546024359060ff1615610f3857610c1a91612636565b63e2517d3f60e01b600052336004527f9f2df0fed2c77648de5860a4cc508cd0818c85b8b8a1ab4ceeef8d981c8956a660245260446000fd5b346103a45760003660031901126103a4576020604051308152f35b6024359061ffff821682036103a457565b359061ffff821682036103a457565b90600182811c92168015610fdc575b6020831014610fc657565b634e487b7160e01b600052602260045260246000fd5b91607f1691610fbb565b60009291815491610ff683610fac565b808352926001811690811561104c575060011461101257505050565b60009081526020812093945091925b838310611032575060209250010190565b600181602092949394548385870101520191019190611021565b915050602093945060ff929192191683830152151560051b010190565b634e487b7160e01b600052604160045260246000fd5b604081019081106001600160401b0382111761109a57604052565b611069565b606081019081106001600160401b0382111761109a57604052565b90601f801991011681019081106001600160401b0382111761109a57604052565b346103a45760403660031901126103a45761046661113f61114661113360043561110481610c38565b63ffffffff611111610f8c565b9116600052600360205260406000209061ffff16600052602052604060002090565b60405192838092610fe6565b03826110ba565b6040519182916020835260208301906103d7565b346103a45760403660031901126103a457602061119860043561117c81610c38565b6024359063ffffffff1660005260016020526040600020541490565b6040519015158152f35b346103a45760003660031901126103a4576040517f00000000000000000000000000000000000000000000000000000000000000006001600160a01b03168152602090f35b346103a45760203660031901126103a4577ff0be4f1e87349231d80c36b33f9e8639658eeaf474014dee15a3e6a4d44141976020600435611227816104ed565b61122f61237e565b600480546001600160a01b0319166001600160a01b03929092169182179055604051908152a1005b346103a45760203660031901126103a457600435611274816104ed565b60018060a01b031660005260056020526020604060002054604051908152f35b346103a45760003660031901126103a4576112ad61237e565b600080546001600160a01b0319811682556001600160a01b03167f8be0079c531659141344cd1fd0a4f28419497f9722a3daafe3b4186f6b6457e08280a3005b346103a45760403660031901126103a457611309600435610c38565b602060405160008152f35b346103a45760a03660031901126103a45761132e36610782565b506064356001600160401b0381116103a45761134e903690600401610793565b5050602060843561135e816104ed565b6040516001600160a01b0390911630148152f35b346103a45760003660031901126103a457602060405160068152f35b346103a45760003660031901126103a4576000546040516001600160a01b039091168152602090f35b346103a45760403660031901126103a457602060ff6114016024356004356113de826104ed565b600052600a845260406000209060018060a01b0316600052602052604060002090565b54166040519015158152f35b346103a45760003660031901126103a457604051600060095461142f81610fac565b80845290600181169081156104c95750600114611456576104668361045a818503826110ba565b600960009081527f6e1540171b6c0c960b71a7020d9f60077f6af931a8bbf590da0223dacf75c7af939250905b80821061149b5750909150810160200161045a61044a565b919260018160209254838588010152019101909291611483565b346103a45760003660031901126103a45760206040517f00000000000000000000000000000000000000000000000000000000000000008152f35b346103a45760003660031901126103a457602060405160008152f35b346103a45760403660031901126103a45761153660043561152c816104ed565b60243590336121c7565b602060405160018152f35b346103a45760003660031901126103a4576002546040516001600160a01b039091168152602090f35b9060206003198301126103a4576004356001600160401b0381116103a45760040160009280601f830112156115c0578135936001600160401b03851161082d57506020808301928560051b0101116103a4579190565b8380fd5b346103a4576115d23661156a565b906115db61237e565b6115e482611d84565b906115f260405192836110ba565b828252602082019260051b8101903682116103a45780935b82851061161a57610c1a8461285a565b84356001600160401b0381116103a4578201906060823603126103a457604051916116448361109f565b803561164f81610c38565b835261165d60208201610f9d565b60208401526040810135906001600160401b0382116103a457019036601f830112156103a457602092611697849336908581359101611dc0565b604082015281520194019361160a565b346103a45760203660031901126103a45763ffffffff6004356116c981610c38565b1660005260016020526020604060002054604051908152f35b346103a45760603660031901126103a4576004356116ff81610c38565b611707610f8c565b604435906001600160401b0382116103a4576104669261172e611146933690600401610793565b929091611e83565b61173f3661156a565b60005b8181106117b257604051638e9e709960e01b8152600081600481335afa8015610a125761178b9160009161178f575b50604051638351eea760e01b8152918291600483016103fc565b0390fd5b6117ac91503d806000833e6117a481836110ba565b81019061203a565b82611771565b6117bd818385611f3f565b906117ef6117eb6117cd84611d9b565b60208501359063ffffffff1660005260016020526040600020541490565b1590565b6118895760c08201359160a081013561180c610100830183611f67565b94909161181b60e08501611f99565b9361182a610120820182611f67565b959095303b156103a457600096611858926040519a8b9889978897633411683760e21b895260048901611fb4565b0391305af1918215610a1257600192611874575b505b01611742565b80610a066000611883936110ba565b3861186c565b6001915061186e565b9160806106369294936118d2604060c0830197805184526001600160401b0360208201511660208501520151604083019060208091805184520151910152565b019060208091805184520151910152565b60803660031901126103a4576004356001600160401b0381116103a45761190e9036906004016105c5565b60403660231901126103a457606435611926816104ed565b61192e612098565b50611937611d6b565b506060820135906119506040840135610d808535610c38565b91808310610ebf57503315611a0b576119909061196d8333612c1a565b611977838561246c565b61198086611d9b565b9161198a366120c0565b9261299b565b90611999611d4d565b928184528160208501527f85496b760a4b7f8d66384b9df21b381f5d1b1e79f229a47aaf4c232edc2fe59a6119f96119d2855193611d9b565b936040519181839233978460409194939263ffffffff606083019616825260208201520152565b0390a361046660405192839283611892565b634b637e8f60e11b600052600060045260246000fd5b346103a4576000602036600319011261082d5780600435611a41816104ed565b611a4961237e565b7f00000000000000000000000000000000000000000000000000000000000000006001600160a01b0316803b15611ac25760405163ca5eb5e160e01b81526001600160a01b0390921660048301529091908290602490829084905af18015610a12578290611ab45780f35b611abd916110ba565b388180f35b5050fd5b611acf366107c0565b5050509290303303611ae8576108ac6108a08583612b1f565b63029a949d60e31b60005260046000fd5b346103a45760203660031901126103a4577fd48d879cef83a1c0bdda516f27b13ddb1b3f8bbac1c9e1511bb2a659c24277606020600435611b39816104ed565b611b4161237e565b600280546001600160a01b0319166001600160a01b03929092169182179055604051908152a1005b346103a45760003660031901126103a45760206040517f9f2df0fed2c77648de5860a4cc508cd0818c85b8b8a1ab4ceeef8d981c8956a68152f35b346103a45760403660031901126103a457610c1a602435600435611bc7826104ed565b611be2610c1082600052600a60205260016040600020015490565b6123a7565b346103a45760403660031901126103a4576020611c41600435611c09816104ed565b60243590611c16826104ed565b60018060a01b03166000526006835260406000209060018060a01b0316600052602052604060002090565b54604051908152f35b346103a45760203660031901126103a457600435611c67816104ed565b611c6f61237e565b6001600160a01b03168015611cc157600080546001600160a01b03198116831782556001600160a01b0316907f8be0079c531659141344cd1fd0a4f28419497f9722a3daafe3b4186f6b6457e09080a3005b631e4fbdf760e01b600052600060045260246000fd5b346103a45760003660031901126103a457602060405173bfc57b070b1eda0fcb9c203edc1085c626f3a36d8152f35b346103a45760603660031901126103a4576020611d2236610782565b63ffffffff8135611d3281610c38565b16600052600182528160406000205491013560405191148152f35b604051906106366040836110ba565b6040519061063660a0836110ba565b60405190611d788261107f565b60006020838281520152565b6001600160401b03811161109a5760051b60200190565b3561040d81610c38565b6001600160401b03811161109a57601f01601f191660200190565b929192611dcc82611da5565b91611dda60405193846110ba565b8294818452818301116103a4578281602093846000960137010152565b90929192836002116103a45783116103a457600201916001190190565b602083610636939594956040519684611e36899651809287808a0191016103b4565b8501918483013701016000815203601f1981018452836110ba565b908060209392818452848401376000828201840152601f01601f1916010190565b91602061040d938181520191611e51565b61113361113f9263ffffffff611eb8939795969716600052600360205260406000209061ffff16600052602052604060002090565b805115611f1b578315611f15576002841015611eec57505061178b604051928392639a6d49cd60e01b845260048401611e72565b909280611f0f9161040d94611f0a611f05368484611dc0565b612921565b611df7565b91611e14565b92509050565b50919061040d913691611dc0565b634e487b7160e01b600052603260045260246000fd5b9190811015611f625760051b8101359061013e19813603018212156103a4570190565b611f29565b903590601e19813603018212156103a457018035906001600160401b0382116103a4576020019181360383136103a457565b3561040d816104ed565b6001600160401b038116036103a457565b929093612010926001600160401b03604061040d9a98999763ffffffff8135611fdc81610c38565b168852602081013560208901520135611ff481611fa3565b166040860152606085015260e0608085015260e0840191611e51565b6001600160a01b0390941660a082015280840360c090910152611e51565b6040513d6000823e3d90fd5b6020818303126103a4578051906001600160401b0382116103a4570181601f820112156103a457805161206c81611da5565b9261207a60405194856110ba565b818452602082840101116103a45761040d91602080850191016103b4565b604051906120a58261109f565b81600081526000602082015260406120bb611d6b565b910152565b60409060231901126103a457604051906120d98261107f565b60243582526044356020830152565b6363c091ab60e01b60005260046000fd5b632214e02d60e01b60005260046000fd5b61213990610dab7f00000000000000000000000000000000000000000000000000000000000000008092612aec565b9182918084106121465750565b836371c4efed60e01b60005260045260245260446000fd5b63ffffffff1680600052600160205260406000205490811561217e575090565b63f6ff4fb760e01b60005260045260246000fd5b3561040d81611fa3565b61040d939260809260018060a01b0316825260208201526000604082015281606082015201906103d7565b90916001600160a01b038216918215611a0b576001600160a01b038416938415612297576001600160a01b038216600090815260056020526040812090929054848110612271579161225e9161224386600080516020612f80833981519152979695039160018060a01b03166000526005602052604060002090565b556001600160a01b0316600090815260056020526040902090565b80548301905550604051908152602090a3565b63391434e360e21b84526001600160a01b03909116600452602452506044829052606490fd5b63ec442f0560e01b600052600060045260246000fd5b6000818152600a6020908152604080832033845290915290205460ff16156122d25750565b63e2517d3f60e01b6000523360045260245260446000fd5b6000818152600a602090815260408083206001600160a01b038616845290915290205460ff16612377576000818152600a602090815260408083206001600160a01b03861684529091529020805460ff1916600117905533916001600160a01b0316907f2f8788117e7eff1d82e926ec794901d17c78024a50270940304540a733656f0d600080a4600190565b5050600090565b6000546001600160a01b0316330361239257565b63118cdaa760e01b6000523360045260246000fd5b6000818152600a602090815260408083206001600160a01b038616845290915290205460ff1615612377576000818152600a602090815260408083206001600160a01b03861684529091529020805460ff1916905533916001600160a01b0316907ff6391f5c32d9c69d2a47ea670b442974b53935d1edc7fd64eb21e047a839171b600080a4600190565b908160209103126103a4575161040d81610d17565b909161245e61040d936040845260408401906103d7565b9160208184039101526103d7565b90916124d16124f8936124b46124a86020860135927f000000000000000000000000000000000000000000000000000000000000000090612aec565b6001600160401b031690565b6124cb6124c460a0870187611f67565b3691611dc0565b91612ce4565b9390928394600014612584576002905b61172e6124ed82611d9b565b916080810190611f67565b6004549092906001600160a01b0316838161251257505050565b6125489260209261252b906001600160a01b03166108a0565b9060405180958194829363043a78eb60e01b845260048401612447565b03915afa8015610a12576125595750565b61257a9060203d60201161257d575b61257281836110ba565b810190612432565b50565b503d612568565b6001906124e1565b91908260409103126103a4576040516125a48161107f565b6020808294805184520151910152565b906040828203126103a45761040d9161258c565b906020909392936040835263ffffffff8151166040840152818101516060840152608061261c612606604084015160a08488015260e08701906103d7565b6060840151868203603f190160a08801526103d7565b910151151560c08401526001600160a01b03909416910152565b6001600160a01b0381169190821561229757600754908282018092116126995760009261268a602092600080516020612f808339815191529460075560018060a01b03166000526005602052604060002090565b818154019055604051908152a3565b612ad6565b8051821015611f625760209160051b010190565b601f82116126bf57505050565b6000526020600020906020601f840160051c830193106126fa575b601f0160051c01905b8181106126ee575050565b600081556001016126e3565b90915081906126da565b91909182516001600160401b03811161109a5761272b816127258454610fac565b846126b2565b6020601f821160011461276c57819061275d939495600092612761575b50508160011b916000199060031b1c19161790565b9055565b015190503880612748565b601f1982169061278184600052602060002090565b9160005b8181106127bd575095836001959697106127a4575b505050811b019055565b015160001960f88460031b161c1916905538808061279a565b9192602060018192868b015181550194019201612785565b602081016020825282518091526040820191602060408360051b8301019401926000915b83831061280857505050505090565b909192939460208061284b600193603f19868203018752606060408b5163ffffffff815116845261ffff86820151168685015201519181604082015201906103d7565b970193019301919392906127f9565b60005b81518110156128ea578061288060406128786001948661269e565b510151612921565b6128e4604061288f838661269e565b51015163ffffffff6128a1848761269e565b51511660005260036020526128df60406000206128cd60206128c3878a61269e565b51015161ffff1690565b61ffff16600052602052604060002090565b612704565b0161285d565b5061291c7fbe4864a8e820971c0247f5992e2da559595f7bf076a21cb5928d443d2a13b67491604051918291826127d5565b0390a1565b600361ffff600283015116036129345750565b604051639a6d49cd60e01b81526020600482015290819061178b9060248301906103d7565b906080828203126103a4576129939060408051936129768561109f565b80518552602081015161298881611fa3565b60208601520161258c565b604082015290565b6129f860809492612a1496946129af612098565b5060206129bc8651612d61565b950191825180612a7d575b506129d18561215e565b92511515926129e1610df3611d5c565b602086015260408501526060840152151585830152565b6040518095819482936302637a4560e41b8452600484016125c8565b03917f00000000000000000000000000000000000000000000000000000000000000006001600160a01b03165af1908115610a1257600091612a54575090565b61040d915060803d608011612a76575b612a6e81836110ba565b810190612959565b503d612a64565b612a8690612d80565b386129c7565b6001600160a01b03169081156105af576001600160a01b0381161561059957612ad391600052600660205260406000209060018060a01b0316600052602052604060002090565b55565b634e487b7160e01b600052601160045260246000fd5b8115612af6570490565b634e487b7160e01b600052601260045260246000fd5b8181029291811591840414171561269957565b906020116103a4573590565b9060009060281161082d57506020013560c01c90565b61040d906001600160401b037f00000000000000000000000000000000000000000000000000000000000000009116612b0c565b816001600160a01b03821615612b8f575b61040d91612636565b61dead9150612b86565b9190600092816028116115c05791925061040d9136916027190190602801611dc0565b604c919361040d936040519586936001600160401b0360c01b9060c01b16602085015263ffffffff60e01b9060e01b166028840152602c830152612c0981518092602086860191016103b4565b81010301601f1981018352826110ba565b6001600160a01b038116919082612c6657509060075482810180911161269957600092600080516020612f80833981519152916007555b600780548290039055604051908152602090a3565b6001600160a01b038116600090815260056020526040902054828110612cbf5791600080516020612f8083398151915291612cb98260009695039160018060a01b03166000526005602052604060002090565b55612c51565b63391434e360e21b6000526001600160a01b0390911660045260245260445260646000fd5b82511580159390612d3257612d2f9160689160405194859260208401526001600160401b0360c01b9060c01b166040830152336048830152612c0981518092602086860191016103b4565b91565b50906040519160208301526001600160401b0360c01b9060c01b16604082015260288152612d2f6048826110ba565b803403612d6b5790565b6304fb820960e51b6000523460045260246000fd5b60405163393f876560e21b81527f00000000000000000000000000000000000000000000000000000000000000006001600160a01b03169190602081600481865afa908115610a1257600091612dfe575b506001600160a01b0316918215612ded57610636923390612e39565b6329b99a9560e11b60005260046000fd5b90506020813d602011612e31575b81612e19602093836110ba565b810103126103a45751612e2b816104ed565b38612dd1565b3d9150612e0c565b6040516323b872dd60e01b602082019081526001600160a01b03938416602483015293909216604483015260648083019490945292815291612ec591600091829190612e866084876110ba565b60018060a01b031694519082865af13d15612f16573d90612ea682611da5565b91612eb460405193846110ba565b82523d6000602084013e5b83612f1e565b8051908115159182612ef8575b5050612edb5750565b635274afe760e01b6000526001600160a01b031660045260246000fd5b612f0f9250906020806117eb938301019101612432565b3880612ed2565b606090612ebf565b90612f445750805115612f3357805190602001fd5b630a12f52160e11b60005260046000fd5b81511580612f76575b612f55575090565b639996b31560e01b60009081526001600160a01b0391909116600452602490fd5b50803b15612f4d56feddf252ad1be2c89b69c2b068fc378daa952ba7f163c4a11628f55a4df523b3efa26469706673582212207e926e978cf4b4934114c5e9b22edd4fa3af8ff2010cb3249624501143ff5c8364736f6c634300081a00332f8788117e7eff1d82e926ec794901d17c78024a50270940304540a733656f0d6098f29d1f6aa27be29332f9655d270d7a5ac647ec9d1c81b8ae9b629fe1a58faa1d7351356c4ddc11907b1ee0660f579cfdf507235af2ae01ecd22a4b7ceaae13da86008ba1c6922daee3e07db95305ef49ebced9f5467a0b8613fcc6b343e3","linkReferences":{}},"methodIdentifiers":{"DEFAULT_ADMIN_ROLE()":"a217fddf","MINTER_ROLE()":"d5391393","OPERATIONS()":"fd4e36ec","SEND()":"1f5e1334","SEND_AND_CALL()":"134d4f25","allowInitializePath((uint32,bytes32,uint64))":"ff7bd03d","allowance(address,address)":"dd62ed3e","approvalRequired()":"9f68b964","approve(address,uint256)":"095ea7b3","balanceOf(address)":"70a08231","combineOptions(uint32,uint16,bytes)":"bc70b354","decimalConversionRate()":"963efcaa","decimals()":"313ce567","endpoint()":"5e280f11","enforcedOptions(uint32,uint16)":"5535d461","getRoleAdmin(bytes32)":"248a9ca3","grantRole(bytes32,address)":"2f2ff15d","hasRole(bytes32,address)":"91d14854","isComposeMsgSender((uint32,bytes32,uint64),bytes,address)":"82413eac","isPeer(uint32,bytes32)":"5a0dfe4d","lzReceive((uint32,bytes32,uint64),bytes32,bytes,address,bytes)":"13137d65","lzReceiveAndRevert(((uint32,bytes32,uint64),uint32,address,bytes32,uint256,address,bytes,bytes)[])":"bd815db0","lzReceiveSimulate((uint32,bytes32,uint64),bytes32,bytes,address,bytes)":"d045a0dc","mint(address,uint256)":"40c10f19","msgInspector()":"111ecdad","name()":"06fdde03","nextNonce(uint32,bytes32)":"7d25a05e","oApp()":"52ae2879","oAppVersion()":"17442b70","oftVersion()":"156a0d0f","owner()":"8da5cb5b","peers(uint32)":"bb0b6a53","preCrime()":"b731ea0a","quoteOFT((uint32,bytes32,uint256,uint256,bytes,bytes,bytes))":"0d35b415","quoteSend((uint32,bytes32,uint256,uint256,bytes,bytes,bytes),bool)":"3b6f743b","renounceOwnership()":"715018a6","renounceRole(bytes32,address)":"36568abe","revokeRole(bytes32,address)":"d547741f","send((uint32,bytes32,uint256,uint256,bytes,bytes,bytes),(uint256,uint256),address)":"c7c7f5b3","setDelegate(address)":"ca5eb5e1","setEnforcedOptions((uint32,uint16,bytes)[])":"b98bd070","setMsgInspector(address)":"6fc1b31e","setPeer(uint32,bytes32)":"3400288b","setPreCrime(address)":"d4243885","sharedDecimals()":"857749b0","supportsInterface(bytes4)":"01ffc9a7","symbol()":"95d89b41","token()":"fc0c546a","totalSupply()":"18160ddd","transfer(address,uint256)":"a9059cbb","transferFrom(address,address,uint256)":"23b872dd","transferOwnership(address)":"f2fde38b"},"id":62}