{"abi":[{"type":"constructor","inputs":[{"name":"_endpoint","type":"address","internalType":"address"},{"name":"_weth","type":"address","internalType":"address"}],"stateMutability":"nonpayable"},{"type":"receive","stateMutability":"payable"},{"type":"function","name":"DEFAULT_ADMIN_ROLE","inputs":[],"outputs":[{"name":"","type":"bytes32","internalType":"bytes32"}],"stateMutability":"view"},{"type":"function","name":"DENOM","inputs":[],"outputs":[{"name":"","type":"uint256","internalType":"uint256"}],"stateMutability":"view"},{"type":"function","name":"MINTER_ROLE","inputs":[],"outputs":[{"name":"","type":"bytes32","internalType":"bytes32"}],"stateMutability":"view"},{"type":"function","name":"OPERATIONS","inputs":[],"outputs":[{"name":"","type":"address","internalType":"address"}],"stateMutability":"view"},{"type":"function","name":"OPERATOR_ROLE","inputs":[],"outputs":[{"name":"","type":"bytes32","internalType":"bytes32"}],"stateMutability":"view"},{"type":"function","name":"SEND","inputs":[],"outputs":[{"name":"","type":"uint16","internalType":"uint16"}],"stateMutability":"view"},{"type":"function","name":"SEND_AND_CALL","inputs":[],"outputs":[{"name":"","type":"uint16","internalType":"uint16"}],"stateMutability":"view"},{"type":"function","name":"WETH","inputs":[],"outputs":[{"name":"","type":"address","internalType":"contract IWETH"}],"stateMutability":"view"},{"type":"function","name":"aToken","inputs":[],"outputs":[{"name":"","type":"address","internalType":"contract IAToken"}],"stateMutability":"view"},{"type":"function","name":"aavePool","inputs":[],"outputs":[{"name":"","type":"address","internalType":"contract IPool"}],"stateMutability":"view"},{"type":"function","name":"allowInitializePath","inputs":[{"name":"origin","type":"tuple","internalType":"struct Origin","components":[{"name":"srcEid","type":"uint32","internalType":"uint32"},{"name":"sender","type":"bytes32","internalType":"bytes32"},{"name":"nonce","type":"uint64","internalType":"uint64"}]}],"outputs":[{"name":"","type":"bool","internalType":"bool"}],"stateMutability":"view"},{"type":"function","name":"allowance","inputs":[{"name":"owner","type":"address","internalType":"address"},{"name":"spender","type":"address","internalType":"address"}],"outputs":[{"name":"","type":"uint256","internalType":"uint256"}],"stateMutability":"view"},{"type":"function","name":"approvalRequired","inputs":[],"outputs":[{"name":"","type":"bool","internalType":"bool"}],"stateMutability":"pure"},{"type":"function","name":"approve","inputs":[{"name":"spender","type":"address","internalType":"address"},{"name":"value","type":"uint256","internalType":"uint256"}],"outputs":[{"name":"","type":"bool","internalType":"bool"}],"stateMutability":"nonpayable"},{"type":"function","name":"autoRewarder","inputs":[],"outputs":[{"name":"","type":"bool","internalType":"bool"}],"stateMutability":"view"},{"type":"function","name":"balanceOf","inputs":[{"name":"account","type":"address","internalType":"address"}],"outputs":[{"name":"","type":"uint256","internalType":"uint256"}],"stateMutability":"view"},{"type":"function","name":"changeRecipient","inputs":[{"name":"_ir","type":"address","internalType":"address"}],"outputs":[],"stateMutability":"nonpayable"},{"type":"function","name":"changeShares","inputs":[{"name":"_shareU","type":"uint256","internalType":"uint256"},{"name":"_shareT","type":"uint256","internalType":"uint256"}],"outputs":[],"stateMutability":"nonpayable"},{"type":"function","name":"combineOptions","inputs":[{"name":"_eid","type":"uint32","internalType":"uint32"},{"name":"_msgType","type":"uint16","internalType":"uint16"},{"name":"_extraOptions","type":"bytes","internalType":"bytes"}],"outputs":[{"name":"","type":"bytes","internalType":"bytes"}],"stateMutability":"view"},{"type":"function","name":"decimalConversionRate","inputs":[],"outputs":[{"name":"","type":"uint256","internalType":"uint256"}],"stateMutability":"view"},{"type":"function","name":"decimals","inputs":[],"outputs":[{"name":"","type":"uint8","internalType":"uint8"}],"stateMutability":"pure"},{"type":"function","name":"endpoint","inputs":[],"outputs":[{"name":"","type":"address","internalType":"contract ILayerZeroEndpointV2"}],"stateMutability":"view"},{"type":"function","name":"enforcedOptions","inputs":[{"name":"eid","type":"uint32","internalType":"uint32"},{"name":"msgType","type":"uint16","internalType":"uint16"}],"outputs":[{"name":"enforcedOption","type":"bytes","internalType":"bytes"}],"stateMutability":"view"},{"type":"function","name":"ercWETH","inputs":[],"outputs":[{"name":"","type":"address","internalType":"contract IERC20"}],"stateMutability":"view"},{"type":"function","name":"execute","inputs":[{"name":"_x","type":"address","internalType":"address"},{"name":"_data","type":"bytes","internalType":"bytes"}],"outputs":[],"stateMutability":"nonpayable"},{"type":"function","name":"getRoleAdmin","inputs":[{"name":"role","type":"bytes32","internalType":"bytes32"}],"outputs":[{"name":"","type":"bytes32","internalType":"bytes32"}],"stateMutability":"view"},{"type":"function","name":"grantRole","inputs":[{"name":"role","type":"bytes32","internalType":"bytes32"},{"name":"account","type":"address","internalType":"address"}],"outputs":[],"stateMutability":"nonpayable"},{"type":"function","name":"hasRole","inputs":[{"name":"role","type":"bytes32","internalType":"bytes32"},{"name":"account","type":"address","internalType":"address"}],"outputs":[{"name":"","type":"bool","internalType":"bool"}],"stateMutability":"view"},{"type":"function","name":"incentivesRecipient","inputs":[],"outputs":[{"name":"","type":"address","internalType":"contract IRewarder"}],"stateMutability":"view"},{"type":"function","name":"init","inputs":[{"name":"_aToken","type":"address","internalType":"address"},{"name":"_incentivesRecipient","type":"address","internalType":"address"},{"name":"_gateway","type":"address","internalType":"address"},{"name":"_aavePool","type":"address","internalType":"address"}],"outputs":[],"stateMutability":"nonpayable"},{"type":"function","name":"isComposeMsgSender","inputs":[{"name":"","type":"tuple","internalType":"struct Origin","components":[{"name":"srcEid","type":"uint32","internalType":"uint32"},{"name":"sender","type":"bytes32","internalType":"bytes32"},{"name":"nonce","type":"uint64","internalType":"uint64"}]},{"name":"","type":"bytes","internalType":"bytes"},{"name":"_sender","type":"address","internalType":"address"}],"outputs":[{"name":"","type":"bool","internalType":"bool"}],"stateMutability":"view"},{"type":"function","name":"isPeer","inputs":[{"name":"_eid","type":"uint32","internalType":"uint32"},{"name":"_peer","type":"bytes32","internalType":"bytes32"}],"outputs":[{"name":"","type":"bool","internalType":"bool"}],"stateMutability":"view"},{"type":"function","name":"lzReceive","inputs":[{"name":"_origin","type":"tuple","internalType":"struct Origin","components":[{"name":"srcEid","type":"uint32","internalType":"uint32"},{"name":"sender","type":"bytes32","internalType":"bytes32"},{"name":"nonce","type":"uint64","internalType":"uint64"}]},{"name":"_guid","type":"bytes32","internalType":"bytes32"},{"name":"_message","type":"bytes","internalType":"bytes"},{"name":"_executor","type":"address","internalType":"address"},{"name":"_extraData","type":"bytes","internalType":"bytes"}],"outputs":[],"stateMutability":"payable"},{"type":"function","name":"lzReceiveAndRevert","inputs":[{"name":"_packets","type":"tuple[]","internalType":"struct InboundPacket[]","components":[{"name":"origin","type":"tuple","internalType":"struct Origin","components":[{"name":"srcEid","type":"uint32","internalType":"uint32"},{"name":"sender","type":"bytes32","internalType":"bytes32"},{"name":"nonce","type":"uint64","internalType":"uint64"}]},{"name":"dstEid","type":"uint32","internalType":"uint32"},{"name":"receiver","type":"address","internalType":"address"},{"name":"guid","type":"bytes32","internalType":"bytes32"},{"name":"value","type":"uint256","internalType":"uint256"},{"name":"executor","type":"address","internalType":"address"},{"name":"message","type":"bytes","internalType":"bytes"},{"name":"extraData","type":"bytes","internalType":"bytes"}]}],"outputs":[],"stateMutability":"payable"},{"type":"function","name":"lzReceiveSimulate","inputs":[{"name":"_origin","type":"tuple","internalType":"struct Origin","components":[{"name":"srcEid","type":"uint32","internalType":"uint32"},{"name":"sender","type":"bytes32","internalType":"bytes32"},{"name":"nonce","type":"uint64","internalType":"uint64"}]},{"name":"_guid","type":"bytes32","internalType":"bytes32"},{"name":"_message","type":"bytes","internalType":"bytes"},{"name":"_executor","type":"address","internalType":"address"},{"name":"_extraData","type":"bytes","internalType":"bytes"}],"outputs":[],"stateMutability":"payable"},{"type":"function","name":"mint","inputs":[{"name":"_amount","type":"uint256","internalType":"uint256"}],"outputs":[],"stateMutability":"nonpayable"},{"type":"function","name":"msgInspector","inputs":[],"outputs":[{"name":"","type":"address","internalType":"address"}],"stateMutability":"view"},{"type":"function","name":"name","inputs":[],"outputs":[{"name":"","type":"string","internalType":"string"}],"stateMutability":"view"},{"type":"function","name":"nativeMint","inputs":[],"outputs":[],"stateMutability":"payable"},{"type":"function","name":"nextNonce","inputs":[{"name":"","type":"uint32","internalType":"uint32"},{"name":"","type":"bytes32","internalType":"bytes32"}],"outputs":[{"name":"nonce","type":"uint64","internalType":"uint64"}],"stateMutability":"view"},{"type":"function","name":"oApp","inputs":[],"outputs":[{"name":"","type":"address","internalType":"address"}],"stateMutability":"view"},{"type":"function","name":"oAppVersion","inputs":[],"outputs":[{"name":"senderVersion","type":"uint64","internalType":"uint64"},{"name":"receiverVersion","type":"uint64","internalType":"uint64"}],"stateMutability":"pure"},{"type":"function","name":"oftVersion","inputs":[],"outputs":[{"name":"interfaceId","type":"bytes4","internalType":"bytes4"},{"name":"version","type":"uint64","internalType":"uint64"}],"stateMutability":"pure"},{"type":"function","name":"owner","inputs":[],"outputs":[{"name":"","type":"address","internalType":"address"}],"stateMutability":"view"},{"type":"function","name":"paused","inputs":[],"outputs":[{"name":"","type":"bool","internalType":"bool"}],"stateMutability":"view"},{"type":"function","name":"peers","inputs":[{"name":"eid","type":"uint32","internalType":"uint32"}],"outputs":[{"name":"peer","type":"bytes32","internalType":"bytes32"}],"stateMutability":"view"},{"type":"function","name":"preCrime","inputs":[],"outputs":[{"name":"","type":"address","internalType":"address"}],"stateMutability":"view"},{"type":"function","name":"quoteOFT","inputs":[{"name":"_sendParam","type":"tuple","internalType":"struct SendParam","components":[{"name":"dstEid","type":"uint32","internalType":"uint32"},{"name":"to","type":"bytes32","internalType":"bytes32"},{"name":"amountLD","type":"uint256","internalType":"uint256"},{"name":"minAmountLD","type":"uint256","internalType":"uint256"},{"name":"extraOptions","type":"bytes","internalType":"bytes"},{"name":"composeMsg","type":"bytes","internalType":"bytes"},{"name":"oftCmd","type":"bytes","internalType":"bytes"}]}],"outputs":[{"name":"oftLimit","type":"tuple","internalType":"struct OFTLimit","components":[{"name":"minAmountLD","type":"uint256","internalType":"uint256"},{"name":"maxAmountLD","type":"uint256","internalType":"uint256"}]},{"name":"oftFeeDetails","type":"tuple[]","internalType":"struct OFTFeeDetail[]","components":[{"name":"feeAmountLD","type":"int256","internalType":"int256"},{"name":"description","type":"string","internalType":"string"}]},{"name":"oftReceipt","type":"tuple","internalType":"struct OFTReceipt","components":[{"name":"amountSentLD","type":"uint256","internalType":"uint256"},{"name":"amountReceivedLD","type":"uint256","internalType":"uint256"}]}],"stateMutability":"view"},{"type":"function","name":"quoteSend","inputs":[{"name":"_sendParam","type":"tuple","internalType":"struct SendParam","components":[{"name":"dstEid","type":"uint32","internalType":"uint32"},{"name":"to","type":"bytes32","internalType":"bytes32"},{"name":"amountLD","type":"uint256","internalType":"uint256"},{"name":"minAmountLD","type":"uint256","internalType":"uint256"},{"name":"extraOptions","type":"bytes","internalType":"bytes"},{"name":"composeMsg","type":"bytes","internalType":"bytes"},{"name":"oftCmd","type":"bytes","internalType":"bytes"}]},{"name":"_payInLzToken","type":"bool","internalType":"bool"}],"outputs":[{"name":"msgFee","type":"tuple","internalType":"struct MessagingFee","components":[{"name":"nativeFee","type":"uint256","internalType":"uint256"},{"name":"lzTokenFee","type":"uint256","internalType":"uint256"}]}],"stateMutability":"view"},{"type":"function","name":"redeemShareEth","inputs":[],"outputs":[{"name":"","type":"uint256","internalType":"uint256"}],"stateMutability":"view"},{"type":"function","name":"redeemTokens","inputs":[{"name":"_amount","type":"uint256","internalType":"uint256"}],"outputs":[],"stateMutability":"nonpayable"},{"type":"function","name":"renounceOwnership","inputs":[],"outputs":[],"stateMutability":"nonpayable"},{"type":"function","name":"renounceRole","inputs":[{"name":"role","type":"bytes32","internalType":"bytes32"},{"name":"callerConfirmation","type":"address","internalType":"address"}],"outputs":[],"stateMutability":"nonpayable"},{"type":"function","name":"revokeRole","inputs":[{"name":"role","type":"bytes32","internalType":"bytes32"},{"name":"account","type":"address","internalType":"address"}],"outputs":[],"stateMutability":"nonpayable"},{"type":"function","name":"send","inputs":[{"name":"_sendParam","type":"tuple","internalType":"struct SendParam","components":[{"name":"dstEid","type":"uint32","internalType":"uint32"},{"name":"to","type":"bytes32","internalType":"bytes32"},{"name":"amountLD","type":"uint256","internalType":"uint256"},{"name":"minAmountLD","type":"uint256","internalType":"uint256"},{"name":"extraOptions","type":"bytes","internalType":"bytes"},{"name":"composeMsg","type":"bytes","internalType":"bytes"},{"name":"oftCmd","type":"bytes","internalType":"bytes"}]},{"name":"_fee","type":"tuple","internalType":"struct MessagingFee","components":[{"name":"nativeFee","type":"uint256","internalType":"uint256"},{"name":"lzTokenFee","type":"uint256","internalType":"uint256"}]},{"name":"_refundAddress","type":"address","internalType":"address"}],"outputs":[{"name":"msgReceipt","type":"tuple","internalType":"struct MessagingReceipt","components":[{"name":"guid","type":"bytes32","internalType":"bytes32"},{"name":"nonce","type":"uint64","internalType":"uint64"},{"name":"fee","type":"tuple","internalType":"struct MessagingFee","components":[{"name":"nativeFee","type":"uint256","internalType":"uint256"},{"name":"lzTokenFee","type":"uint256","internalType":"uint256"}]}]},{"name":"oftReceipt","type":"tuple","internalType":"struct OFTReceipt","components":[{"name":"amountSentLD","type":"uint256","internalType":"uint256"},{"name":"amountReceivedLD","type":"uint256","internalType":"uint256"}]}],"stateMutability":"payable"},{"type":"function","name":"setDelegate","inputs":[{"name":"_delegate","type":"address","internalType":"address"}],"outputs":[],"stateMutability":"nonpayable"},{"type":"function","name":"setEnforcedOptions","inputs":[{"name":"_enforcedOptions","type":"tuple[]","internalType":"struct EnforcedOptionParam[]","components":[{"name":"eid","type":"uint32","internalType":"uint32"},{"name":"msgType","type":"uint16","internalType":"uint16"},{"name":"options","type":"bytes","internalType":"bytes"}]}],"outputs":[],"stateMutability":"nonpayable"},{"type":"function","name":"setMsgInspector","inputs":[{"name":"_msgInspector","type":"address","internalType":"address"}],"outputs":[],"stateMutability":"nonpayable"},{"type":"function","name":"setPaused","inputs":[{"name":"_status","type":"bool","internalType":"bool"}],"outputs":[],"stateMutability":"nonpayable"},{"type":"function","name":"setPeer","inputs":[{"name":"_eid","type":"uint32","internalType":"uint32"},{"name":"_peer","type":"bytes32","internalType":"bytes32"}],"outputs":[],"stateMutability":"nonpayable"},{"type":"function","name":"setPreCrime","inputs":[{"name":"_preCrime","type":"address","internalType":"address"}],"outputs":[],"stateMutability":"nonpayable"},{"type":"function","name":"shareT","inputs":[],"outputs":[{"name":"","type":"uint256","internalType":"uint256"}],"stateMutability":"view"},{"type":"function","name":"shareU","inputs":[],"outputs":[{"name":"","type":"uint256","internalType":"uint256"}],"stateMutability":"view"},{"type":"function","name":"sharedDecimals","inputs":[],"outputs":[{"name":"","type":"uint8","internalType":"uint8"}],"stateMutability":"view"},{"type":"function","name":"supportsInterface","inputs":[{"name":"interfaceId","type":"bytes4","internalType":"bytes4"}],"outputs":[{"name":"","type":"bool","internalType":"bool"}],"stateMutability":"view"},{"type":"function","name":"symbol","inputs":[],"outputs":[{"name":"","type":"string","internalType":"string"}],"stateMutability":"view"},{"type":"function","name":"toggleAutoRewarder","inputs":[],"outputs":[],"stateMutability":"nonpayable"},{"type":"function","name":"token","inputs":[],"outputs":[{"name":"","type":"address","internalType":"address"}],"stateMutability":"view"},{"type":"function","name":"totalDepositedEther","inputs":[],"outputs":[{"name":"","type":"uint256","internalType":"uint256"}],"stateMutability":"view"},{"type":"function","name":"totalSupply","inputs":[],"outputs":[{"name":"","type":"uint256","internalType":"uint256"}],"stateMutability":"view"},{"type":"function","name":"transfer","inputs":[{"name":"to","type":"address","internalType":"address"},{"name":"value","type":"uint256","internalType":"uint256"}],"outputs":[{"name":"","type":"bool","internalType":"bool"}],"stateMutability":"nonpayable"},{"type":"function","name":"transferFrom","inputs":[{"name":"from","type":"address","internalType":"address"},{"name":"to","type":"address","internalType":"address"},{"name":"value","type":"uint256","internalType":"uint256"}],"outputs":[{"name":"","type":"bool","internalType":"bool"}],"stateMutability":"nonpayable"},{"type":"function","name":"transferOwnership","inputs":[{"name":"newOwner","type":"address","internalType":"address"}],"outputs":[],"stateMutability":"nonpayable"},{"type":"function","name":"underlying","inputs":[],"outputs":[{"name":"","type":"address","internalType":"contract IERC20"}],"stateMutability":"view"},{"type":"function","name":"wtg","inputs":[],"outputs":[{"name":"","type":"address","internalType":"contract IWrappedTokenGatewayV3"}],"stateMutability":"view"},{"type":"event","name":"Approval","inputs":[{"name":"owner","type":"address","indexed":true,"internalType":"address"},{"name":"spender","type":"address","indexed":true,"internalType":"address"},{"name":"value","type":"uint256","indexed":false,"internalType":"uint256"}],"anonymous":false},{"type":"event","name":"EnforcedOptionSet","inputs":[{"name":"_enforcedOptions","type":"tuple[]","indexed":false,"internalType":"struct EnforcedOptionParam[]","components":[{"name":"eid","type":"uint32","internalType":"uint32"},{"name":"msgType","type":"uint16","internalType":"uint16"},{"name":"options","type":"bytes","internalType":"bytes"}]}],"anonymous":false},{"type":"event","name":"Minted","inputs":[{"name":"user","type":"address","indexed":true,"internalType":"address"},{"name":"amount","type":"uint256","indexed":true,"internalType":"uint256"}],"anonymous":false},{"type":"event","name":"MsgInspectorSet","inputs":[{"name":"inspector","type":"address","indexed":false,"internalType":"address"}],"anonymous":false},{"type":"event","name":"OFTReceived","inputs":[{"name":"guid","type":"bytes32","indexed":true,"internalType":"bytes32"},{"name":"srcEid","type":"uint32","indexed":false,"internalType":"uint32"},{"name":"toAddress","type":"address","indexed":true,"internalType":"address"},{"name":"amountReceivedLD","type":"uint256","indexed":false,"internalType":"uint256"}],"anonymous":false},{"type":"event","name":"OFTSent","inputs":[{"name":"guid","type":"bytes32","indexed":true,"internalType":"bytes32"},{"name":"dstEid","type":"uint32","indexed":false,"internalType":"uint32"},{"name":"fromAddress","type":"address","indexed":true,"internalType":"address"},{"name":"amountSentLD","type":"uint256","indexed":false,"internalType":"uint256"},{"name":"amountReceivedLD","type":"uint256","indexed":false,"internalType":"uint256"}],"anonymous":false},{"type":"event","name":"OwnershipTransferred","inputs":[{"name":"previousOwner","type":"address","indexed":true,"internalType":"address"},{"name":"newOwner","type":"address","indexed":true,"internalType":"address"}],"anonymous":false},{"type":"event","name":"PausedContract","inputs":[{"name":"status","type":"bool","indexed":true,"internalType":"bool"}],"anonymous":false},{"type":"event","name":"PeerSet","inputs":[{"name":"eid","type":"uint32","indexed":false,"internalType":"uint32"},{"name":"peer","type":"bytes32","indexed":false,"internalType":"bytes32"}],"anonymous":false},{"type":"event","name":"PreCrimeSet","inputs":[{"name":"preCrimeAddress","type":"address","indexed":false,"internalType":"address"}],"anonymous":false},{"type":"event","name":"Redemption","inputs":[{"name":"user","type":"address","indexed":true,"internalType":"address"},{"name":"amount","type":"uint256","indexed":true,"internalType":"uint256"}],"anonymous":false},{"type":"event","name":"RoleAdminChanged","inputs":[{"name":"role","type":"bytes32","indexed":true,"internalType":"bytes32"},{"name":"previousAdminRole","type":"bytes32","indexed":true,"internalType":"bytes32"},{"name":"newAdminRole","type":"bytes32","indexed":true,"internalType":"bytes32"}],"anonymous":false},{"type":"event","name":"RoleGranted","inputs":[{"name":"role","type":"bytes32","indexed":true,"internalType":"bytes32"},{"name":"account","type":"address","indexed":true,"internalType":"address"},{"name":"sender","type":"address","indexed":true,"internalType":"address"}],"anonymous":false},{"type":"event","name":"RoleRevoked","inputs":[{"name":"role","type":"bytes32","indexed":true,"internalType":"bytes32"},{"name":"account","type":"address","indexed":true,"internalType":"address"},{"name":"sender","type":"address","indexed":true,"internalType":"address"}],"anonymous":false},{"type":"event","name":"Transfer","inputs":[{"name":"from","type":"address","indexed":true,"internalType":"address"},{"name":"to","type":"address","indexed":true,"internalType":"address"},{"name":"value","type":"uint256","indexed":false,"internalType":"uint256"}],"anonymous":false},{"type":"error","name":"AccessControlBadConfirmation","inputs":[]},{"type":"error","name":"AccessControlUnauthorizedAccount","inputs":[{"name":"account","type":"address","internalType":"address"},{"name":"neededRole","type":"bytes32","internalType":"bytes32"}]},{"type":"error","name":"AddressEmptyCode","inputs":[{"name":"target","type":"address","internalType":"address"}]},{"type":"error","name":"AddressInsufficientBalance","inputs":[{"name":"account","type":"address","internalType":"address"}]},{"type":"error","name":"BelowMinimum","inputs":[]},{"type":"error","name":"ERC20InsufficientAllowance","inputs":[{"name":"spender","type":"address","internalType":"address"},{"name":"allowance","type":"uint256","internalType":"uint256"},{"name":"needed","type":"uint256","internalType":"uint256"}]},{"type":"error","name":"ERC20InsufficientBalance","inputs":[{"name":"sender","type":"address","internalType":"address"},{"name":"balance","type":"uint256","internalType":"uint256"},{"name":"needed","type":"uint256","internalType":"uint256"}]},{"type":"error","name":"ERC20InvalidApprover","inputs":[{"name":"approver","type":"address","internalType":"address"}]},{"type":"error","name":"ERC20InvalidReceiver","inputs":[{"name":"receiver","type":"address","internalType":"address"}]},{"type":"error","name":"ERC20InvalidSender","inputs":[{"name":"sender","type":"address","internalType":"address"}]},{"type":"error","name":"ERC20InvalidSpender","inputs":[{"name":"spender","type":"address","internalType":"address"}]},{"type":"error","name":"Failed","inputs":[]},{"type":"error","name":"FailedInnerCall","inputs":[]},{"type":"error","name":"InvalidDelegate","inputs":[]},{"type":"error","name":"InvalidEndpointCall","inputs":[]},{"type":"error","name":"InvalidLocalDecimals","inputs":[]},{"type":"error","name":"InvalidOptions","inputs":[{"name":"options","type":"bytes","internalType":"bytes"}]},{"type":"error","name":"LzTokenUnavailable","inputs":[]},{"type":"error","name":"NoChangeInBoolean","inputs":[]},{"type":"error","name":"NoPeer","inputs":[{"name":"eid","type":"uint32","internalType":"uint32"}]},{"type":"error","name":"NotEnoughNative","inputs":[{"name":"msgValue","type":"uint256","internalType":"uint256"}]},{"type":"error","name":"OnlyEndpoint","inputs":[{"name":"addr","type":"address","internalType":"address"}]},{"type":"error","name":"OnlyPeer","inputs":[{"name":"eid","type":"uint32","internalType":"uint32"},{"name":"sender","type":"bytes32","internalType":"bytes32"}]},{"type":"error","name":"OnlySelf","inputs":[]},{"type":"error","name":"OwnableInvalidOwner","inputs":[{"name":"owner","type":"address","internalType":"address"}]},{"type":"error","name":"OwnableUnauthorizedAccount","inputs":[{"name":"account","type":"address","internalType":"address"}]},{"type":"error","name":"Paused","inputs":[]},{"type":"error","name":"ReentrancyGuardReentrantCall","inputs":[]},{"type":"error","name":"SafeERC20FailedOperation","inputs":[{"name":"token","type":"address","internalType":"address"}]},{"type":"error","name":"SimulationResult","inputs":[{"name":"result","type":"bytes","internalType":"bytes"}]},{"type":"error","name":"SlippageExceeded","inputs":[{"name":"amountLD","type":"uint256","internalType":"uint256"},{"name":"minAmountLD","type":"uint256","internalType":"uint256"}]},{"type":"error","name":"Zero","inputs":[]}],"bytecode":{"object":"0x60e080604052346105115760009060408161445480380380916100228285610516565b83398101031261050d57610041602061003a8361054f565b920161054f565b60405192610050604085610516565b600c84526b24b739b0b7329022ba3432b960a11b602085015260405192610078604085610516565b60058452640d2e88aa8960db1b602085015281546000805160206143f48339815191526001600160a01b031982168117845560405192916001600160a01b03167f8be0079c531659141344cd1fd0a4f28419497f9722a3daafe3b4186f6b6457e08580a36001600160a01b03166080819052803b15610509578160248185809463ca5eb5e160e01b83526000805160206143f483398151915260048401525af180156104fe5782906104ee575b505064e8d4a5100060a05283516001600160401b0381116104da57600854600181811c911680156104d0575b60208210146104bc57601f8111610459575b50602094601f82116001146103f55794829394958293926103ea575b50508160011b916000199060031b1c1916176008555b8251906001600160401b0382116103d657600954600181811c911680156103cc575b60208210146103b857601f8111610355575b50602090601f83116001146102f35793829394926102e8575b50508160011b916000199060031b1c1916176009555b6001600b556113886011819055601255601380546103e3601455610100600160b81b031916601083901b62010000600160b01b0316177601000000000000000000000000000000000000000001001790556001600160a01b031660c05261025d610563565b50610266610621565b50610270336106c6565b50604051613c4190816107538239608051818181610bce01528181610ce20152818161139e015281816116cb0152818161234a015281816137e10152613a78015260a0518181816112ee01528181611a9401528181612dfb0152818161317e0152613902015260c051818181611cf00152611de60152f35b0151905038806101e2565b90601f1983169460098352818320925b86811061033d5750836001959610610324575b505050811b016009556101f8565b015160001960f88460031b161c19169055388080610316565b91926020600181928685015181550194019201610303565b600982527f6e1540171b6c0c960b71a7020d9f60077f6af931a8bbf590da0223dacf75c7af601f840160051c810191602085106103ae575b601f0160051c01905b8181106103a357506101c9565b828155600101610396565b909150819061038d565b634e487b7160e01b82526022600452602482fd5b90607f16906101b7565b634e487b7160e01b81526041600452602490fd5b01519050388061017f565b601f198216956008845280842091845b88811061044157508360019596979810610428575b505050811b01600855610195565b015160001960f88460031b161c1916905538808061041a565b91926020600181928685015181550194019201610405565b600883527ff3f7a9fe364faab93b216da50a3214154f22a0a2b415b23a84c8169e8b636ee3601f830160051c810191602084106104b2575b601f0160051c01905b8181106104a75750610163565b83815560010161049a565b9091508190610491565b634e487b7160e01b83526022600452602483fd5b90607f1690610151565b634e487b7160e01b82526041600452602482fd5b6104f791610516565b3881610125565b6040513d84823e3d90fd5b8280fd5b5080fd5b600080fd5b601f909101601f19168101906001600160401b0382119082101761053957604052565b634e487b7160e01b600052604160045260246000fd5b51906001600160a01b038216820361051157565b6000805160206143f48339815191526000527f13da86008ba1c6922daee3e07db95305ef49ebced9f5467a0b8613fcc6b343e36020526000805160206143b48339815191525460ff1661061c576000805160206143f483398151915260008181527f13da86008ba1c6922daee3e07db95305ef49ebced9f5467a0b8613fcc6b343e36020526000805160206143b4833981519152805460ff191660011790553391906000805160206143948339815191528180a4600190565b600090565b6000805160206143f48339815191526000526000805160206143d48339815191526020526000805160206144348339815191525460ff1661061c576000805160206143f483398151915260008181526000805160206143d4833981519152602052600080516020614434833981519152805460ff19166001179055339190600080516020614414833981519152906000805160206143948339815191529080a4600190565b6001600160a01b03811660009081526000805160206143d4833981519152602052604090205460ff1661074c576001600160a01b031660008181526000805160206143d483398151915260205260408120805460ff19166001179055339190600080516020614414833981519152906000805160206143948339815191529080a4600190565b5060009056fe6080604052600436101561001b575b361561001957600080fd5b005b60003560e01c806301ffc9a7146104c157806306552ff3146104bc57806306fdde03146104b7578063095ea7b3146104b257806309bca7a1146104ad5780630d35b415146104a8578063111ecdad146104a357806313137d651461049e578063134d4f2514610499578063156a0d0f1461049457806315ac86f31461048f57806316343da41461048a57806316c38b3c1461048557806317442b701461048057806318160ddd1461047b5780631cff79cd146104765780631f5e13341461047157806323b872dd1461046c578063248a9ca3146104675780632f2ff15d14610462578063313ce5671461045d5780633400288b1461045857806336568abe146104535780633b6f743b1461044e5780633dffe51f1461044957806352ae2879146103635780635535d461146104445780635a0dfe4d1461043f5780635c975abb1461043a5780635e280f11146104355780636e4791f8146104305780636f307dc31461042b5780636fc1b31e1461042657806370a0823114610421578063715018a61461041c5780637d25a05e1461041757806382413eac14610412578063857749b01461040d5780638da5cb5b1461040857806391d148541461040357806392c2bcb4146103fe57806395d89b41146103f9578063963efcaa146103f45780639b4d51f4146103ef5780639f68b964146103db578063a03e4bc3146103ea578063a0712d68146103e5578063a0c1f15e146103e0578063a217fddf146103db578063a55b3d4d146103d6578063a6e158f8146103d1578063a9059cbb146103cc578063ad5c4648146103c7578063ae334602146103c2578063b731ea0a146103bd578063b98bd070146103b8578063bb0b6a53146103b3578063bc70b354146103ae578063bd815db0146103a9578063c5283ef2146103a4578063c7c7f5b31461039f578063ca5eb5e11461039a578063cf0eed3814610395578063d045a0dc14610390578063d42438851461038b578063d453a56014610386578063d539139314610381578063d547741f1461037c578063dd62ed3e14610377578063eda6213414610372578063f2fde38b1461036d578063f5b541a614610368578063fc0c546a14610363578063fd4e36ec1461035e5763ff7bd03d0361000e5761289e565b61286f565b61145e565b612834565b6127a7565b6125ea565b612587565b612544565b612509565b6124eb565b61247b565b612448565b6123c5565b612320565b6121fe565b612184565b612028565b611fd4565b611f99565b611eb6565b611e33565b611e15565b611dd0565b611d9b565b611c81565b611c39565b611ad5565b611c10565b611b1a565b611af1565b611ab7565b611a7c565b6119d4565b611976565b611920565b6118f7565b6118db565b61187d565b611856565b6117fd565b6117c0565b611750565b611727565b6116fa565b6116b5565b61168f565b611647565b6115c8565b611440565b61128a565b611240565b6111b9565b61118f565b611147565b611112565b611067565b61104b565b610f91565b610f73565b610f51565b610e60565b610e39565b610e10565b610de9565b610dcd565b610bbb565b610ae4565b6109ff565b61092d565b610866565b610789565b61052d565b346105175760203660031901126105175760043563ffffffff60e01b811680910361051757602090637965db0b60e01b8114908115610506575b506040519015158152f35b6301ffc9a760e01b149050386104fb565b600080fd5b6001600160a01b0381160361051757565b346105175760803660031901126105175761065060043561054d8161051c565b61061f6024359161055d8361051c565b6105fd60443561056c8161051c565b6105db6064359361057c8561051c565b61059b73bfc57b070b1eda0fcb9c203edc1085c626f3a36d33146128e5565b6105b9600160ff6105b260135460ff9060081c1690565b1614612920565b600f80546001600160a01b0319166001600160a01b0392909216919091179055565b600e80546001600160a01b0319166001600160a01b0392909216919091179055565b601080546001600160a01b0319166001600160a01b0392909216919091179055565b61062e60ff1960135416601355565b600d80546001600160a01b0319166001600160a01b0392909216919091179055565b600f54600490602090610673906001600160a01b03165b6001600160a01b031690565b6040516358b50cef60e11b815292839182905afa801561071d576106bc916000916106ee575b50600c80546001600160a01b0319166001600160a01b0392909216919091179055565b6100196106d76106d260135460ff9060081c1690565b612991565b61ff006013549160081b169061ff00191617601355565b610710915060203d602011610716575b61070881836115a7565b81019061295a565b38610699565b503d6106fe565b61296f565b600091031261051757565b60005b8381106107405750506000910152565b8181015183820152602001610730565b906020916107698151809281855285808601910161072d565b601f01601f1916010190565b906020610786928181520190610750565b90565b346105175760003660031901126105175760405160006008546107ab81611499565b808452906001811690811561084257506001146107e3575b6107df836107d3818503826115a7565b60405191829182610775565b0390f35b600860009081527ff3f7a9fe364faab93b216da50a3214154f22a0a2b415b23a84c8169e8b636ee3939250905b808210610828575090915081016020016107d36107c3565b919260018160209254838588010152019101909291610810565b60ff191660208086019190915291151560051b840190910191506107d390506107c3565b34610517576040366003190112610517576004356108838161051c565b6024353315610917576001600160a01b038216918215610901576108c7829133600052600660205260406000209060018060a01b0316600052602052604060002090565b5560405190815233907f8c5be1e5ebec7d5bd14f71427d1e84f3dd0314c0f7b2291e5b200ac8c7c3b92590602090a3602060405160018152f35b634a1406b160e11b600052600060045260246000fd5b63e602df0560e01b600052600060045260246000fd5b3461051757600036600319011261051757602060ff601354166040519015158152f35b908160e09103126105175790565b9392919061097a8560a081019260208091805184520151910152565b60a06040860152815180915260c0850190602060c08260051b8801019301916000905b8282106109c357505050509060606109c19294019060208091805184520151910152565b565b909192936020806109f160019360bf198c82030186526040838a518051845201519181858201520190610750565b96019201920190929161099d565b34610517576020366003190112610517576004356001600160401b03811161051757610a2f903690600401610950565b610a376129c0565b50610a406129c0565b50604051610a4d8161156c565b600081526001600160401b036020820152602060405192610a6e82856115a7565b60008452601f19820160005b818110610ac057505090610aa46107df926040810135610a9e6060830135926129f0565b50612df2565b9091610aae6129a2565b9283528201526040519384938461095e565b8390604051610ace8161156c565b6000815260608382015282828901015201610a7a565b34610517576000366003190112610517576004546040516001600160a01b039091168152602090f35b606090600319011261051757600490565b9181601f84011215610517578235916001600160401b038311610517576020838186019501011161051757565b600319810160e0811261051757606060009112610bb8575060049182606435926084356001600160401b0381116105175781610b88918401610b1e565b9390939260a435610b988161051c565b9260c4356001600160401b03811161051757610bb49201610b1e565b9091565b80fd5b610bc436610b4b565b50919492915050337f00000000000000000000000000000000000000000000000000000000000000006001600160a01b031603610db8578135610c06816111ab565b610c0f81612e46565b906020840135809203610d91575050610c2b61066785836138d2565b93610c51610c41610c3c83856138de565b6138f4565b610c4a856129f0565b5086613928565b91610c5c8260281090565b610cb4575b5050610c8d7fefed6d3500546b29533b128a29e3a94d70788727f0507505ac12eaf2e578fd9c926129f0565b6040805163ffffffff92909216825260208201929092526001600160a01b039490941693a3005b9082610cdf92610cd9610cc960408801612e7a565b93610cd3886129f0565b9261394c565b9261396f565b917f00000000000000000000000000000000000000000000000000000000000000006001600160a01b0316803b1561051757604051633e5ac80960e11b8152936000918591829084908290610d39908b8d60048501612e84565b03925af190811561071d577fefed6d3500546b29533b128a29e3a94d70788727f0507505ac12eaf2e578fd9c93610c8d92610d76575b5092610c61565b80610d856000610d8b936115a7565b80610722565b38610d6f565b80610da063ffffffff926111ab565b63309afaf360e21b6000521660045260245260446000fd5b6391ac5e4f60e01b6000523360045260246000fd5b3461051757600036600319011261051757602060405160028152f35b34610517576000366003190112610517576040805162b9270b60e21b815260016020820152f35b3461051757600036600319011261051757600d546040516001600160a01b039091168152602090f35b346105175760003660031901126105175760206040516127108152f35b8015150361051757565b3461051757602036600319011261051757600435610e7d81610e56565b3360009081527f9b2788bb01a4e5439054acd1f78f40f2a154f25e1d2631076a79a383f587848a602052604090205460ff1615610f1857601354901515908160ff8260b01c16151514610f075760ff60b01b191660b082901b60ff60b01b16176013557f381650b81778988372e2fff8cd29c8b87a0a3db9e37b10c7b6f11d7adf303d9b600080a2005b6350faa11f60e11b60005260046000fd5b63e2517d3f60e01b600052336004527f97667070c54ef182b0f5858b034beac1b6f3089aa2d3188bb1e8929f4fa9b92960245260446000fd5b3461051757600036600319011261051757604080516001815260026020820152f35b34610517576000366003190112610517576020600754604051908152f35b3461051757604036600319011261051757600435610fae8161051c565b6024356001600160401b03811161051757610fcd903690600401610b1e565b3360009081527f13da86008ba1c6922daee3e07db95305ef49ebced9f5467a0b8613fcc6b343e3602052604090205490919060ff16156110315760008383828094610019966040519384928337810182815203925af161102b612a15565b50612a45565b63e2517d3f60e01b60005233600452600060245260446000fd5b3461051757600036600319011261051757602060405160018152f35b34610517576060366003190112610517576004356110848161051c565b6024356110908161051c565b6001600160a01b0382166000908152600660209081526040808320338452909152902054916044359190600184016110d9575b6110cd9350612eec565b60405160018152602090f35b8284106110f5576110f0836110cd95033383613855565b6110c3565b8284637dc7a0d960e11b6000523360045260245260445260646000fd5b3461051757602036600319011261051757602061113f600435600052600a60205260016040600020015490565b604051908152f35b346105175760403660031901126105175761001960243560043561116a8261051c565b61118a61118582600052600a60205260016040600020015490565b612eaf565b612ffa565b3461051757600036600319011261051757602060405160128152f35b63ffffffff81160361051757565b34610517576040366003190112610517577f238399d427b947898edb290f5ff0f9109849b1c3ba196a42e35f00c50a54b98b6004356111f7816111ab565b6024359061120361308e565b63ffffffff811660005260016020528160406000205561123b604051928392836020909392919363ffffffff60408201951681520152565b0390a1005b34610517576040366003190112610517576004356024356112608161051c565b336001600160a01b0382160361127957610019916130b7565b63334bd91960e11b60005260046000fd5b34610517576040366003190112610517576004356001600160401b038111610517576112ba903690600401610950565b6024356112c681610e56565b6112ce6129c0565b5081359160608101359061131960408201356112e9866111ab565b6113147f0000000000000000000000000000000000000000000000000000000000000000809261389f565b6138bf565b918083106114285761139a60408661137f876113358888613167565b9061133f856111ab565b6113476129c0565b5061135185612e46565b61136861135c6129b1565b63ffffffff9097168752565b602086015285850152606084015215156080830152565b815180938192631bb8518b60e31b83523090600484016132b3565b03817f00000000000000000000000000000000000000000000000000000000000000006001600160a01b03165afa801561071d576107df916000916113f9575b5060405191829182815181526020918201519181019190915260400190565b61141b915060403d604011611421575b61141381836115a7565b81019061329f565b826113da565b503d611409565b826371c4efed60e01b60005260045260245260446000fd5b34610517576000366003190112610517576020601454604051908152f35b34610517576000366003190112610517576020604051308152f35b6024359061ffff8216820361051757565b359061ffff8216820361051757565b90600182811c921680156114c9575b60208310146114b357565b634e487b7160e01b600052602260045260246000fd5b91607f16916114a8565b600092918154916114e383611499565b808352926001811690811561153957506001146114ff57505050565b60009081526020812093945091925b83831061151f575060209250010190565b60018160209294939454838587010152019101919061150e565b915050602093945060ff929192191683830152151560051b010190565b634e487b7160e01b600052604160045260246000fd5b604081019081106001600160401b0382111761158757604052565b611556565b606081019081106001600160401b0382111761158757604052565b90601f801991011681019081106001600160401b0382111761158757604052565b34610517576040366003190112610517576107df61162c6116336116206004356115f1816111ab565b63ffffffff6115fe611479565b9116600052600360205260406000209061ffff16600052602052604060002090565b604051928380926114d3565b03826115a7565b604051918291602083526020830190610750565b34610517576040366003190112610517576020611685600435611669816111ab565b6024359063ffffffff1660005260016020526040600020541490565b6040519015158152f35b3461051757600036600319011261051757602060ff60135460b01c166040519015158152f35b34610517576000366003190112610517576040517f00000000000000000000000000000000000000000000000000000000000000006001600160a01b03168152602090f35b346105175760003660031901126105175760135460405160109190911c6001600160a01b03168152602090f35b3461051757600036600319011261051757600c546040516001600160a01b039091168152602090f35b34610517576020366003190112610517577ff0be4f1e87349231d80c36b33f9e8639658eeaf474014dee15a3e6a4d441419760206004356117908161051c565b61179861308e565b600480546001600160a01b0319166001600160a01b03929092169182179055604051908152a1005b34610517576020366003190112610517576004356117dd8161051c565b60018060a01b031660005260056020526020604060002054604051908152f35b346105175760003660031901126105175761181661308e565b600080546001600160a01b0319811682556001600160a01b03167f8be0079c531659141344cd1fd0a4f28419497f9722a3daafe3b4186f6b6457e08280a3005b34610517576040366003190112610517576118726004356111ab565b602060405160008152f35b346105175760a03660031901126105175761189736610b0d565b506064356001600160401b038111610517576118b7903690600401610b1e565b505060206084356118c78161051c565b6040516001600160a01b0390911630148152f35b3461051757600036600319011261051757602060405160068152f35b34610517576000366003190112610517576000546040516001600160a01b039091168152602090f35b3461051757604036600319011261051757602060ff61196a6024356004356119478261051c565b600052600a845260406000209060018060a01b0316600052602052604060002090565b54166040519015158152f35b34610517576020366003190112610517576004356119938161051c565b6119b273bfc57b070b1eda0fcb9c203edc1085c626f3a36d33146128e5565b600d80546001600160a01b0319166001600160a01b0392909216919091179055005b346105175760003660031901126105175760405160006009546119f681611499565b80845290600181169081156108425750600114611a1d576107df836107d3818503826115a7565b600960009081527f6e1540171b6c0c960b71a7020d9f60077f6af931a8bbf590da0223dacf75c7af939250905b808210611a62575090915081016020016107d36107c3565b919260018160209254838588010152019101909291611a4a565b346105175760003660031901126105175760206040517f00000000000000000000000000000000000000000000000000000000000000008152f35b34610517576000366003190112610517576020601554604051908152f35b3461051757600036600319011261051757602060405160008152f35b34610517576000366003190112610517576010546040516001600160a01b039091168152602090f35b3461051757602036600319011261051757600435611b61610667601354611b4760ff8260b01c1615612a5d565b611b52841515612a75565b60101c6001600160a01b031690565b6040516323b872dd60e01b81523360048201523060248201526044810183905290602090829060649082906000905af1801561071d57611be3575b50611ba78133613321565b611bbb611bb682601554612aa2565b601555565b337f30385c845b448a36257a6a1716e6ad2e1bc2cbe333cde1e69fe849ad6511adfe600080a3005b611c049060203d602011611c09575b611bfc81836115a7565b810190612a8d565b611b9c565b503d611bf2565b3461051757600036600319011261051757600f546040516001600160a01b039091168152602090f35b3461051757600036600319011261051757611c6973bfc57b070b1eda0fcb9c203edc1085c626f3a36d33146128e5565b60135460ff80821615169060ff191617601355600080f35b3461051757602036600319011261051757600435611ca760ff60135460b01c1615612a5d565b611caf613396565b611cba811515612aaf565b611cc481336133b8565b601054611cd9906001600160a01b0316610667565b604051631a4ca37b60e21b81526001600160a01b037f00000000000000000000000000000000000000000000000000000000000000001660048201526024810183905233604482015290602090829060649082906000905af1801561071d57611d6e575b50337fe6c82503aaaa3db78b70f183901ae8668918f895b3982b2c851cf2ffe0c6c639600080a36100196001600b55565b611d8f9060203d602011611d94575b611d8781836115a7565b810190612ac7565b611d3d565b503d611d7d565b3461051757604036600319011261051757611dc5600435611dbb8161051c565b6024359033612eec565b602060405160018152f35b34610517576000366003190112610517576040517f00000000000000000000000000000000000000000000000000000000000000006001600160a01b03168152602090f35b34610517576000366003190112610517576020601254604051908152f35b34610517576000366003190112610517576002546040516001600160a01b039091168152602090f35b906020600319830112610517576004356001600160401b0381116105175760040160009280601f83011215611eb2578135936001600160401b038511610bb857506020808301928560051b010111610517579190565b8380fd5b3461051757611ec436611e5c565b90611ecd61308e565b611ed6826129d9565b90611ee460405192836115a7565b828252602082019260051b8101903682116105175780935b828510611f0c5761001984613623565b84356001600160401b038111610517578201906060823603126105175760405191611f368361158c565b8035611f41816111ab565b8352611f4f6020820161148a565b60208401526040810135906001600160401b03821161051757019036601f8301121561051757602092611f89849336908581359101612ad6565b6040820152815201940193611efc565b346105175760203660031901126105175763ffffffff600435611fbb816111ab565b1660005260016020526020604060002054604051908152f35b3461051757606036600319011261051757600435611ff1816111ab565b611ff9611479565b604435906001600160401b038211610517576107df92612020611633933690600401610b1e565b929091612b99565b61203136611e5c565b60005b8181106120a457604051638e9e709960e01b8152600081600481335afa801561071d5761207d91600091612081575b50604051638351eea760e01b815291829160048301610775565b0390fd5b61209e91503d806000833e61209681836115a7565b810190612d44565b82612063565b6120af818385612c55565b906120e16120dd6120bf846129f0565b60208501359063ffffffff1660005260016020526040600020541490565b1590565b61217b5760c08201359160a08101356120fe610100830183612c7d565b94909161210d60e08501612caf565b9361211c610120820182612c7d565b959095303b156105175760009661214a926040519a8b9889978897633411683760e21b895260048901612cca565b0391305af191821561071d57600192612166575b505b01612034565b80610d856000612175936115a7565b3861215e565b60019150612160565b3461051757600036600319011261051757600e546040516001600160a01b039091168152602090f35b9160806109c19294936121ed604060c0830197805184526001600160401b0360208201511660208501520151604083019060208091805184520151910152565b019060208091805184520151910152565b6080366003190112610517576004356001600160401b03811161051757612229903690600401610950565b6040366023190112610517576064356122418161051c565b612249612da2565b506122526129c0565b5060608201359061226b60408401356112e985356111ab565b9180831061142857506122a59061228283336133b8565b61228c8385613167565b612295866129f0565b9161229f36612dca565b92613764565b906122ae6129a2565b928184528160208501527f85496b760a4b7f8d66384b9df21b381f5d1b1e79f229a47aaf4c232edc2fe59a61230e6122e78551936129f0565b936040519181839233978460409194939263ffffffff606083019616825260208201520152565b0390a36107df604051928392836121ad565b346105175760006020366003190112610bb857806004356123408161051c565b61234861308e565b7f00000000000000000000000000000000000000000000000000000000000000006001600160a01b0316803b156123c15760405163ca5eb5e160e01b81526001600160a01b0390921660048301529091908290602490829084905af1801561071d5782906123b35780f35b6123bc916115a7565b388180f35b5050fd5b34610517576040366003190112610517576004356024356123fb73bfc57b070b1eda0fcb9c203edc1085c626f3a36d33146128e5565b818001808311612443576127100361241557601255601155005b60405162461bcd60e51b81526020600482015260066024820152652164656e6f6d60d01b6044820152606490fd5b61297b565b61245136610b4b565b505050929030330361246a57610c2b61066785836138d2565b63029a949d60e31b60005260046000fd5b34610517576020366003190112610517577fd48d879cef83a1c0bdda516f27b13ddb1b3f8bbac1c9e1511bb2a659c242776060206004356124bb8161051c565b6124c361308e565b600280546001600160a01b0319166001600160a01b03929092169182179055604051908152a1005b34610517576000366003190112610517576020601154604051908152f35b346105175760003660031901126105175760206040517f9f2df0fed2c77648de5860a4cc508cd0818c85b8b8a1ab4ceeef8d981c8956a68152f35b34610517576040366003190112610517576100196024356004356125678261051c565b61258261118582600052600a60205260016040600020015490565b6130b7565b346105175760403660031901126105175760206125e16004356125a98161051c565b602435906125b68261051c565b60018060a01b03166000526006835260406000209060018060a01b0316600052602052604060002090565b54604051908152f35b60003660031901126105175761260860ff60135460b01c1615612a5d565b612610613396565b61261b341515612a75565b6013546126339060101c6001600160a01b0316610667565b6040516370a0823160e01b8152306004820152602081602481855afa801561071d5761266891600091612788575b5034612aa2565b6040516370a0823160e01b815230600482015291602090839060249082905afa90811561071d576126a292600092612767575b5014612a45565b600e546126b7906001600160a01b0316610667565b6010546126cc906001600160a01b0316610667565b90803b156105175760405163474cf53d60e01b81526001600160a01b038316600482015230602482015260006044820181905290918290606490829084905af1801561071d57612752575b6127213433613321565b34337f30385c845b448a36257a6a1716e6ad2e1bc2cbe333cde1e69fe849ad6511adfe600080a36100196001600b55565b80610d856000612761936115a7565b80612717565b61278191925060203d602011611d9457611d8781836115a7565b903861269b565b6127a1915060203d602011611d9457611d8781836115a7565b38612661565b34610517576020366003190112610517576004356127c48161051c565b6127cc61308e565b6001600160a01b0316801561281e57600080546001600160a01b03198116831782556001600160a01b0316907f8be0079c531659141344cd1fd0a4f28419497f9722a3daafe3b4186f6b6457e09080a3005b631e4fbdf760e01b600052600060045260246000fd5b346105175760003660031901126105175760206040517f97667070c54ef182b0f5858b034beac1b6f3089aa2d3188bb1e8929f4fa9b9298152f35b3461051757600036600319011261051757602060405173bfc57b070b1eda0fcb9c203edc1085c626f3a36d8152f35b346105175760603660031901126105175760206128ba36610b0d565b63ffffffff81356128ca816111ab565b16600052600182528160406000205491013560405191148152f35b156128ec57565b60405162461bcd60e51b815260206004820152600c60248201526b1d5b985d5d1a1bdc9a5e995960a21b6044820152606490fd5b1561292757565b60405162461bcd60e51b815260206004820152600b60248201526a1a5b9a5d1a585b1a5e995960aa1b6044820152606490fd5b9081602091031261051757516107868161051c565b6040513d6000823e3d90fd5b634e487b7160e01b600052601160045260246000fd5b60ff1660ff81146124435760010190565b604051906109c16040836115a7565b604051906109c160a0836115a7565b604051906129cd8261156c565b60006020838281520152565b6001600160401b0381116115875760051b60200190565b35610786816111ab565b6001600160401b03811161158757601f01601f191660200190565b3d15612a40573d90612a26826129fa565b91612a3460405193846115a7565b82523d6000602084013e565b606090565b15612a4c57565b63312d207360e11b60005260046000fd5b15612a6457565b6313d0ff5960e31b60005260046000fd5b15612a7c57565b63f456040360e01b60005260046000fd5b90816020910312610517575161078681610e56565b9190820180921161244357565b15612ab657565b63860b82a960e01b60005260046000fd5b90816020910312610517575190565b929192612ae2826129fa565b91612af060405193846115a7565b829481845281830111610517578281602093846000960137010152565b909291928360021161051757831161051757600201916001190190565b6020836109c1939594956040519684612b4c899651809287808a01910161072d565b8501918483013701016000815203601f1981018452836115a7565b908060209392818452848401376000828201840152601f01601f1916010190565b916020610786938181520191612b67565b61162061162c9263ffffffff612bce939795969716600052600360205260406000209061ffff16600052602052604060002090565b805115612c31578315612c2b576002841015612c0257505061207d604051928392639a6d49cd60e01b845260048401612b88565b909280612c259161078694612c20612c1b368484612ad6565b6136ea565b612b0d565b91612b2a565b92509050565b509190610786913691612ad6565b634e487b7160e01b600052603260045260246000fd5b9190811015612c785760051b8101359061013e1981360301821215610517570190565b612c3f565b903590601e198136030182121561051757018035906001600160401b0382116105175760200191813603831361051757565b356107868161051c565b6001600160401b0381160361051757565b929093612d26926001600160401b0360406107869a98999763ffffffff8135612cf2816111ab565b168852602081013560208901520135612d0a81612cb9565b166040860152606085015260e0608085015260e0840191612b67565b6001600160a01b0390941660a082015280840360c090910152612b67565b602081830312610517578051906001600160401b038211610517570181601f82011215610517578051612d76816129fa565b92612d8460405194856115a7565b8184526020828401011161051757610786916020808501910161072d565b60405190612daf8261158c565b8160008152600060208201526040612dc56129c0565b910152565b60409060231901126105175760405190612de38261156c565b60243582526044356020830152565b612e21906113147f0000000000000000000000000000000000000000000000000000000000000000809261389f565b918291808410612e2e5750565b836371c4efed60e01b60005260045260245260446000fd5b63ffffffff16806000526001602052604060002054908115612e66575090565b63f6ff4fb760e01b60005260045260246000fd5b3561078681612cb9565b610786939260809260018060a01b031682526020820152600060408201528160608201520190610750565b6000818152600a6020908152604080832033845290915290205460ff1615612ed45750565b63e2517d3f60e01b6000523360045260245260446000fd5b90916001600160a01b038216918215612fe4576001600160a01b038416938415612fce576001600160a01b038216600090815260056020526040812090929054848110612fa85791612f9591612f7a867fddf252ad1be2c89b69c2b068fc378daa952ba7f163c4a11628f55a4df523b3ef979695039160018060a01b03166000526005602052604060002090565b556001600160a01b0316600090815260056020526040902090565b80548301905550604051908152602090a3565b63391434e360e21b84526001600160a01b03909116600452602452506044829052606490fd5b63ec442f0560e01b600052600060045260246000fd5b634b637e8f60e11b600052600060045260246000fd5b6000818152600a602090815260408083206001600160a01b038616845290915290205460ff16613087576000818152600a602090815260408083206001600160a01b03861684529091529020805460ff1916600117905533916001600160a01b0316907f2f8788117e7eff1d82e926ec794901d17c78024a50270940304540a733656f0d600080a4600190565b5050600090565b6000546001600160a01b031633036130a257565b63118cdaa760e01b6000523360045260246000fd5b6000818152600a602090815260408083206001600160a01b038616845290915290205460ff1615613087576000818152600a602090815260408083206001600160a01b03861684529091529020805460ff1916905533916001600160a01b0316907ff6391f5c32d9c69d2a47ea670b442974b53935d1edc7fd64eb21e047a839171b600080a4600190565b909161315961078693604084526040840190610750565b916020818403910152610750565b90916131cc6131f3936131af6131a36020860135927f00000000000000000000000000000000000000000000000000000000000000009061389f565b6001600160401b031690565b6131c66131bf60a0870187612c7d565b3691612ad6565b916139cd565b939092839460001461326f576002905b6120206131e8826129f0565b916080810190612c7d565b6004549092906001600160a01b0316838161320d57505050565b61324392602092613226906001600160a01b0316610667565b9060405180958194829363043a78eb60e01b845260048401613142565b03915afa801561071d576132545750565b61326c9060203d602011611c0957611bfc81836115a7565b50565b6001906131dc565b91908260409103126105175760405161328f8161156c565b6020808294805184520151910152565b906040828203126105175761078691613277565b906020909392936040835263ffffffff815116604084015281810151606084015260806133076132f1604084015160a08488015260e0870190610750565b6060840151868203603f190160a0880152610750565b910151151560c08401526001600160a01b03909416910152565b6001600160a01b03811691908215612fce5760075490828201809211612443576000926133876020927fddf252ad1be2c89b69c2b068fc378daa952ba7f163c4a11628f55a4df523b3ef9460075560018060a01b03166000526005602052604060002090565b818154019055604051908152a3565b6002600b54146133a7576002600b55565b633ee5aeb560e01b60005260046000fd5b906001600160a01b038216908115612fe4576001600160a01b038316600090815260056020526040812090939054828110613443576001600160a01b0390911660009081526005602052604090207fddf252ad1be2c89b69c2b068fc378daa952ba7f163c4a11628f55a4df523b3ef92918290039055600780548290039055604051908152602090a3565b63391434e360e21b85526001600160a01b0390911660045260245260445250606490fd5b8051821015612c785760209160051b010190565b601f821161348857505050565b6000526020600020906020601f840160051c830193106134c3575b601f0160051c01905b8181106134b7575050565b600081556001016134ac565b90915081906134a3565b91909182516001600160401b038111611587576134f4816134ee8454611499565b8461347b565b6020601f821160011461353557819061352693949560009261352a575b50508160011b916000199060031b1c19161790565b9055565b015190503880613511565b601f1982169061354a84600052602060002090565b9160005b8181106135865750958360019596971061356d575b505050811b019055565b015160001960f88460031b161c19169055388080613563565b9192602060018192868b01518155019401920161354e565b602081016020825282518091526040820191602060408360051b8301019401926000915b8383106135d157505050505090565b9091929394602080613614600193603f19868203018752606060408b5163ffffffff815116845261ffff8682015116868501520151918160408201520190610750565b970193019301919392906135c2565b60005b81518110156136b35780613649604061364160019486613467565b5101516136ea565b6136ad60406136588386613467565b51015163ffffffff61366a8487613467565b51511660005260036020526136a86040600020613696602061368c878a613467565b51015161ffff1690565b61ffff16600052602052604060002090565b6134cd565b01613626565b506136e57fbe4864a8e820971c0247f5992e2da559595f7bf076a21cb5928d443d2a13b674916040519182918261359e565b0390a1565b600361ffff600283015116036136fd5750565b604051639a6d49cd60e01b81526020600482015290819061207d906024830190610750565b906080828203126105175761375c90604080519361373f8561158c565b80518552602081015161375181612cb9565b602086015201613277565b604082015290565b6137c1608094926137dd9694613778612da2565b5060206137858651613a4a565b950191825180613846575b5061379a85612e46565b92511515926137aa61135c6129b1565b602086015260408501526060840152151585830152565b6040518095819482936302637a4560e41b8452600484016132b3565b03917f00000000000000000000000000000000000000000000000000000000000000006001600160a01b03165af190811561071d5760009161381d575090565b610786915060803d60801161383f575b61383781836115a7565b810190613722565b503d61382d565b61384f90613a69565b38613790565b6001600160a01b0316908115610917576001600160a01b038116156109015761389c91600052600660205260406000209060018060a01b0316600052602052604060002090565b55565b81156138a9570490565b634e487b7160e01b600052601260045260246000fd5b8181029291811591840414171561244357565b90602011610517573590565b90600090602811610bb857506020013560c01c90565b610786906001600160401b037f000000000000000000000000000000000000000000000000000000000000000091166138bf565b816001600160a01b03821615613942575b61078691613321565b61dead9150613939565b919060009281602811611eb2579192506107869136916027190190602801612ad6565b604c9193610786936040519586936001600160401b0360c01b9060c01b16602085015263ffffffff60e01b9060e01b166028840152602c8301526139bc815180926020868601910161072d565b81010301601f1981018352826115a7565b82511580159390613a1b57613a189160689160405194859260208401526001600160401b0360c01b9060c01b1660408301523360488301526139bc815180926020868601910161072d565b91565b50906040519160208301526001600160401b0360c01b9060c01b16604082015260288152613a186048826115a7565b803403613a545790565b6304fb820960e51b6000523460045260246000fd5b60405163393f876560e21b81527f00000000000000000000000000000000000000000000000000000000000000006001600160a01b03169190602081600481865afa90811561071d57600091613b8b575b506001600160a01b0316918215613b7a576040516323b872dd60e01b602082019081523360248301526001600160a01b03929092166044820152606480820193909352918252613b29916000918291613b146084826115a7565b519082865af1613b22612a15565b9083613baa565b8051908115159182613b5c575b5050613b3f5750565b635274afe760e01b6000526001600160a01b031660045260246000fd5b613b739250906020806120dd938301019101612a8d565b3880613b36565b6329b99a9560e11b60005260046000fd5b613ba4915060203d6020116107165761070881836115a7565b38613aba565b90613bd05750805115613bbf57805190602001fd5b630a12f52160e11b60005260046000fd5b81511580613c02575b613be1575090565b639996b31560e01b60009081526001600160a01b0391909116600452602490fd5b50803b15613bd956fea26469706673582212202c6001a83d13be3ec38f2c23d9d214ca8c2c833201167f051864c4d420f5280364736f6c634300081a00332f8788117e7eff1d82e926ec794901d17c78024a50270940304540a733656f0d6098f29d1f6aa27be29332f9655d270d7a5ac647ec9d1c81b8ae9b629fe1a58f9b2788bb01a4e5439054acd1f78f40f2a154f25e1d2631076a79a383f587848a000000000000000000000000bfc57b070b1eda0fcb9c203edc1085c626f3a36d97667070c54ef182b0f5858b034beac1b6f3089aa2d3188bb1e8929f4fa9b929b7ebe05d53daa321d1465375ee3bf28142221cf52659ef7d17ff7e160b91ad7f","linkReferences":{}},"methodIdentifiers":{"DEFAULT_ADMIN_ROLE()":"a217fddf","DENOM()":"16343da4","MINTER_ROLE()":"d5391393","OPERATIONS()":"fd4e36ec","OPERATOR_ROLE()":"f5b541a6","SEND()":"1f5e1334","SEND_AND_CALL()":"134d4f25","WETH()":"ad5c4648","aToken()":"a0c1f15e","aavePool()":"a03e4bc3","allowInitializePath((uint32,bytes32,uint64))":"ff7bd03d","allowance(address,address)":"dd62ed3e","approvalRequired()":"9f68b964","approve(address,uint256)":"095ea7b3","autoRewarder()":"09bca7a1","balanceOf(address)":"70a08231","changeRecipient(address)":"92c2bcb4","changeShares(uint256,uint256)":"cf0eed38","combineOptions(uint32,uint16,bytes)":"bc70b354","decimalConversionRate()":"963efcaa","decimals()":"313ce567","endpoint()":"5e280f11","enforcedOptions(uint32,uint16)":"5535d461","ercWETH()":"6e4791f8","execute(address,bytes)":"1cff79cd","getRoleAdmin(bytes32)":"248a9ca3","grantRole(bytes32,address)":"2f2ff15d","hasRole(bytes32,address)":"91d14854","incentivesRecipient()":"15ac86f3","init(address,address,address,address)":"06552ff3","isComposeMsgSender((uint32,bytes32,uint64),bytes,address)":"82413eac","isPeer(uint32,bytes32)":"5a0dfe4d","lzReceive((uint32,bytes32,uint64),bytes32,bytes,address,bytes)":"13137d65","lzReceiveAndRevert(((uint32,bytes32,uint64),uint32,address,bytes32,uint256,address,bytes,bytes)[])":"bd815db0","lzReceiveSimulate((uint32,bytes32,uint64),bytes32,bytes,address,bytes)":"d045a0dc","mint(uint256)":"a0712d68","msgInspector()":"111ecdad","name()":"06fdde03","nativeMint()":"eda62134","nextNonce(uint32,bytes32)":"7d25a05e","oApp()":"52ae2879","oAppVersion()":"17442b70","oftVersion()":"156a0d0f","owner()":"8da5cb5b","paused()":"5c975abb","peers(uint32)":"bb0b6a53","preCrime()":"b731ea0a","quoteOFT((uint32,bytes32,uint256,uint256,bytes,bytes,bytes))":"0d35b415","quoteSend((uint32,bytes32,uint256,uint256,bytes,bytes,bytes),bool)":"3b6f743b","redeemShareEth()":"3dffe51f","redeemTokens(uint256)":"a6e158f8","renounceOwnership()":"715018a6","renounceRole(bytes32,address)":"36568abe","revokeRole(bytes32,address)":"d547741f","send((uint32,bytes32,uint256,uint256,bytes,bytes,bytes),(uint256,uint256),address)":"c7c7f5b3","setDelegate(address)":"ca5eb5e1","setEnforcedOptions((uint32,uint16,bytes)[])":"b98bd070","setMsgInspector(address)":"6fc1b31e","setPaused(bool)":"16c38b3c","setPeer(uint32,bytes32)":"3400288b","setPreCrime(address)":"d4243885","shareT()":"ae334602","shareU()":"d453a560","sharedDecimals()":"857749b0","supportsInterface(bytes4)":"01ffc9a7","symbol()":"95d89b41","toggleAutoRewarder()":"a55b3d4d","token()":"fc0c546a","totalDepositedEther()":"9b4d51f4","totalSupply()":"18160ddd","transfer(address,uint256)":"a9059cbb","transferFrom(address,address,uint256)":"23b872dd","transferOwnership(address)":"f2fde38b","underlying()":"6f307dc3","wtg()":"c5283ef2"},"id":65}