{"abi":[{"type":"constructor","inputs":[{"name":"_endpoint","type":"address","internalType":"address"},{"name":"_weth","type":"address","internalType":"address"}],"stateMutability":"nonpayable"},{"type":"receive","stateMutability":"payable"},{"type":"function","name":"DEFAULT_ADMIN_ROLE","inputs":[],"outputs":[{"name":"","type":"bytes32","internalType":"bytes32"}],"stateMutability":"view"},{"type":"function","name":"DENOM","inputs":[],"outputs":[{"name":"","type":"uint256","internalType":"uint256"}],"stateMutability":"view"},{"type":"function","name":"MINTER_ROLE","inputs":[],"outputs":[{"name":"","type":"bytes32","internalType":"bytes32"}],"stateMutability":"view"},{"type":"function","name":"OPERATIONS","inputs":[],"outputs":[{"name":"","type":"address","internalType":"address"}],"stateMutability":"view"},{"type":"function","name":"OPERATOR_ROLE","inputs":[],"outputs":[{"name":"","type":"bytes32","internalType":"bytes32"}],"stateMutability":"view"},{"type":"function","name":"SEND","inputs":[],"outputs":[{"name":"","type":"uint16","internalType":"uint16"}],"stateMutability":"view"},{"type":"function","name":"SEND_AND_CALL","inputs":[],"outputs":[{"name":"","type":"uint16","internalType":"uint16"}],"stateMutability":"view"},{"type":"function","name":"WETH","inputs":[],"outputs":[{"name":"","type":"address","internalType":"contract IWETH"}],"stateMutability":"view"},{"type":"function","name":"aToken","inputs":[],"outputs":[{"name":"","type":"address","internalType":"contract IAToken"}],"stateMutability":"view"},{"type":"function","name":"allowInitializePath","inputs":[{"name":"origin","type":"tuple","internalType":"struct Origin","components":[{"name":"srcEid","type":"uint32","internalType":"uint32"},{"name":"sender","type":"bytes32","internalType":"bytes32"},{"name":"nonce","type":"uint64","internalType":"uint64"}]}],"outputs":[{"name":"","type":"bool","internalType":"bool"}],"stateMutability":"view"},{"type":"function","name":"allowance","inputs":[{"name":"owner","type":"address","internalType":"address"},{"name":"spender","type":"address","internalType":"address"}],"outputs":[{"name":"","type":"uint256","internalType":"uint256"}],"stateMutability":"view"},{"type":"function","name":"approvalRequired","inputs":[],"outputs":[{"name":"","type":"bool","internalType":"bool"}],"stateMutability":"pure"},{"type":"function","name":"approve","inputs":[{"name":"spender","type":"address","internalType":"address"},{"name":"value","type":"uint256","internalType":"uint256"}],"outputs":[{"name":"","type":"bool","internalType":"bool"}],"stateMutability":"nonpayable"},{"type":"function","name":"balanceOf","inputs":[{"name":"account","type":"address","internalType":"address"}],"outputs":[{"name":"","type":"uint256","internalType":"uint256"}],"stateMutability":"view"},{"type":"function","name":"changeRecipient","inputs":[{"name":"_ir","type":"address","internalType":"address"}],"outputs":[],"stateMutability":"nonpayable"},{"type":"function","name":"changeShares","inputs":[{"name":"_shareU","type":"uint256","internalType":"uint256"},{"name":"_shareT","type":"uint256","internalType":"uint256"}],"outputs":[],"stateMutability":"nonpayable"},{"type":"function","name":"combineOptions","inputs":[{"name":"_eid","type":"uint32","internalType":"uint32"},{"name":"_msgType","type":"uint16","internalType":"uint16"},{"name":"_extraOptions","type":"bytes","internalType":"bytes"}],"outputs":[{"name":"","type":"bytes","internalType":"bytes"}],"stateMutability":"view"},{"type":"function","name":"decimalConversionRate","inputs":[],"outputs":[{"name":"","type":"uint256","internalType":"uint256"}],"stateMutability":"view"},{"type":"function","name":"decimals","inputs":[],"outputs":[{"name":"","type":"uint8","internalType":"uint8"}],"stateMutability":"pure"},{"type":"function","name":"endpoint","inputs":[],"outputs":[{"name":"","type":"address","internalType":"contract ILayerZeroEndpointV2"}],"stateMutability":"view"},{"type":"function","name":"enforcedOptions","inputs":[{"name":"eid","type":"uint32","internalType":"uint32"},{"name":"msgType","type":"uint16","internalType":"uint16"}],"outputs":[{"name":"enforcedOption","type":"bytes","internalType":"bytes"}],"stateMutability":"view"},{"type":"function","name":"ercWETH","inputs":[],"outputs":[{"name":"","type":"address","internalType":"contract IERC20"}],"stateMutability":"view"},{"type":"function","name":"execute","inputs":[{"name":"_x","type":"address","internalType":"address"},{"name":"_data","type":"bytes","internalType":"bytes"}],"outputs":[],"stateMutability":"nonpayable"},{"type":"function","name":"getRoleAdmin","inputs":[{"name":"role","type":"bytes32","internalType":"bytes32"}],"outputs":[{"name":"","type":"bytes32","internalType":"bytes32"}],"stateMutability":"view"},{"type":"function","name":"grantRole","inputs":[{"name":"role","type":"bytes32","internalType":"bytes32"},{"name":"account","type":"address","internalType":"address"}],"outputs":[],"stateMutability":"nonpayable"},{"type":"function","name":"hasRole","inputs":[{"name":"role","type":"bytes32","internalType":"bytes32"},{"name":"account","type":"address","internalType":"address"}],"outputs":[{"name":"","type":"bool","internalType":"bool"}],"stateMutability":"view"},{"type":"function","name":"highestProcessedID","inputs":[],"outputs":[{"name":"","type":"uint256","internalType":"uint256"}],"stateMutability":"view"},{"type":"function","name":"incentivesRecipient","inputs":[],"outputs":[{"name":"","type":"address","internalType":"contract IRewarder"}],"stateMutability":"view"},{"type":"function","name":"init","inputs":[{"name":"_aToken","type":"address","internalType":"address"},{"name":"_incentivesRecipient","type":"address","internalType":"address"},{"name":"_gateway","type":"address","internalType":"address"}],"outputs":[],"stateMutability":"nonpayable"},{"type":"function","name":"isComposeMsgSender","inputs":[{"name":"","type":"tuple","internalType":"struct Origin","components":[{"name":"srcEid","type":"uint32","internalType":"uint32"},{"name":"sender","type":"bytes32","internalType":"bytes32"},{"name":"nonce","type":"uint64","internalType":"uint64"}]},{"name":"","type":"bytes","internalType":"bytes"},{"name":"_sender","type":"address","internalType":"address"}],"outputs":[{"name":"","type":"bool","internalType":"bool"}],"stateMutability":"view"},{"type":"function","name":"isPeer","inputs":[{"name":"_eid","type":"uint32","internalType":"uint32"},{"name":"_peer","type":"bytes32","internalType":"bytes32"}],"outputs":[{"name":"","type":"bool","internalType":"bool"}],"stateMutability":"view"},{"type":"function","name":"lastProcessedID","inputs":[],"outputs":[{"name":"","type":"uint256","internalType":"uint256"}],"stateMutability":"view"},{"type":"function","name":"lzReceive","inputs":[{"name":"_origin","type":"tuple","internalType":"struct Origin","components":[{"name":"srcEid","type":"uint32","internalType":"uint32"},{"name":"sender","type":"bytes32","internalType":"bytes32"},{"name":"nonce","type":"uint64","internalType":"uint64"}]},{"name":"_guid","type":"bytes32","internalType":"bytes32"},{"name":"_message","type":"bytes","internalType":"bytes"},{"name":"_executor","type":"address","internalType":"address"},{"name":"_extraData","type":"bytes","internalType":"bytes"}],"outputs":[],"stateMutability":"payable"},{"type":"function","name":"lzReceiveAndRevert","inputs":[{"name":"_packets","type":"tuple[]","internalType":"struct InboundPacket[]","components":[{"name":"origin","type":"tuple","internalType":"struct Origin","components":[{"name":"srcEid","type":"uint32","internalType":"uint32"},{"name":"sender","type":"bytes32","internalType":"bytes32"},{"name":"nonce","type":"uint64","internalType":"uint64"}]},{"name":"dstEid","type":"uint32","internalType":"uint32"},{"name":"receiver","type":"address","internalType":"address"},{"name":"guid","type":"bytes32","internalType":"bytes32"},{"name":"value","type":"uint256","internalType":"uint256"},{"name":"executor","type":"address","internalType":"address"},{"name":"message","type":"bytes","internalType":"bytes"},{"name":"extraData","type":"bytes","internalType":"bytes"}]}],"outputs":[],"stateMutability":"payable"},{"type":"function","name":"lzReceiveSimulate","inputs":[{"name":"_origin","type":"tuple","internalType":"struct Origin","components":[{"name":"srcEid","type":"uint32","internalType":"uint32"},{"name":"sender","type":"bytes32","internalType":"bytes32"},{"name":"nonce","type":"uint64","internalType":"uint64"}]},{"name":"_guid","type":"bytes32","internalType":"bytes32"},{"name":"_message","type":"bytes","internalType":"bytes"},{"name":"_executor","type":"address","internalType":"address"},{"name":"_extraData","type":"bytes","internalType":"bytes"}],"outputs":[],"stateMutability":"payable"},{"type":"function","name":"minReq","inputs":[],"outputs":[{"name":"","type":"uint256","internalType":"uint256"}],"stateMutability":"view"},{"type":"function","name":"mint","inputs":[{"name":"_amount","type":"uint256","internalType":"uint256"}],"outputs":[],"stateMutability":"nonpayable"},{"type":"function","name":"msgInspector","inputs":[],"outputs":[{"name":"","type":"address","internalType":"address"}],"stateMutability":"view"},{"type":"function","name":"name","inputs":[],"outputs":[{"name":"","type":"string","internalType":"string"}],"stateMutability":"view"},{"type":"function","name":"nativeMint","inputs":[],"outputs":[],"stateMutability":"payable"},{"type":"function","name":"nextNonce","inputs":[{"name":"","type":"uint32","internalType":"uint32"},{"name":"","type":"bytes32","internalType":"bytes32"}],"outputs":[{"name":"nonce","type":"uint64","internalType":"uint64"}],"stateMutability":"view"},{"type":"function","name":"oApp","inputs":[],"outputs":[{"name":"","type":"address","internalType":"address"}],"stateMutability":"view"},{"type":"function","name":"oAppVersion","inputs":[],"outputs":[{"name":"senderVersion","type":"uint64","internalType":"uint64"},{"name":"receiverVersion","type":"uint64","internalType":"uint64"}],"stateMutability":"pure"},{"type":"function","name":"oftVersion","inputs":[],"outputs":[{"name":"interfaceId","type":"bytes4","internalType":"bytes4"},{"name":"version","type":"uint64","internalType":"uint64"}],"stateMutability":"pure"},{"type":"function","name":"owner","inputs":[],"outputs":[{"name":"","type":"address","internalType":"address"}],"stateMutability":"view"},{"type":"function","name":"paused","inputs":[],"outputs":[{"name":"","type":"bool","internalType":"bool"}],"stateMutability":"view"},{"type":"function","name":"payloads","inputs":[{"name":"","type":"uint256","internalType":"uint256"}],"outputs":[{"name":"owner","type":"address","internalType":"address"},{"name":"amount","type":"uint256","internalType":"uint256"},{"name":"fulfilled","type":"bool","internalType":"bool"}],"stateMutability":"view"},{"type":"function","name":"peers","inputs":[{"name":"eid","type":"uint32","internalType":"uint32"}],"outputs":[{"name":"peer","type":"bytes32","internalType":"bytes32"}],"stateMutability":"view"},{"type":"function","name":"preCrime","inputs":[],"outputs":[{"name":"","type":"address","internalType":"address"}],"stateMutability":"view"},{"type":"function","name":"processRedemptions","inputs":[{"name":"_redemptionIDs","type":"uint256[]","internalType":"uint256[]"}],"outputs":[],"stateMutability":"nonpayable"},{"type":"function","name":"quoteOFT","inputs":[{"name":"_sendParam","type":"tuple","internalType":"struct SendParam","components":[{"name":"dstEid","type":"uint32","internalType":"uint32"},{"name":"to","type":"bytes32","internalType":"bytes32"},{"name":"amountLD","type":"uint256","internalType":"uint256"},{"name":"minAmountLD","type":"uint256","internalType":"uint256"},{"name":"extraOptions","type":"bytes","internalType":"bytes"},{"name":"composeMsg","type":"bytes","internalType":"bytes"},{"name":"oftCmd","type":"bytes","internalType":"bytes"}]}],"outputs":[{"name":"oftLimit","type":"tuple","internalType":"struct OFTLimit","components":[{"name":"minAmountLD","type":"uint256","internalType":"uint256"},{"name":"maxAmountLD","type":"uint256","internalType":"uint256"}]},{"name":"oftFeeDetails","type":"tuple[]","internalType":"struct OFTFeeDetail[]","components":[{"name":"feeAmountLD","type":"int256","internalType":"int256"},{"name":"description","type":"string","internalType":"string"}]},{"name":"oftReceipt","type":"tuple","internalType":"struct OFTReceipt","components":[{"name":"amountSentLD","type":"uint256","internalType":"uint256"},{"name":"amountReceivedLD","type":"uint256","internalType":"uint256"}]}],"stateMutability":"view"},{"type":"function","name":"quoteSend","inputs":[{"name":"_sendParam","type":"tuple","internalType":"struct SendParam","components":[{"name":"dstEid","type":"uint32","internalType":"uint32"},{"name":"to","type":"bytes32","internalType":"bytes32"},{"name":"amountLD","type":"uint256","internalType":"uint256"},{"name":"minAmountLD","type":"uint256","internalType":"uint256"},{"name":"extraOptions","type":"bytes","internalType":"bytes"},{"name":"composeMsg","type":"bytes","internalType":"bytes"},{"name":"oftCmd","type":"bytes","internalType":"bytes"}]},{"name":"_payInLzToken","type":"bool","internalType":"bool"}],"outputs":[{"name":"msgFee","type":"tuple","internalType":"struct MessagingFee","components":[{"name":"nativeFee","type":"uint256","internalType":"uint256"},{"name":"lzTokenFee","type":"uint256","internalType":"uint256"}]}],"stateMutability":"view"},{"type":"function","name":"redeemShareEth","inputs":[],"outputs":[{"name":"","type":"uint256","internalType":"uint256"}],"stateMutability":"view"},{"type":"function","name":"renounceOwnership","inputs":[],"outputs":[],"stateMutability":"nonpayable"},{"type":"function","name":"renounceRole","inputs":[{"name":"role","type":"bytes32","internalType":"bytes32"},{"name":"callerConfirmation","type":"address","internalType":"address"}],"outputs":[],"stateMutability":"nonpayable"},{"type":"function","name":"requestRedemption","inputs":[{"name":"_amount","type":"uint256","internalType":"uint256"}],"outputs":[],"stateMutability":"nonpayable"},{"type":"function","name":"revokeRole","inputs":[{"name":"role","type":"bytes32","internalType":"bytes32"},{"name":"account","type":"address","internalType":"address"}],"outputs":[],"stateMutability":"nonpayable"},{"type":"function","name":"send","inputs":[{"name":"_sendParam","type":"tuple","internalType":"struct SendParam","components":[{"name":"dstEid","type":"uint32","internalType":"uint32"},{"name":"to","type":"bytes32","internalType":"bytes32"},{"name":"amountLD","type":"uint256","internalType":"uint256"},{"name":"minAmountLD","type":"uint256","internalType":"uint256"},{"name":"extraOptions","type":"bytes","internalType":"bytes"},{"name":"composeMsg","type":"bytes","internalType":"bytes"},{"name":"oftCmd","type":"bytes","internalType":"bytes"}]},{"name":"_fee","type":"tuple","internalType":"struct MessagingFee","components":[{"name":"nativeFee","type":"uint256","internalType":"uint256"},{"name":"lzTokenFee","type":"uint256","internalType":"uint256"}]},{"name":"_refundAddress","type":"address","internalType":"address"}],"outputs":[{"name":"msgReceipt","type":"tuple","internalType":"struct MessagingReceipt","components":[{"name":"guid","type":"bytes32","internalType":"bytes32"},{"name":"nonce","type":"uint64","internalType":"uint64"},{"name":"fee","type":"tuple","internalType":"struct MessagingFee","components":[{"name":"nativeFee","type":"uint256","internalType":"uint256"},{"name":"lzTokenFee","type":"uint256","internalType":"uint256"}]}]},{"name":"oftReceipt","type":"tuple","internalType":"struct OFTReceipt","components":[{"name":"amountSentLD","type":"uint256","internalType":"uint256"},{"name":"amountReceivedLD","type":"uint256","internalType":"uint256"}]}],"stateMutability":"payable"},{"type":"function","name":"setDelegate","inputs":[{"name":"_delegate","type":"address","internalType":"address"}],"outputs":[],"stateMutability":"nonpayable"},{"type":"function","name":"setEnforcedOptions","inputs":[{"name":"_enforcedOptions","type":"tuple[]","internalType":"struct EnforcedOptionParam[]","components":[{"name":"eid","type":"uint32","internalType":"uint32"},{"name":"msgType","type":"uint16","internalType":"uint16"},{"name":"options","type":"bytes","internalType":"bytes"}]}],"outputs":[],"stateMutability":"nonpayable"},{"type":"function","name":"setMinReq","inputs":[{"name":"_min","type":"uint256","internalType":"uint256"}],"outputs":[],"stateMutability":"nonpayable"},{"type":"function","name":"setMsgInspector","inputs":[{"name":"_msgInspector","type":"address","internalType":"address"}],"outputs":[],"stateMutability":"nonpayable"},{"type":"function","name":"setPaused","inputs":[{"name":"_status","type":"bool","internalType":"bool"}],"outputs":[],"stateMutability":"nonpayable"},{"type":"function","name":"setPeer","inputs":[{"name":"_eid","type":"uint32","internalType":"uint32"},{"name":"_peer","type":"bytes32","internalType":"bytes32"}],"outputs":[],"stateMutability":"nonpayable"},{"type":"function","name":"setPreCrime","inputs":[{"name":"_preCrime","type":"address","internalType":"address"}],"outputs":[],"stateMutability":"nonpayable"},{"type":"function","name":"shareT","inputs":[],"outputs":[{"name":"","type":"uint256","internalType":"uint256"}],"stateMutability":"view"},{"type":"function","name":"shareU","inputs":[],"outputs":[{"name":"","type":"uint256","internalType":"uint256"}],"stateMutability":"view"},{"type":"function","name":"sharedDecimals","inputs":[],"outputs":[{"name":"","type":"uint8","internalType":"uint8"}],"stateMutability":"view"},{"type":"function","name":"supportsInterface","inputs":[{"name":"interfaceId","type":"bytes4","internalType":"bytes4"}],"outputs":[{"name":"","type":"bool","internalType":"bool"}],"stateMutability":"view"},{"type":"function","name":"symbol","inputs":[],"outputs":[{"name":"","type":"string","internalType":"string"}],"stateMutability":"view"},{"type":"function","name":"token","inputs":[],"outputs":[{"name":"","type":"address","internalType":"address"}],"stateMutability":"view"},{"type":"function","name":"totalDepositedEther","inputs":[],"outputs":[{"name":"","type":"uint256","internalType":"uint256"}],"stateMutability":"view"},{"type":"function","name":"totalSupply","inputs":[],"outputs":[{"name":"","type":"uint256","internalType":"uint256"}],"stateMutability":"view"},{"type":"function","name":"transfer","inputs":[{"name":"to","type":"address","internalType":"address"},{"name":"value","type":"uint256","internalType":"uint256"}],"outputs":[{"name":"","type":"bool","internalType":"bool"}],"stateMutability":"nonpayable"},{"type":"function","name":"transferFrom","inputs":[{"name":"from","type":"address","internalType":"address"},{"name":"to","type":"address","internalType":"address"},{"name":"value","type":"uint256","internalType":"uint256"}],"outputs":[{"name":"","type":"bool","internalType":"bool"}],"stateMutability":"nonpayable"},{"type":"function","name":"transferOwnership","inputs":[{"name":"newOwner","type":"address","internalType":"address"}],"outputs":[],"stateMutability":"nonpayable"},{"type":"function","name":"underlying","inputs":[],"outputs":[{"name":"","type":"address","internalType":"contract IERC20"}],"stateMutability":"view"},{"type":"function","name":"wtg","inputs":[],"outputs":[{"name":"","type":"address","internalType":"contract IWrappedTokenGatewayV3"}],"stateMutability":"view"},{"type":"event","name":"Approval","inputs":[{"name":"owner","type":"address","indexed":true,"internalType":"address"},{"name":"spender","type":"address","indexed":true,"internalType":"address"},{"name":"value","type":"uint256","indexed":false,"internalType":"uint256"}],"anonymous":false},{"type":"event","name":"EnforcedOptionSet","inputs":[{"name":"_enforcedOptions","type":"tuple[]","indexed":false,"internalType":"struct EnforcedOptionParam[]","components":[{"name":"eid","type":"uint32","internalType":"uint32"},{"name":"msgType","type":"uint16","internalType":"uint16"},{"name":"options","type":"bytes","internalType":"bytes"}]}],"anonymous":false},{"type":"event","name":"MinReqSet","inputs":[{"name":"minReq","type":"uint256","indexed":true,"internalType":"uint256"}],"anonymous":false},{"type":"event","name":"Minted","inputs":[{"name":"user","type":"address","indexed":true,"internalType":"address"},{"name":"amount","type":"uint256","indexed":true,"internalType":"uint256"}],"anonymous":false},{"type":"event","name":"MsgInspectorSet","inputs":[{"name":"inspector","type":"address","indexed":false,"internalType":"address"}],"anonymous":false},{"type":"event","name":"OFTReceived","inputs":[{"name":"guid","type":"bytes32","indexed":true,"internalType":"bytes32"},{"name":"srcEid","type":"uint32","indexed":false,"internalType":"uint32"},{"name":"toAddress","type":"address","indexed":true,"internalType":"address"},{"name":"amountReceivedLD","type":"uint256","indexed":false,"internalType":"uint256"}],"anonymous":false},{"type":"event","name":"OFTSent","inputs":[{"name":"guid","type":"bytes32","indexed":true,"internalType":"bytes32"},{"name":"dstEid","type":"uint32","indexed":false,"internalType":"uint32"},{"name":"fromAddress","type":"address","indexed":true,"internalType":"address"},{"name":"amountSentLD","type":"uint256","indexed":false,"internalType":"uint256"},{"name":"amountReceivedLD","type":"uint256","indexed":false,"internalType":"uint256"}],"anonymous":false},{"type":"event","name":"OwnershipTransferred","inputs":[{"name":"previousOwner","type":"address","indexed":true,"internalType":"address"},{"name":"newOwner","type":"address","indexed":true,"internalType":"address"}],"anonymous":false},{"type":"event","name":"PausedContract","inputs":[{"name":"status","type":"bool","indexed":true,"internalType":"bool"}],"anonymous":false},{"type":"event","name":"PeerSet","inputs":[{"name":"eid","type":"uint32","indexed":false,"internalType":"uint32"},{"name":"peer","type":"bytes32","indexed":false,"internalType":"bytes32"}],"anonymous":false},{"type":"event","name":"PreCrimeSet","inputs":[{"name":"preCrimeAddress","type":"address","indexed":false,"internalType":"address"}],"anonymous":false},{"type":"event","name":"ProcessRedemption","inputs":[{"name":"requestID","type":"uint256","indexed":true,"internalType":"uint256"},{"name":"amount","type":"uint256","indexed":true,"internalType":"uint256"}],"anonymous":false},{"type":"event","name":"RequestRedemption","inputs":[{"name":"user","type":"address","indexed":true,"internalType":"address"},{"name":"amount","type":"uint256","indexed":true,"internalType":"uint256"}],"anonymous":false},{"type":"event","name":"RoleAdminChanged","inputs":[{"name":"role","type":"bytes32","indexed":true,"internalType":"bytes32"},{"name":"previousAdminRole","type":"bytes32","indexed":true,"internalType":"bytes32"},{"name":"newAdminRole","type":"bytes32","indexed":true,"internalType":"bytes32"}],"anonymous":false},{"type":"event","name":"RoleGranted","inputs":[{"name":"role","type":"bytes32","indexed":true,"internalType":"bytes32"},{"name":"account","type":"address","indexed":true,"internalType":"address"},{"name":"sender","type":"address","indexed":true,"internalType":"address"}],"anonymous":false},{"type":"event","name":"RoleRevoked","inputs":[{"name":"role","type":"bytes32","indexed":true,"internalType":"bytes32"},{"name":"account","type":"address","indexed":true,"internalType":"address"},{"name":"sender","type":"address","indexed":true,"internalType":"address"}],"anonymous":false},{"type":"event","name":"Transfer","inputs":[{"name":"from","type":"address","indexed":true,"internalType":"address"},{"name":"to","type":"address","indexed":true,"internalType":"address"},{"name":"value","type":"uint256","indexed":false,"internalType":"uint256"}],"anonymous":false},{"type":"error","name":"AccessControlBadConfirmation","inputs":[]},{"type":"error","name":"AccessControlUnauthorizedAccount","inputs":[{"name":"account","type":"address","internalType":"address"},{"name":"neededRole","type":"bytes32","internalType":"bytes32"}]},{"type":"error","name":"AddressEmptyCode","inputs":[{"name":"target","type":"address","internalType":"address"}]},{"type":"error","name":"AddressInsufficientBalance","inputs":[{"name":"account","type":"address","internalType":"address"}]},{"type":"error","name":"BelowMinimum","inputs":[]},{"type":"error","name":"ERC20InsufficientAllowance","inputs":[{"name":"spender","type":"address","internalType":"address"},{"name":"allowance","type":"uint256","internalType":"uint256"},{"name":"needed","type":"uint256","internalType":"uint256"}]},{"type":"error","name":"ERC20InsufficientBalance","inputs":[{"name":"sender","type":"address","internalType":"address"},{"name":"balance","type":"uint256","internalType":"uint256"},{"name":"needed","type":"uint256","internalType":"uint256"}]},{"type":"error","name":"ERC20InvalidApprover","inputs":[{"name":"approver","type":"address","internalType":"address"}]},{"type":"error","name":"ERC20InvalidReceiver","inputs":[{"name":"receiver","type":"address","internalType":"address"}]},{"type":"error","name":"ERC20InvalidSender","inputs":[{"name":"sender","type":"address","internalType":"address"}]},{"type":"error","name":"ERC20InvalidSpender","inputs":[{"name":"spender","type":"address","internalType":"address"}]},{"type":"error","name":"Failed","inputs":[]},{"type":"error","name":"FailedInnerCall","inputs":[]},{"type":"error","name":"Fulfilled","inputs":[]},{"type":"error","name":"InvalidDelegate","inputs":[]},{"type":"error","name":"InvalidEndpointCall","inputs":[]},{"type":"error","name":"InvalidLocalDecimals","inputs":[]},{"type":"error","name":"InvalidOptions","inputs":[{"name":"options","type":"bytes","internalType":"bytes"}]},{"type":"error","name":"LzTokenUnavailable","inputs":[]},{"type":"error","name":"NoChangeInBoolean","inputs":[]},{"type":"error","name":"NoPeer","inputs":[{"name":"eid","type":"uint32","internalType":"uint32"}]},{"type":"error","name":"NotEnoughNative","inputs":[{"name":"msgValue","type":"uint256","internalType":"uint256"}]},{"type":"error","name":"OnlyEndpoint","inputs":[{"name":"addr","type":"address","internalType":"address"}]},{"type":"error","name":"OnlyPeer","inputs":[{"name":"eid","type":"uint32","internalType":"uint32"},{"name":"sender","type":"bytes32","internalType":"bytes32"}]},{"type":"error","name":"OnlySelf","inputs":[]},{"type":"error","name":"OwnableInvalidOwner","inputs":[{"name":"owner","type":"address","internalType":"address"}]},{"type":"error","name":"OwnableUnauthorizedAccount","inputs":[{"name":"account","type":"address","internalType":"address"}]},{"type":"error","name":"Paused","inputs":[]},{"type":"error","name":"ReentrancyGuardReentrantCall","inputs":[]},{"type":"error","name":"SafeERC20FailedOperation","inputs":[{"name":"token","type":"address","internalType":"address"}]},{"type":"error","name":"SimulationResult","inputs":[{"name":"result","type":"bytes","internalType":"bytes"}]},{"type":"error","name":"SlippageExceeded","inputs":[{"name":"amountLD","type":"uint256","internalType":"uint256"},{"name":"minAmountLD","type":"uint256","internalType":"uint256"}]},{"type":"error","name":"Zero","inputs":[]}],"bytecode":{"object":"0x60e080604052346105005760009060408161486280380380916100228285610505565b8339810103126104fc57610041602061003a8361053e565b920161053e565b60405192610050604085610505565b600c84526b24b739b0b7329022ba3432b960a11b602085015260405192610078604085610505565b60058452640d2e88aa8960db1b602085015281546000805160206147c28339815191526001600160a01b031982168117845560405192916001600160a01b03167f8be0079c531659141344cd1fd0a4f28419497f9722a3daafe3b4186f6b6457e08580a36001600160a01b03166080819052803b156104f8578160248185809463ca5eb5e160e01b83526000805160206147c283398151915260048401525af180156104ed5782906104dd575b505064e8d4a5100060a05283516001600160401b0381116103ed57600854600181811c911680156104d3575b60208210146103cf57601f8111610470575b50602094601f821160011461040c579482939495829392610401575b50508160011b916000199060031b1c1916176008555b82516001600160401b0381116103ed57600954600181811c911680156103e3575b60208210146103cf57601f811161036c575b506020601f8211600114610309578293948293926102fe575b50508160011b916000199060031b1c1916176009555b6001600b81905561138860108190556011556012805460ff1916909117905566038d7ea4c680006015556103de601655601a55601480546001600160a01b0390921660c08190526001600160a81b0319909216909117600160a01b17905561025d610552565b506102666105ec565b5061026f610691565b5061027933610736565b50610283336107b2565b5061028d33610838565b50604051613e6390816108bf8239608051818181610a2d01528181610b4d0152818161135d015281816116da015281816123b2015281816139870152613c9a015260a0518181816112ad01528181611adb01528181613064015281816133aa0152613b24015260c05181611c930152f35b0151905038806101e1565b6009835280832090601f198316845b8181106103545750958360019596971061033b575b505050811b016009556101f7565b015160001960f88460031b161c1916905538808061032d565b9192602060018192868b015181550194019201610318565b600983527f6e1540171b6c0c960b71a7020d9f60077f6af931a8bbf590da0223dacf75c7af601f830160051c810191602084106103c5575b601f0160051c01905b8181106103ba57506101c8565b8381556001016103ad565b90915081906103a4565b634e487b7160e01b83526022600452602483fd5b90607f16906101b6565b634e487b7160e01b82526041600452602482fd5b01519050388061017f565b601f198216956008845280842091845b8881106104585750836001959697981061043f575b505050811b01600855610195565b015160001960f88460031b161c19169055388080610431565b9192602060018192868501518155019401920161041c565b600883527ff3f7a9fe364faab93b216da50a3214154f22a0a2b415b23a84c8169e8b636ee3601f830160051c810191602084106104c9575b601f0160051c01905b8181106104be5750610163565b8381556001016104b1565b90915081906104a8565b90607f1690610151565b6104e691610505565b3881610125565b6040513d84823e3d90fd5b8280fd5b5080fd5b600080fd5b601f909101601f19168101906001600160401b0382119082101761052857604052565b634e487b7160e01b600052604160045260246000fd5b51906001600160a01b038216820361050057565b6000805160206147c28339815191526000526000805160206148428339815191526020526000805160206147628339815191525460ff166105e7576000805160206147c28339815191526000818152600080516020614842833981519152602052600080516020614762833981519152805460ff191660011790553391906000805160206147228339815191528180a4600190565b600090565b6000805160206147c28339815191526000526000805160206147828339815191526020526000805160206148228339815191525460ff166105e7576000805160206147c28339815191526000818152600080516020614782833981519152602052600080516020614822833981519152805460ff191660011790553391906000805160206147e2833981519152906000805160206147228339815191529080a4600190565b6000805160206147c28339815191526000526000805160206147a28339815191526020526000805160206147428339815191525460ff166105e7576000805160206147c283398151915260008181526000805160206147a2833981519152602052600080516020614742833981519152805460ff19166001179055339190600080516020614802833981519152906000805160206147228339815191529080a4600190565b6001600160a01b0381166000908152600080516020614842833981519152602052604090205460ff166107ac576001600160a01b0316600081815260008051602061484283398151915260205260408120805460ff191660011790553391906000805160206147228339815191528180a4600190565b50600090565b6001600160a01b0381166000908152600080516020614782833981519152602052604090205460ff166107ac576001600160a01b0316600081815260008051602061478283398151915260205260408120805460ff191660011790553391906000805160206147e2833981519152906000805160206147228339815191529080a4600190565b6001600160a01b03811660009081526000805160206147a2833981519152602052604090205460ff166107ac576001600160a01b031660008181526000805160206147a283398151915260205260408120805460ff19166001179055339190600080516020614802833981519152906000805160206147228339815191529080a460019056fe6080604052600436101561001b575b361561001957600080fd5b005b60003560e01c806301ffc9a7146104f157806302844be8146104ec57806306fdde03146104e7578063095ea7b3146104e25780630d35b415146104dd578063111ecdad146104d857806313137d65146104d3578063134d4f25146104ce578063156a0d0f146104c957806315ac86f3146104c457806316343da4146104bf57806316c38b3c146104ba57806317442b70146104b557806318160ddd146104b0578063184b9559146104ab5780631cff79cd146104a65780631e876424146104a15780631f5e13341461049c57806323b872dd14610497578063248a9ca3146104925780632f2ff15d1461048d578063313ce567146104885780633400288b1461048357806336568abe1461047e5780633b6f743b146104795780633dffe51f1461047457806352ae2879146103845780635535d4611461046f578063590e15771461046a5780635a0dfe4d146104655780635c975abb146104605780635e280f111461045b5780636e4791f8146104565780636f307dc3146104515780636fc1b31e1461044c57806370a0823114610447578063715018a61461044257806376d54da91461043d5780637c60fa60146104385780637d25a05e1461043357806382413eac1461042e578063857749b0146104295780638da5cb5b1461042457806391d148541461041f57806392c2bcb41461041a57806395d89b4114610415578063963efcaa146104105780639b4d51f41461040b5780639f68b964146103fc578063a0712d6814610406578063a0c1f15e14610401578063a217fddf146103fc578063a9059cbb146103f7578063ad5c4648146103f2578063ae334602146103ed578063b54df1e3146103e8578063b731ea0a146103e3578063b98bd070146103de578063bb0b6a53146103d9578063bc70b354146103d4578063bd815db0146103cf578063c5283ef2146103ca578063c7c7f5b3146103c5578063ca5eb5e1146103c0578063cf0eed38146103bb578063d045a0dc146103b6578063d4243885146103b1578063d453a560146103ac578063d5391393146103a7578063d547741f146103a2578063dd62ed3e1461039d578063eda6213414610398578063eeb3c91014610393578063f2fde38b1461038e578063f5b541a614610389578063fc0c546a14610384578063fd4e36ec1461037f5763ff7bd03d0361000e57612a42565b612a13565b61141d565b6129d8565b61294b565b612853565b612652565b6125ef565b6125ac565b612571565b612553565b6124e3565b6124b0565b61242d565b612388565b612266565b6121ec565b612094565b612040565b612005565b611f22565b611ef9565b611d3a565b611cc2565b611c7d565b611c48565b611b1c565b611c1f565b611b38565b611afe565b611ac3565b611a1b565b6119bd565b611967565b61193e565b611922565b6118c4565b61189d565b61187f565b611861565b611808565b6117cb565b61175b565b611732565b611709565b6116c4565b61169e565b611656565b611606565b611587565b6113ff565b611249565b6111ff565b611178565b61114e565b611106565b6110d1565b611026565b61100a565b610fec565b610f32565b610d99565b610d7b565b610d59565b610cd0565b610ca9565b610c80565b610c59565b610c3d565b610a1a565b610943565b61085e565b6106e8565b6105fa565b61054c565b346105475760203660031901126105475760043563ffffffff60e01b811680910361054757602090637965db0b60e01b8114908115610536575b506040519015158152f35b6301ffc9a760e01b1490503861052b565b600080fd5b3461054757602036600319011261054757600435610568612fac565b806015557ff1926ea07dde239eae8ae4908a7cdc32f3f4d8f0bb11e89ea66e3f4453bc0638600080a2005b600091031261054757565b60005b8381106105b15750506000910152565b81810151838201526020016105a1565b906020916105da8151809281855285808601910161059e565b601f01601f1916010190565b9060206105f79281815201906105c1565b90565b3461054757600036600319011261054757604051600060085461061c81611458565b80845290600181169081156106b35750600114610654575b6106508361064481850382611566565b604051918291826105e6565b0390f35b600860009081527ff3f7a9fe364faab93b216da50a3214154f22a0a2b415b23a84c8169e8b636ee3939250905b80821061069957509091508101602001610644610634565b919260018160209254838588010152019101909291610681565b60ff191660208086019190915291151560051b840190910191506106449050610634565b6001600160a01b0381160361054757565b3461054757604036600319011261054757600435610705816106d7565b6024353315610799576001600160a01b03821691821561078357610749829133600052600660205260406000209060018060a01b0316600052602052604060002090565b5560405190815233907f8c5be1e5ebec7d5bd14f71427d1e84f3dd0314c0f7b2291e5b200ac8c7c3b92590602090a3602060405160018152f35b634a1406b160e11b600052600060045260246000fd5b63e602df0560e01b600052600060045260246000fd5b908160e09103126105475790565b939291906107d98560a081019260208091805184520151910152565b60a06040860152815180915260c0850190602060c08260051b8801019301916000905b82821061082257505050509060606108209294019060208091805184520151910152565b565b9091929360208061085060019360bf198c82030186526040838a5180518452015191818582015201906105c1565b9601920192019092916107fc565b34610547576020366003190112610547576004356001600160401b0381116105475761088e9036906004016107af565b610896612ab6565b5061089f612ab6565b506040516108ac8161152b565b600081526001600160401b0360208201526020604051926108cd8285611566565b60008452601f19820160005b81811061091f575050906109036106509260408101356108fd606083013592612ae6565b5061305b565b909161090d612a89565b928352820152604051938493846107bd565b839060405161092d8161152b565b60008152606083820152828289010152016108d9565b34610547576000366003190112610547576004546040516001600160a01b039091168152602090f35b606090600319011261054757600490565b9181601f84011215610547578235916001600160401b038311610547576020838186019501011161054757565b600319810160e0811261054757606060009112610a17575060049182606435926084356001600160401b03811161054757816109e791840161097d565b9390939260a4356109f7816106d7565b9260c4356001600160401b03811161054757610a13920161097d565b9091565b80fd5b610a23366109aa565b50919492915050337f00000000000000000000000000000000000000000000000000000000000000006001600160a01b031603610c28578135610a658161116a565b610a6e816130af565b906020840135809203610c01575050610a96610a8a8583613af4565b6001600160a01b031690565b93610abc610aac610aa78385613b00565b613b16565b610ab585612ae6565b5086613b4a565b91610ac78260281090565b610b1f575b5050610af87fefed6d3500546b29533b128a29e3a94d70788727f0507505ac12eaf2e578fd9c92612ae6565b6040805163ffffffff92909216825260208201929092526001600160a01b039490941693a3005b9082610b4a92610b44610b34604088016130e3565b93610b3e88612ae6565b92613b6e565b92613b91565b917f00000000000000000000000000000000000000000000000000000000000000006001600160a01b0316803b1561054757604051633e5ac80960e11b8152936000918591829084908290610ba4908b8d600485016130ed565b03925af1908115610bfc577fefed6d3500546b29533b128a29e3a94d70788727f0507505ac12eaf2e578fd9c93610af892610be1575b5092610acc565b80610bf06000610bf693611566565b80610593565b38610bda565b612b7a565b80610c1063ffffffff9261116a565b63309afaf360e21b6000521660045260245260446000fd5b6391ac5e4f60e01b6000523360045260246000fd5b3461054757600036600319011261054757602060405160028152f35b34610547576000366003190112610547576040805162b9270b60e21b815260016020820152f35b3461054757600036600319011261054757600d546040516001600160a01b039091168152602090f35b346105475760003660031901126105475760206040516127108152f35b8015150361054757565b3461054757602036600319011261054757600435610ced81610cc6565b610cf5612fac565b601454901515908160ff8260a01c16151514610d485760ff60a01b191660a082901b60ff60a01b16176014557f381650b81778988372e2fff8cd29c8b87a0a3db9e37b10c7b6f11d7adf303d9b600080a2005b6350faa11f60e11b60005260046000fd5b3461054757600036600319011261054757604080516001815260026020820152f35b34610547576000366003190112610547576020600754604051908152f35b3461054757606036600319011261054757610e78600435610db9816106d7565b610e5660243591610dc9836106d7565b610e3460443591610dd9836106d7565b610df873bfc57b070b1eda0fcb9c203edc1085c626f3a36d3314612af0565b610e12600160ff610e0b60125460ff1690565b1614612b2b565b600f80546001600160a01b0319166001600160a01b0392909216919091179055565b600e80546001600160a01b0319166001600160a01b0392909216919091179055565b600d80546001600160a01b0319166001600160a01b0392909216919091179055565b600f54600490602090610e93906001600160a01b0316610a8a565b6040516358b50cef60e11b815292839182905afa8015610bfc57610edc91600091610f03575b50600c80546001600160a01b0319166001600160a01b0392909216919091179055565b610019610ef3610eee60125460ff1690565b612b9c565b60ff1660ff196012541617601255565b610f25915060203d602011610f2b575b610f1d8183611566565b810190612b65565b38610eb9565b503d610f13565b3461054757604036600319011261054757600435610f4f816106d7565b6024356001600160401b03811161054757610f6e90369060040161097d565b3360009081527f13da86008ba1c6922daee3e07db95305ef49ebced9f5467a0b8613fcc6b343e3602052604090205490919060ff1615610fd25760008383828094610019966040519384928337810182815203925af1610fcc612bc8565b50612bf8565b63e2517d3f60e01b60005233600452600060245260446000fd5b34610547576000366003190112610547576020601754604051908152f35b3461054757600036600319011261054757602060405160018152f35b3461054757606036600319011261054757600435611043816106d7565b60243561104f816106d7565b6001600160a01b038216600090815260066020908152604080832033845290915290205491604435919060018401611098575b61108c9350613118565b60405160018152602090f35b8284106110b4576110af8361108c95033383613aaa565b611082565b8284637dc7a0d960e11b6000523360045260245260445260646000fd5b346105475760203660031901126105475760206110fe600435600052600a60205260016040600020015490565b604051908152f35b3461054757604036600319011261054757610019602435600435611129826106d7565b61114961114482600052600a60205260016040600020015490565b61301e565b613226565b3461054757600036600319011261054757602060405160128152f35b63ffffffff81160361054757565b34610547576040366003190112610547577f238399d427b947898edb290f5ff0f9109849b1c3ba196a42e35f00c50a54b98b6004356111b68161116a565b602435906111c26132ba565b63ffffffff81166000526001602052816040600020556111fa604051928392836020909392919363ffffffff60408201951681520152565b0390a1005b346105475760403660031901126105475760043560243561121f816106d7565b336001600160a01b0382160361123857610019916132e3565b63334bd91960e11b60005260046000fd5b34610547576040366003190112610547576004356001600160401b038111610547576112799036906004016107af565b60243561128581610cc6565b61128d612ab6565b508135916060810135906112d860408201356112a88661116a565b6112d37f000000000000000000000000000000000000000000000000000000000000000080926135ed565b6135da565b918083106113e75761135960408661133e876112f48888613393565b906112fe8561116a565b611306612ab6565b50611310856130af565b61132761131b612a98565b63ffffffff9097168752565b602086015285850152606084015215156080830152565b815180938192631bb8518b60e31b83523090600484016134df565b03817f00000000000000000000000000000000000000000000000000000000000000006001600160a01b03165afa8015610bfc57610650916000916113b8575b5060405191829182815181526020918201519181019190915260400190565b6113da915060403d6040116113e0575b6113d28183611566565b8101906134cb565b82611399565b503d6113c8565b826371c4efed60e01b60005260045260245260446000fd5b34610547576000366003190112610547576020601654604051908152f35b34610547576000366003190112610547576020604051308152f35b6024359061ffff8216820361054757565b359061ffff8216820361054757565b90600182811c92168015611488575b602083101461147257565b634e487b7160e01b600052602260045260246000fd5b91607f1691611467565b600092918154916114a283611458565b80835292600181169081156114f857506001146114be57505050565b60009081526020812093945091925b8383106114de575060209250010190565b6001816020929493945483858701015201910191906114cd565b915050602093945060ff929192191683830152151560051b010190565b634e487b7160e01b600052604160045260246000fd5b604081019081106001600160401b0382111761154657604052565b611515565b606081019081106001600160401b0382111761154657604052565b90601f801991011681019081106001600160401b0382111761154657604052565b34610547576040366003190112610547576106506115eb6115f26115df6004356115b08161116a565b63ffffffff6115bd611438565b9116600052600360205260406000209061ffff16600052602052604060002090565b60405192838092611492565b0382611566565b6040519182916020835260208301906105c1565b346105475760203660031901126105475760043560005260136020526060604060002060018060a01b038154169060ff600260018301549201541690604051928352602083015215156040820152f35b346105475760403660031901126105475760206116946004356116788161116a565b6024359063ffffffff1660005260016020526040600020541490565b6040519015158152f35b3461054757600036600319011261054757602060ff60145460a01c166040519015158152f35b34610547576000366003190112610547576040517f00000000000000000000000000000000000000000000000000000000000000006001600160a01b03168152602090f35b34610547576000366003190112610547576014546040516001600160a01b039091168152602090f35b3461054757600036600319011261054757600c546040516001600160a01b039091168152602090f35b34610547576020366003190112610547577ff0be4f1e87349231d80c36b33f9e8639658eeaf474014dee15a3e6a4d4414197602060043561179b816106d7565b6117a36132ba565b600480546001600160a01b0319166001600160a01b03929092169182179055604051908152a1005b34610547576020366003190112610547576004356117e8816106d7565b60018060a01b031660005260056020526020604060002054604051908152f35b34610547576000366003190112610547576118216132ba565b600080546001600160a01b0319811682556001600160a01b03167f8be0079c531659141344cd1fd0a4f28419497f9722a3daafe3b4186f6b6457e08280a3005b34610547576000366003190112610547576020601854604051908152f35b34610547576000366003190112610547576020601554604051908152f35b34610547576040366003190112610547576118b960043561116a565b602060405160008152f35b346105475760a0366003190112610547576118de3661096c565b506064356001600160401b038111610547576118fe90369060040161097d565b5050602060843561190e816106d7565b6040516001600160a01b0390911630148152f35b3461054757600036600319011261054757602060405160068152f35b34610547576000366003190112610547576000546040516001600160a01b039091168152602090f35b3461054757604036600319011261054757602060ff6119b160243560043561198e826106d7565b600052600a845260406000209060018060a01b0316600052602052604060002090565b54166040519015158152f35b34610547576020366003190112610547576004356119da816106d7565b6119f973bfc57b070b1eda0fcb9c203edc1085c626f3a36d3314612af0565b600d80546001600160a01b0319166001600160a01b0392909216919091179055005b34610547576000366003190112610547576040516000600954611a3d81611458565b80845290600181169081156106b35750600114611a64576106508361064481850382611566565b600960009081527f6e1540171b6c0c960b71a7020d9f60077f6af931a8bbf590da0223dacf75c7af939250905b808210611aa957509091508101602001610644610634565b919260018160209254838588010152019101909291611a91565b346105475760003660031901126105475760206040517f00000000000000000000000000000000000000000000000000000000000000008152f35b34610547576000366003190112610547576020601954604051908152f35b3461054757600036600319011261054757602060405160008152f35b3461054757602036600319011261054757600435611b70610a8a601454611b6560ff8260a01c1615612c10565b610a8a841515612c28565b6040516323b872dd60e01b81523360048201523060248201526044810183905290602090829060649082906000905af18015610bfc57611bf2575b50611bb6813361354d565b611bca611bc582601954612c55565b601955565b337f30385c845b448a36257a6a1716e6ad2e1bc2cbe333cde1e69fe849ad6511adfe600080a3005b611c139060203d602011611c18575b611c0b8183611566565b810190612c40565b611bab565b503d611c01565b3461054757600036600319011261054757600f546040516001600160a01b039091168152602090f35b3461054757604036600319011261054757611c72600435611c68816106d7565b6024359033613118565b602060405160018152f35b34610547576000366003190112610547576040517f00000000000000000000000000000000000000000000000000000000000000006001600160a01b03168152602090f35b34610547576000366003190112610547576020601154604051908152f35b906020600319830112610547576004356001600160401b0381116105475760040160009280601f83011215611d36578135936001600160401b038511610a1757506020808301928560051b010111610547579190565b8380fd5b3461054757611d4836611ce0565b90611d51612fac565b6018549160005b818110611d7c57610019611d768484611d7081612c8d565b91612c78565b35601755565b80611d8b611e72928486612c78565b35611da0816000526013602052604060002090565b90602060018301926000845494611df66002611dc2855460018060a01b031690565b9401611dde611dd9611dd5835460ff1690565b1590565b6135c2565b611de9881515612c28565b805460ff19166001179055565b55601454611e0c906001600160a01b0316610a8a565b611e23611e1b601654876135da565b6103e8900490565b6040516323b872dd60e01b815273bfc57b070b1eda0fcb9c203edc1085c626f3a36d60048201526001600160a01b03909316602484015260448301529095869190829060009082906064820190565b03925af1938415610bfc57600194611edd575b507f43f2f950d286d522845124951f0e87203ada04cbe702740e7c2702312ec15ed9600080a3611eb6818486612c78565b358510611ec4575b01611d58565b611ed8611ed2828587612c78565b35601855565b611ebe565b611ef49060203d8111611c1857611c0b8183611566565b611e85565b34610547576000366003190112610547576002546040516001600160a01b039091168152602090f35b3461054757611f3036611ce0565b90611f396132ba565b611f4282612acf565b90611f506040519283611566565b828252602082019260051b8101903682116105475780935b828510611f7857610019846137c9565b84356001600160401b038111610547578201906060823603126105475760405191611fa28361154b565b8035611fad8161116a565b8352611fbb60208201611449565b60208401526040810135906001600160401b03821161054757019036601f8301121561054757602092611ff5849336908581359101612c9c565b6040820152815201940193611f68565b346105475760203660031901126105475763ffffffff6004356120278161116a565b1660005260016020526020604060002054604051908152f35b346105475760603660031901126105475760043561205d8161116a565b612065611438565b604435906001600160401b038211610547576106509261208c6115f293369060040161097d565b929091612d5f565b61209d36611ce0565b60005b81811061211057604051638e9e709960e01b8152600081600481335afa8015610bfc576120e9916000916120ed575b50604051638351eea760e01b8152918291600483016105e6565b0390fd5b61210a91503d806000833e6121028183611566565b810190612eef565b826120cf565b61211b818385612e05565b90612149611dd561212b84612ae6565b60208501359063ffffffff1660005260016020526040600020541490565b6121e35760c08201359160a0810135612166610100830183612e28565b94909161217560e08501612e5a565b93612184610120820182612e28565b959095303b15610547576000966121b2926040519a8b9889978897633411683760e21b895260048901612e75565b0391305af1918215610bfc576001926121ce575b505b016120a0565b80610bf060006121dd93611566565b386121c6565b600191506121c8565b3461054757600036600319011261054757600e546040516001600160a01b039091168152602090f35b916080610820929493612255604060c0830197805184526001600160401b0360208201511660208501520151604083019060208091805184520151910152565b019060208091805184520151910152565b6080366003190112610547576004356001600160401b038111610547576122919036906004016107af565b6040366023190112610547576064356122a9816106d7565b6122b1612f4d565b506122ba612ab6565b506060820135906122d360408401356112a8853561116a565b918083106113e7575061230d906122ea83336139fb565b6122f48385613393565b6122fd86612ae6565b9161230736612f75565b9261390a565b90612316612a89565b928184528160208501527f85496b760a4b7f8d66384b9df21b381f5d1b1e79f229a47aaf4c232edc2fe59a61237661234f855193612ae6565b936040519181839233978460409194939263ffffffff606083019616825260208201520152565b0390a361065060405192839283612215565b346105475760006020366003190112610a1757806004356123a8816106d7565b6123b06132ba565b7f00000000000000000000000000000000000000000000000000000000000000006001600160a01b0316803b156124295760405163ca5eb5e160e01b81526001600160a01b0390921660048301529091908290602490829084905af18015610bfc57829061241b5780f35b61242491611566565b388180f35b5050fd5b346105475760403660031901126105475760043560243561246373bfc57b070b1eda0fcb9c203edc1085c626f3a36d3314612af0565b8180018083116124ab576127100361247d57601155601055005b60405162461bcd60e51b81526020600482015260066024820152652164656e6f6d60d01b6044820152606490fd5b612b86565b6124b9366109aa565b50505092903033036124d257610a96610a8a8583613af4565b63029a949d60e31b60005260046000fd5b34610547576020366003190112610547577fd48d879cef83a1c0bdda516f27b13ddb1b3f8bbac1c9e1511bb2a659c24277606020600435612523816106d7565b61252b6132ba565b600280546001600160a01b0319166001600160a01b03929092169182179055604051908152a1005b34610547576000366003190112610547576020601054604051908152f35b346105475760003660031901126105475760206040517f9f2df0fed2c77648de5860a4cc508cd0818c85b8b8a1ab4ceeef8d981c8956a68152f35b34610547576040366003190112610547576100196024356004356125cf826106d7565b6125ea61114482600052600a60205260016040600020015490565b6132e3565b34610547576040366003190112610547576020612649600435612611816106d7565b6024359061261e826106d7565b60018060a01b03166000526006835260406000209060018060a01b0316600052602052604060002090565b54604051908152f35b60003660031901126105475760145461267160ff8260a01c1615612c10565b6002600b541461284257610a8a612692916002600b55610a8a341515612c28565b6040516370a0823160e01b8152306004820152602081602481855afa8015610bfc576126c791600091612823575b5034612c55565b6040516370a0823160e01b815230600482015290602082602481865afa908115610bfc576126fe92600092612802575b5014612bf8565b6040516370a0823160e01b8152306004820152602081602481855afa908115610bfc5760009260209261276e9285916127d5575b5060405194858094819363a9059cbb60e01b83526004830191906020604084019373bfc57b070b1eda0fcb9c203edc1085c626f3a36d81520152565b03925af18015610bfc576127b8575b612787343361354d565b34337f30385c845b448a36257a6a1716e6ad2e1bc2cbe333cde1e69fe849ad6511adfe600080a36100196001600b55565b6127d09060203d602011611c1857611c0b8183611566565b61277d565b6127f59150843d86116127fb575b6127ed8183611566565b810190612f9d565b38612732565b503d6127e3565b61281c91925060203d6020116127fb576127ed8183611566565b90386126f7565b61283c915060203d6020116127fb576127ed8183611566565b386126c0565b633ee5aeb560e01b60005260046000fd5b346105475760203660031901126105475760043561287960ff60145460a01c1615612c10565b601554811061293a5761288c81336139fb565b601a5460001981146124ab576001612912910180601a556128cf6128ae612aa7565b33815291846020840152600060408401526000526013602052604060002090565b600260409160018060a01b038451166bffffffffffffffffffffffff60a01b8254161781556020840151600182015501910151151560ff80198354169116179055565b337fcea668eedb938d2e83b70708fc8b903ee54470d5127c7ab75c41c3782ff152e8600080a3005b63860b82a960e01b60005260046000fd5b3461054757602036600319011261054757600435612968816106d7565b6129706132ba565b6001600160a01b031680156129c257600080546001600160a01b03198116831782556001600160a01b0316907f8be0079c531659141344cd1fd0a4f28419497f9722a3daafe3b4186f6b6457e09080a3005b631e4fbdf760e01b600052600060045260246000fd5b346105475760003660031901126105475760206040517f97667070c54ef182b0f5858b034beac1b6f3089aa2d3188bb1e8929f4fa9b9298152f35b3461054757600036600319011261054757602060405173bfc57b070b1eda0fcb9c203edc1085c626f3a36d8152f35b34610547576060366003190112610547576020612a5e3661096c565b63ffffffff8135612a6e8161116a565b16600052600182528160406000205491013560405191148152f35b60405190610820604083611566565b6040519061082060a083611566565b60405190610820606083611566565b60405190612ac38261152b565b60006020838281520152565b6001600160401b0381116115465760051b60200190565b356105f78161116a565b15612af757565b60405162461bcd60e51b815260206004820152600c60248201526b1d5b985d5d1a1bdc9a5e995960a21b6044820152606490fd5b15612b3257565b60405162461bcd60e51b815260206004820152600b60248201526a1a5b9a5d1a585b1a5e995960aa1b6044820152606490fd5b9081602091031261054757516105f7816106d7565b6040513d6000823e3d90fd5b634e487b7160e01b600052601160045260246000fd5b60ff1660ff81146124ab5760010190565b6001600160401b03811161154657601f01601f191660200190565b3d15612bf3573d90612bd982612bad565b91612be76040519384611566565b82523d6000602084013e565b606090565b15612bff57565b63312d207360e11b60005260046000fd5b15612c1757565b6313d0ff5960e31b60005260046000fd5b15612c2f57565b63f456040360e01b60005260046000fd5b9081602091031261054757516105f781610cc6565b919082018092116124ab57565b634e487b7160e01b600052603260045260246000fd5b9190811015612c885760051b0190565b612c62565b6000198101919082116124ab57565b929192612ca882612bad565b91612cb66040519384611566565b829481845281830111610547578281602093846000960137010152565b909291928360021161054757831161054757600201916001190190565b602083610820939594956040519684612d12899651809287808a01910161059e565b8501918483013701016000815203601f198101845283611566565b908060209392818452848401376000828201840152601f01601f1916010190565b9160206105f7938181520191612d2d565b6115df6115eb9263ffffffff612d94939795969716600052600360205260406000209061ffff16600052602052604060002090565b805115612df7578315612df1576002841015612dc85750506120e9604051928392639a6d49cd60e01b845260048401612d4e565b909280612deb916105f794612de6612de1368484612c9c565b613890565b612cd3565b91612cf0565b92509050565b5091906105f7913691612c9c565b9190811015612c885760051b8101359061013e1981360301821215610547570190565b903590601e198136030182121561054757018035906001600160401b0382116105475760200191813603831361054757565b356105f7816106d7565b6001600160401b0381160361054757565b929093612ed1926001600160401b0360406105f79a98999763ffffffff8135612e9d8161116a565b168852602081013560208901520135612eb581612e64565b166040860152606085015260e0608085015260e0840191612d2d565b6001600160a01b0390941660a082015280840360c090910152612d2d565b602081830312610547578051906001600160401b038211610547570181601f82011215610547578051612f2181612bad565b92612f2f6040519485611566565b81845260208284010111610547576105f7916020808501910161059e565b60405190612f5a8261154b565b8160008152600060208201526040612f70612ab6565b910152565b60409060231901126105475760405190612f8e8261152b565b60243582526044356020830152565b90816020910312610547575190565b3360009081527f9b2788bb01a4e5439054acd1f78f40f2a154f25e1d2631076a79a383f587848a602052604090205460ff1615612fe557565b63e2517d3f60e01b600052336004527f97667070c54ef182b0f5858b034beac1b6f3089aa2d3188bb1e8929f4fa9b92960245260446000fd5b6000818152600a6020908152604080832033845290915290205460ff16156130435750565b63e2517d3f60e01b6000523360045260245260446000fd5b61308a906112d37f000000000000000000000000000000000000000000000000000000000000000080926135ed565b9182918084106130975750565b836371c4efed60e01b60005260045260245260446000fd5b63ffffffff168060005260016020526040600020549081156130cf575090565b63f6ff4fb760e01b60005260045260246000fd5b356105f781612e64565b6105f7939260809260018060a01b0316825260208201526000604082015281606082015201906105c1565b90916001600160a01b038216918215613210576001600160a01b0384169384156131fa576001600160a01b0382166000908152600560205260408120909290548481106131d457916131c1916131a6867fddf252ad1be2c89b69c2b068fc378daa952ba7f163c4a11628f55a4df523b3ef979695039160018060a01b03166000526005602052604060002090565b556001600160a01b0316600090815260056020526040902090565b80548301905550604051908152602090a3565b63391434e360e21b84526001600160a01b03909116600452602452506044829052606490fd5b63ec442f0560e01b600052600060045260246000fd5b634b637e8f60e11b600052600060045260246000fd5b6000818152600a602090815260408083206001600160a01b038616845290915290205460ff166132b3576000818152600a602090815260408083206001600160a01b03861684529091529020805460ff1916600117905533916001600160a01b0316907f2f8788117e7eff1d82e926ec794901d17c78024a50270940304540a733656f0d600080a4600190565b5050600090565b6000546001600160a01b031633036132ce57565b63118cdaa760e01b6000523360045260246000fd5b6000818152600a602090815260408083206001600160a01b038616845290915290205460ff16156132b3576000818152600a602090815260408083206001600160a01b03861684529091529020805460ff1916905533916001600160a01b0316907ff6391f5c32d9c69d2a47ea670b442974b53935d1edc7fd64eb21e047a839171b600080a4600190565b90916133856105f7936040845260408401906105c1565b9160208184039101526105c1565b90916133f861341f936133db6133cf6020860135927f0000000000000000000000000000000000000000000000000000000000000000906135ed565b6001600160401b031690565b6133f26133eb60a0870187612e28565b3691612c9c565b91613bef565b939092839460001461349b576002905b61208c61341482612ae6565b916080810190612e28565b6004549092906001600160a01b0316838161343957505050565b61346f92602092613452906001600160a01b0316610a8a565b9060405180958194829363043a78eb60e01b84526004840161336e565b03915afa8015610bfc576134805750565b6134989060203d602011611c1857611c0b8183611566565b50565b600190613408565b9190826040910312610547576040516134bb8161152b565b6020808294805184520151910152565b90604082820312610547576105f7916134a3565b906020909392936040835263ffffffff8151166040840152818101516060840152608061353361351d604084015160a08488015260e08701906105c1565b6060840151868203603f190160a08801526105c1565b910151151560c08401526001600160a01b03909416910152565b6001600160a01b038116919082156131fa57600754908282018092116124ab576000926135b36020927fddf252ad1be2c89b69c2b068fc378daa952ba7f163c4a11628f55a4df523b3ef9460075560018060a01b03166000526005602052604060002090565b818154019055604051908152a3565b156135c957565b63e4676f6960e01b60005260046000fd5b818102929181159184041417156124ab57565b81156135f7570490565b634e487b7160e01b600052601260045260246000fd5b8051821015612c885760209160051b010190565b601f821161362e57505050565b6000526020600020906020601f840160051c83019310613669575b601f0160051c01905b81811061365d575050565b60008155600101613652565b9091508190613649565b91909182516001600160401b0381116115465761369a816136948454611458565b84613621565b6020601f82116001146136db5781906136cc9394956000926136d0575b50508160011b916000199060031b1c19161790565b9055565b0151905038806136b7565b601f198216906136f084600052602060002090565b9160005b81811061372c57509583600195969710613713575b505050811b019055565b015160001960f88460031b161c19169055388080613709565b9192602060018192868b0151815501940192016136f4565b602081016020825282518091526040820191602060408360051b8301019401926000915b83831061377757505050505090565b90919293946020806137ba600193603f19868203018752606060408b5163ffffffff815116845261ffff86820151168685015201519181604082015201906105c1565b97019301930191939290613768565b60005b815181101561385957806137ef60406137e76001948661360d565b510151613890565b61385360406137fe838661360d565b51015163ffffffff613810848761360d565b515116600052600360205261384e604060002061383c6020613832878a61360d565b51015161ffff1690565b61ffff16600052602052604060002090565b613673565b016137cc565b5061388b7fbe4864a8e820971c0247f5992e2da559595f7bf076a21cb5928d443d2a13b6749160405191829182613744565b0390a1565b600361ffff600283015116036138a35750565b604051639a6d49cd60e01b8152602060048201529081906120e99060248301906105c1565b90608082820312610547576139029060408051936138e58561154b565b8051855260208101516138f781612e64565b6020860152016134a3565b604082015290565b61396760809492613983969461391e612f4d565b50602061392b8651613c6c565b9501918251806139ec575b50613940856130af565b925115159261395061131b612a98565b602086015260408501526060840152151585830152565b6040518095819482936302637a4560e41b8452600484016134df565b03917f00000000000000000000000000000000000000000000000000000000000000006001600160a01b03165af1908115610bfc576000916139c3575090565b6105f7915060803d6080116139e5575b6139dd8183611566565b8101906138c8565b503d6139d3565b6139f590613c8b565b38613936565b906001600160a01b038216908115613210576001600160a01b038316600090815260056020526040812090939054828110613a86576001600160a01b0390911660009081526005602052604090207fddf252ad1be2c89b69c2b068fc378daa952ba7f163c4a11628f55a4df523b3ef92918290039055600780548290039055604051908152602090a3565b63391434e360e21b85526001600160a01b0390911660045260245260445250606490fd5b6001600160a01b0316908115610799576001600160a01b0381161561078357613af191600052600660205260406000209060018060a01b0316600052602052604060002090565b55565b90602011610547573590565b90600090602811610a1757506020013560c01c90565b6105f7906001600160401b037f000000000000000000000000000000000000000000000000000000000000000091166135da565b816001600160a01b03821615613b64575b6105f79161354d565b61dead9150613b5b565b919060009281602811611d36579192506105f79136916027190190602801612c9c565b604c91936105f7936040519586936001600160401b0360c01b9060c01b16602085015263ffffffff60e01b9060e01b166028840152602c830152613bde815180926020868601910161059e565b81010301601f198101835282611566565b82511580159390613c3d57613c3a9160689160405194859260208401526001600160401b0360c01b9060c01b166040830152336048830152613bde815180926020868601910161059e565b91565b50906040519160208301526001600160401b0360c01b9060c01b16604082015260288152613c3a604882611566565b803403613c765790565b6304fb820960e51b6000523460045260246000fd5b60405163393f876560e21b81527f00000000000000000000000000000000000000000000000000000000000000006001600160a01b03169190602081600481865afa908115610bfc57600091613dad575b506001600160a01b0316918215613d9c576040516323b872dd60e01b602082019081523360248301526001600160a01b03929092166044820152606480820193909352918252613d4b916000918291613d36608482611566565b519082865af1613d44612bc8565b9083613dcc565b8051908115159182613d7e575b5050613d615750565b635274afe760e01b6000526001600160a01b031660045260246000fd5b613d95925090602080611dd5938301019101612c40565b3880613d58565b6329b99a9560e11b60005260046000fd5b613dc6915060203d602011610f2b57610f1d8183611566565b38613cdc565b90613df25750805115613de157805190602001fd5b630a12f52160e11b60005260046000fd5b81511580613e24575b613e03575090565b639996b31560e01b60009081526001600160a01b0391909116600452602490fd5b50803b15613dfb56fea2646970667358221220a0ef2dc77e2755562490dfc2c445c6ea53f9436850cae06fc3ad9b85d9b5a69b64736f6c634300081a00332f8788117e7eff1d82e926ec794901d17c78024a50270940304540a733656f0d60bdd15bcd7c81e1c221946982eea5530dd9537b3f2e17c4458a06069096be2c6098f29d1f6aa27be29332f9655d270d7a5ac647ec9d1c81b8ae9b629fe1a58f9b2788bb01a4e5439054acd1f78f40f2a154f25e1d2631076a79a383f587848aaa1d7351356c4ddc11907b1ee0660f579cfdf507235af2ae01ecd22a4b7ceaae000000000000000000000000bfc57b070b1eda0fcb9c203edc1085c626f3a36d97667070c54ef182b0f5858b034beac1b6f3089aa2d3188bb1e8929f4fa9b9299f2df0fed2c77648de5860a4cc508cd0818c85b8b8a1ab4ceeef8d981c8956a6b7ebe05d53daa321d1465375ee3bf28142221cf52659ef7d17ff7e160b91ad7f13da86008ba1c6922daee3e07db95305ef49ebced9f5467a0b8613fcc6b343e3","linkReferences":{}},"methodIdentifiers":{"DEFAULT_ADMIN_ROLE()":"a217fddf","DENOM()":"16343da4","MINTER_ROLE()":"d5391393","OPERATIONS()":"fd4e36ec","OPERATOR_ROLE()":"f5b541a6","SEND()":"1f5e1334","SEND_AND_CALL()":"134d4f25","WETH()":"ad5c4648","aToken()":"a0c1f15e","allowInitializePath((uint32,bytes32,uint64))":"ff7bd03d","allowance(address,address)":"dd62ed3e","approvalRequired()":"9f68b964","approve(address,uint256)":"095ea7b3","balanceOf(address)":"70a08231","changeRecipient(address)":"92c2bcb4","changeShares(uint256,uint256)":"cf0eed38","combineOptions(uint32,uint16,bytes)":"bc70b354","decimalConversionRate()":"963efcaa","decimals()":"313ce567","endpoint()":"5e280f11","enforcedOptions(uint32,uint16)":"5535d461","ercWETH()":"6e4791f8","execute(address,bytes)":"1cff79cd","getRoleAdmin(bytes32)":"248a9ca3","grantRole(bytes32,address)":"2f2ff15d","hasRole(bytes32,address)":"91d14854","highestProcessedID()":"76d54da9","incentivesRecipient()":"15ac86f3","init(address,address,address)":"184b9559","isComposeMsgSender((uint32,bytes32,uint64),bytes,address)":"82413eac","isPeer(uint32,bytes32)":"5a0dfe4d","lastProcessedID()":"1e876424","lzReceive((uint32,bytes32,uint64),bytes32,bytes,address,bytes)":"13137d65","lzReceiveAndRevert(((uint32,bytes32,uint64),uint32,address,bytes32,uint256,address,bytes,bytes)[])":"bd815db0","lzReceiveSimulate((uint32,bytes32,uint64),bytes32,bytes,address,bytes)":"d045a0dc","minReq()":"7c60fa60","mint(uint256)":"a0712d68","msgInspector()":"111ecdad","name()":"06fdde03","nativeMint()":"eda62134","nextNonce(uint32,bytes32)":"7d25a05e","oApp()":"52ae2879","oAppVersion()":"17442b70","oftVersion()":"156a0d0f","owner()":"8da5cb5b","paused()":"5c975abb","payloads(uint256)":"590e1577","peers(uint32)":"bb0b6a53","preCrime()":"b731ea0a","processRedemptions(uint256[])":"b54df1e3","quoteOFT((uint32,bytes32,uint256,uint256,bytes,bytes,bytes))":"0d35b415","quoteSend((uint32,bytes32,uint256,uint256,bytes,bytes,bytes),bool)":"3b6f743b","redeemShareEth()":"3dffe51f","renounceOwnership()":"715018a6","renounceRole(bytes32,address)":"36568abe","requestRedemption(uint256)":"eeb3c910","revokeRole(bytes32,address)":"d547741f","send((uint32,bytes32,uint256,uint256,bytes,bytes,bytes),(uint256,uint256),address)":"c7c7f5b3","setDelegate(address)":"ca5eb5e1","setEnforcedOptions((uint32,uint16,bytes)[])":"b98bd070","setMinReq(uint256)":"02844be8","setMsgInspector(address)":"6fc1b31e","setPaused(bool)":"16c38b3c","setPeer(uint32,bytes32)":"3400288b","setPreCrime(address)":"d4243885","shareT()":"ae334602","shareU()":"d453a560","sharedDecimals()":"857749b0","supportsInterface(bytes4)":"01ffc9a7","symbol()":"95d89b41","token()":"fc0c546a","totalDepositedEther()":"9b4d51f4","totalSupply()":"18160ddd","transfer(address,uint256)":"a9059cbb","transferFrom(address,address,uint256)":"23b872dd","transferOwnership(address)":"f2fde38b","underlying()":"6f307dc3","wtg()":"c5283ef2"},"id":64}